:100000000C9418010C943E010C943E010C943E019A
:100010000C943E010C943E010C943E010C943E0164
:100020000C943E010C943E010C943E010C943E0154
:100030000C943E010C943E010C943E010C943E0144
:100040000C94AB0C0C943E010C943E010C943E01BC
:100050000C94A70D0C943E010C943E010C943E01AF
:100060000C943E010C94AA270C943E010C943E0182
:100070000C943E010C943E010C943E010C943E0104
:100080000C943E010C943E010C943E010C943E01F4
:100090000C943E010C943E010C943E010C943E01E4
:1000A0000C943E010C943E010C943E010C943E01D4
:1000B0000C943E010C943E010C943E010C943E01C4
:1000C0000C943E010C943E010C943E010C943E01B4
:1000D0000C943E010C943E010C943E010C943E01A4
:1000E0000C943E010C943E010C943E010C943E0194
:1000F0000C943E010C943E010C943E010C943E0184
:100100000C940A240C94B6250C943E010C943E01E8
:100110000C943E010C943E010C943E010C943E0163
:100120000C943E010C943E010C943E010C943E0153
:100130000C943E010C943E010C943E010C943E0143
:100140000C943E010C943E010C943E010C943F0F24
:100150000C943E010C943E010C943E010C943E0123
:100160000C943E010C943E010C943E010C943E0113
:100170000C943E010C943E010C943E010C943E0103
:100180000C947A220C943E010C943E010C943E0196
:100190000C943E010C943E010C943E010C943E01E3
:1001A0000C943E010C943E010C943E010C943E01D3
:1001B0000C943E010C943E010C943E010C943E01C3
:1001C0000C943E010C943E010C943E010C943E01B3
:1001D0000C943E010C943E010C9464030C943E017B
:1001E0000C943E010C943E010C943E010C943E0193
:1001F0000C943E014E414E494E495459494E46CD0C
:10020000CCCC3D0AD7233C17B7D13877CC2B3295CD
:1002100095E6241FB14F0A000020410000C84200AB
:10022000401C4620BCBE4CCA1B0E5AAEC59D740075
:1002300011241FBECFEFCDBFDFE3DEBF00E00CBF58
:1002400018BE19BE1ABE1BBE14E2A0E0B0E2EAE37B
:10025000F1E600E00BBF02C007900D92A634B10793
:10026000D9F71BBE27E2A6E4B4E201C01D92A43474
:10027000B207E1F70E94E7270C949B300C94000032
:10028000E8E1F7E220E030E090E08217930721F008
:1002900010821182128213822F5F3F4F34962330D7
:1002A000310599F70895EEEEF6E290818181892B70
:1002B0009281892B0895813041F018F0823049F005
:1002C000089580E280932707089588E080932707A8
:1002D000089582E0809327070895FC01E152F94DCB
:1002E0006083662319F06130D9F00895813091055B
:1002F00059F08230910571F0892B59F5E0E2F7E071
:1003000084818F7E84830895E0E2F7E084818B7F8F
:1003100084830895E0E2F7E084818E7F84830895EA
:100320008130910559F08230910571F0892B89F463
:10033000E0E2F7E08481806184830895E0E2F7E001
:100340008481846084830895E0E2F7E084818160A1
:1003500084830895FC01E452F94D6083662319F00B
:100360006130D9F008958130910559F082309105BE
:1003700071F0892B59F5E0E0F6E084818F7B84836E
:100380000895E0E2F6E084818F7E84830895E0E4BE
:10039000F6E08481877F848308958130910559F048
:1003A0008230910571F0892B89F4E0E0F6E08481D8
:1003B000806484830895E0E2F6E084818061848330
:1003C0000895E0E4F6E08481886084830895FC0168
:1003D000E752F94D6083662319F06130D9F0089532
:1003E0008130910559F08230910571F0892B59F5D2
:1003F000E0E0F6E084818F7784830895E0E2F6E020
:1004000084818F7784830895E0E4F6E084818F7798
:10041000848308958130910559F08230910571F0FF
:10042000892B89F4E0E0F6E0848180688483089574
:10043000E0E2F6E08481806884830895E0E4F6E0F9
:100440008481806884830895813051F018F082306F
:1004500061F00FC08091080682FB882780F908951B
:100460008091280686958170089580914806817054
:10047000089580E00895813049F018F0823061F0ED
:1004800010C0809108068695817008958091280695
:1004900082FB882780F908958091480686958170AF
:1004A000089580E00895813049F018F0823061F0BD
:1004B00010C0809108068295817008958091280669
:1004C00086FB882780F9089580914806829581707F
:1004D000089580E00895813051F018F0823059F08D
:1004E00010C08091080683FB882780F908958091C9
:1004F0002806817008958091480685FB882780F939
:10050000089580E00895813051F018F0823069F04C
:1005100012C08091080685FB882780F90895809194
:10052000280685FB882780F908958091480686FB78
:10053000882780F9089580E00895E0E0F6E01482CD
:1005400080EC8083108A118A128A138A148A158A91
:10055000168A178A8185807F818712861386E0E25A
:10056000F6E0148280E98083108A118A128A138A45
:10057000148A158A168A178A8185807F8187128658
:100580001386E0E4F6E088E8848398E09083108A9C
:10059000118A128A138A148A158A168A178A818503
:1005A000807F818712861386E0E6F6E0148210824F
:1005B000108A118A128A138A148A158A168A178A4F
:1005C0008185807F85608187928786E08387E0E8E8
:1005D000F6E0148286EB8083108A118A128A138ACD
:1005E000148A158A168A178A8185807F81871286E8
:1005F0001386E0EAF6E0148281E48083108A118A8F
:10060000128A138A148A158A168A178A8185807F2E
:10061000818712861386E0EEF6E014828CEF8083E9
:10062000108A118A128A138A148A158A168A178ADE
:100630008185807F8160818782E082871386E0E008
:10064000F7E014828FEF8083108A118A128A138A4E
:10065000148A158A168A178A8185807F8187128677
:100660001386E0E2F7E014828FE38083108A118A18
:10067000128A138A148A158A168A178A8185807FBE
:10068000818712861386E0ECF7E014821082108ACC
:10069000118A128A138A8185807F81871286138648
:1006A000E0EEF7E0148283E08083108A118A81856E
:1006B000807F8187128613860895E0ECFBE080E45A
:1006C000808383E0818308951F920F920FB60F926B
:1006D000112408B60F9218BE09B60F9219BE0AB6B9
:1006E0000F921ABE0BB60F921BBE2F933F938F93A0
:1006F0009F93AF93BF93CF93DF93EF93FF93E0EC80
:10070000FBE08281938180919C25811139C09D30CD
:10071000B9F0992309F455C020919D2530919E256B
:10072000243631050CF04FC0F901ED5FF94D90838F
:100730002F5F3F4F20939D2530939E2520E244C09C
:10074000CFE9D5E2A3E0B6E287E696E2FD0120819B
:1007500029931192E817F907D1F721E020939B25FF
:100760001D92A817B907E1F784E690E080939925D8
:1007700090939A2510929D2510929E2520E224C0E8
:100780008091672690916826843691052CF4FC01AF
:10079000E759F94D208101C020E201968093672638
:1007A000909368268536910579F4E0EAF6E0848135
:1007B0008E7F848310929C25109267261092682663
:1007C00003C020E201C020E22093C30BFF91EF9110
:1007D000DF91CF91BF91AF919F918F913F912F91D9
:1007E0000F900BBE0F900ABE0F9009BE0F9008BE6F
:1007F0000F900FBE0F901F901895E0ECFAE083E584
:100800008083118208958093C30AE0ECFAE082812C
:100810008823ECF78091C30A0895FA0160837183FD
:100820008283938308950F931F93FC01038110E04B
:1008300020E030E0302F222711270027428150E0AE
:1008400060E070E0BA0155274427040F151F261FEA
:10085000371F418150E060E070E0762F652F542F04
:100860004427D901C801840F951FA61FB71F2081F7
:10087000BC01CD01620F711D811D911D1F910F9152
:100880000895AF92BF92CF92DF92EF92FF920F93B3
:100890001F93CF93DF9300D01F92CDB7DEB7109296
:1008A00094251092952510929625109297251092D6
:1008B0009225109293251092912510929025E0E8B0
:1008C000F6E084818061848384818F7E848383E0E9
:1008D0000E940304809190250E9403048091912539
:1008E0000E94030480E00E9403040BEC14E2E12C5C
:1008F000F12C0F2EF2E0AF2EF0E2BF2EF02D0F2ED6
:10090000F3E2CF2EF0E2DF2EF02D80E00E94030410
:100910008A8380E00E94030489832A8130E0322F99
:100920002227A901480F511DF8014083518380E01F
:100930000E940304F801828380E00E940304F8010E
:10094000838380E00E940304F801848380E00E9496
:1009500003048C8380E00E9403048B8380E00E9468
:1009600003048A8380E00E9403048983CE010196F8
:100970000E941304F801658376838783908780E063
:100980000E9403048C8380E00E9403048B8380E038
:100990000E9403048A8380E00E9403048983CE01BD
:1009A00001960E941304F8016187728783879487F8
:1009B00080E00E9403048C8380E00E9403048B8308
:1009C00080E00E9403048A8380E00E9403048983FC
:1009D000CE0101960E941304F80165877687878708
:1009E000908B80E00E9403048C8380E00E940304CB
:1009F0008B8380E00E9403048A8380E00E940304CA
:100A00008983CE0101960E941304F801618B728BD9
:100A1000838B948B80E00E9403048C8380E00E948F
:100A200003048B8380E00E9403048A8380E00E9499
:100A300003048983CE0101960E941304F801658B9B
:100A4000768B878B908F80E00E9403048A8380E0FE
:100A50000E94030489832A8130E0322F2227A901D2
:100A6000480F511DF801418F528F80E00E9403040E
:100A7000F801838F80E00E940304F801848F80E0F6
:100A80000E9403048C8380E00E9403048B8380E037
:100A90000E9403048A8380E00E9403048983CE01BC
:100AA00001960E941304F801658F768F878F90A3BB
:100AB00080E00E9403048C8380E00E9403048B8307
:100AC00080E00E9403048A8380E00E9403048983FB
:100AD000CE0101960E941304F80161A372A383A3BF
:100AE00094A380E00E940304F80185A380E00E94A3
:100AF0000304F80186A380E00E940304F80187A3A1
:100B000080E00E940304F80180A780E00E940304B3
:100B1000F80181A71F928F93FF92EF92BF92AF923D
:100B20000E94C12B80E00E940304F80182A71F925B
:100B30008F93FF92EF92DF92CF920E94C12BFFEF33
:100B4000EF1AFF0A055D1F4FCDBFDEBF53E0E5166C
:100B5000F10409F0DACE2496CDBFDEBFDF91CF914C
:100B60001F910F91FF90EF90DF90CF90BF90AF90CB
:100B700008952F923F924F925F926F927F928F9241
:100B80009F92AF92BF92CF92DF92EF92FF920F931C
:100B90001F93CF93DF9300D01F92CDB7DEB784E4CD
:100BA00090E20E94D52B8091982581114FC083E55A
:100BB00090E20E94D52B88EE93E0A0E0B0E0809315
:100BC000942590939525A0939625B09397251F92F1
:100BD0001F9283E08F9388EE8F9388E690E29F9335
:100BE0008F930E94C12B8091942590919525A0917F
:100BF0009625B0919725880F991FAA1FBB1F809338
:100C00009225909393258093912590939025E0E8E9
:100C1000F6E084818061848384818F7E848383E095
:100C20000E940304809190250E94030480919125E5
:100C30000E94030480E00E94030481E080939825D1
:100C40000F900F900F900F900F900F9080E00E94E8
:100C500003048A8380E00E94030489830CE415E284
:100C60002A8130E0322F2227A901480F511DF801B7
:100C70004083518380E00E940304F801828380E076
:100C80000E940304F8018383813009F422C120F01B
:100C90008A3509F4CDC115C280E00E940304809317
:100CA0005025882309F48AC00F2EF1E58F2EF5E236
:100CB0009F2EF02DA12CB12C3E01F5E06F0E711C82
:100CC000AE014F5F5F4F7A010F2EFCE44F2EF5E22D
:100CD0005F2EF02D262C372C6701830104C01816D7
:100CE0001906ECF06BC080E00E940304F8018293C7
:100CF0008F01EE16FF06B9F7C7010E941304F40135
:100D000061937193819391934F01FFEFAF1ABF0AE3
:100D1000F201848190E0A816B906E4F2E0CF0F2E2C
:100D2000F0E6AF2EF5E2BF2EF02DE12CF12C0F2EC8
:100D3000FCE48F2EF5E29F2EF02D022D132D05C021
:100D40008091502581111EC039C080E00E940304AB
:100D5000F80182938F01EC15FD05B9F7CE010196DC
:100D60000E941304F50161937193819391935F0144
:100D7000FFEFEF1AFF0AF401848190E0E816F9060C
:100D8000E4F2DECF0F2EFDE5EF2EF5E2FF2EF02D83
:100D900000E010E00F2EFCE4CF2EF5E2DF2EF02D68
:100DA00080E00E940304F70181937F010F5F1F4FD2
:100DB000F601848190E00817190794F37E01F5E0AD
:100DC000EF0EF11C8E010F5F1F4F670180E00E9444
:100DD0000304F60182936F01E017F107B9F7CE0122
:100DE00001960E94130460936C2570936D25809387
:100DF0006E2590936F25670180E00E940304F60141
:100E000082936F01E017F107B9F7CE0101960E94B6
:100E100013046093702570937125809372259093CD
:100E20007325670180E00E940304F60182936F013D
:100E3000E017F107B9F7CE0101960E941304609301
:100E40007425709375258093762590937725670197
:100E500080E00E940304F60182936F01E017F1071E
:100E6000B9F7CE0101960E94130460937825709320
:100E7000792580937A2590937B25670180E00E94F5
:100E80000304F60182936F01E017F107B9F7CE0171
:100E900001960E94130460937C2570937D258093B6
:100EA0007E2590937F2580E00E940304F7018293C2
:100EB0007F01E017F107B9F7CE0101960E941304F4
:100EC000609380257093812580938225909383255C
:100ED000F8C080E00E94030480935025882309F421
:100EE0008AC00F2EF1E58F2EF5E29F2EF02DA12C5A
:100EF000B12C3E01F5E06F0E711CAE014F5F5F4FEC
:100F00007A010F2EFCE44F2EF5E25F2EF02D262CF9
:100F1000372C6701830104C018161906ECF06BC06A
:100F200080E00E940304F80182938F01EE16FF0611
:100F3000B9F7C7010E941304F4016193719381937F
:100F400091934F01FFEFAF1ABF0AF201848190E045
:100F5000A816B906E4F2E0CF0F2EF0E6AF2EF5E2C8
:100F6000BF2EF02DE12CF12C0F2EFCE48F2EF5E29C
:100F70009F2EF02D022D132D05C08091502581113B
:100F80001EC039C080E00E940304F80182938F01E3
:100F9000CE16DF06B9F7CE0101960E941304F501C3
:100FA00061937193819391935F01FFEFEF1AFF0AB1
:100FB000F401848190E0E816F906E4F2DECF0F2E0A
:100FC000FDE5EF2EF5E2FF2EF02D00E010E00F2EF4
:100FD000FCE4CF2EF5E2DF2EF02D80E00E9403042A
:100FE000F70181937F010F5F1F4FF601848190E02D
:100FF0000817190794F38E010B5F1F4FAE014F5F67
:101000005F4F7A0180E00E940304F80182938F0110
:10101000EE16FF06B9F7CE0101960E941304609305
:101020006C2570936D2580936E2590936F2549C034
:1010300080E00E9403040CE415E2F80180AF80E038
:101040000E9403048C8380E00E9403048B8380E071
:101050000E9403048A8380E00E9403048983CE01F6
:1010600001960E941304F80161AF72AF83AF94AF91
:1010700080E00E9403048C8380E00E9403048B8341
:1010800080E00E9403048A8380E00E940304898335
:10109000CE0101960E9413046093892570938A25DE
:1010A00080938B2590938C2580E00E94030480938D
:1010B0008D2580E00E94030490E080938E2590931C
:1010C0008F252496CDBFDEBFDF91CF911F910F9169
:1010D000FF90EF90DF90CF90BF90AF909F908F9058
:1010E0007F906F905F904F903F902F900895CF9397
:1010F000DF9300D01F92CDB7DEB782E890E20E9466
:10110000D52B87EE93E0A0E0B0E0809394259093F8
:101110009525A0939625B09397258EEC97E0809324
:101120009225909393258EEC8093912587E0809370
:101130009025E0E8F6E084818061848384818F7E5D
:10114000848383E00E940304809190250E9403041D
:10115000809191250E94030480E00E94030480E0B6
:101160000E9403048C8380E00E9403048B8380E050
:101170000E9403048A8380E00E94030489839C8187
:101180001F929F939B811F929F939A811F929F937F
:101190001F928F9385E990E29F938F930E94C12BBA
:1011A000CE0101960E941304CDBFDEBF2496CDBFB1
:1011B000DEBFDF91CF9108952F923F924F925F92C1
:1011C0006F927F928F929F92AF92BF92CF92DF9257
:1011D000EF92FF920F931F93CF93DF9300D01F9254
:1011E000CDB7DEB72091982521112FC0A0E0B0E047
:1011F0008093942590939525A0939625B093972559
:10120000880F991FAA1FBB1F809392259093932547
:101210008093912590939025E0E8F6E084818061A9
:10122000848384818F7E848383E00E940304809181
:1012300090250E940304809191250E94030480E080
:101240000E94030481E08093982580E00E940304BB
:101250008A8380E00E94030489830CE415E22A81DA
:1012600030E0322F2227A901480F511DF801408399
:10127000518380E00E940304F801828380E00E9491
:101280000304F8018383882321F0813009F41EC10F
:10129000CBC180E00E94030480935025882309F489
:1012A0008AC00F2EF1E58F2EF5E29F2EF02DA12C96
:1012B000B12C3E01F5E06F0E711CAE014F5F5F4F28
:1012C0007A010F2EFCE44F2EF5E25F2EF02D262C36
:1012D000372C6701830104C018161906ECF06BC0A7
:1012E00080E00E940304F80182938F01EE16FF064E
:1012F000B9F7C7010E941304F401619371938193BC
:1013000091934F01FFEFAF1ABF0AF201848190E081
:10131000A816B906E4F2E0CF0F2EF0E6AF2EF5E204
:10132000BF2EF02DE12CF12C0F2EFCE48F2EF5E2D8
:101330009F2EF02D022D132D05C080915025811177
:101340001EC039C080E00E940304F80182938F011F
:10135000EC15FD05B9F7CE0101960E941304F501C5
:1013600061937193819391935F01FFEFEF1AFF0AED
:10137000F401848190E0E816F906E4F2DECF0F2E46
:10138000FDE5EF2EF5E2FF2EF02D00E010E00F2E30
:10139000FCE4CF2EF5E2DF2EF02D80E00E94030466
:1013A000F70181937F010F5F1F4FF601848190E069
:1013B0000817190794F37E01F5E0EF0EF11C8E017A
:1013C0000F5F1F4F670180E00E940304F6018293C4
:1013D0006F01E017F107B9F7CE0101960E941304DF
:1013E00060936C2570936D2580936E2590936F2587
:1013F000670180E00E940304F60182936F01E01709
:10140000F107B9F7CE0101960E941304609370258D
:10141000709371258093722590937325670180E006
:101420000E940304F60182936F01E017F107B9F7F8
:10143000CE0101960E941304609374257093752564
:101440008093762590937725670180E00E940304BE
:10145000F60182936F01E017F107B9F7CE0101960B
:101460000E941304609378257093792580937A25E0
:1014700090937B25670180E00E940304F60182932C
:101480006F01E017F107B9F7CE0101960E9413042E
:1014900060937C2570937D2580937E2590937F2596
:1014A00080E00E940304F70182937F01E017F107B7
:1014B000B9F7CE0101960E941304609380257093C2
:1014C00081258093822590938325AEC080E00E9481
:1014D000030480935025882309F48AC00F2EF1E578
:1014E0008F2EF5E29F2EF02DA12CB12C3E01F5E0C0
:1014F0006F0E711CAE014F5F5F4F7A010F2EFCE43F
:101500004F2EF5E25F2EF02D262C372C670183013C
:1015100004C018161906ECF06BC080E00E940304AA
:10152000F80182938F01EE16FF06B9F7C7010E94FA
:101530001304F40161937193819391934F01FFEF31
:10154000AF1ABF0AF201848190E0A816B906E4F24E
:10155000E0CF0F2EF0E6AF2EF5E2BF2EF02DE12CFE
:10156000F12C0F2EFCE48F2EF5E29F2EF02D022D94
:10157000132D05C08091502581111EC039C080E017
:101580000E940304F80182938F01CE16DF06B9F79B
:10159000CE0101960E941304F5016193719381932A
:1015A00091935F01FFEFEF1AFF0AF401848190E04D
:1015B000E816F906E4F2DECF0F2EFDE5EF2EF5E298
:1015C000FF2EF02D00E010E00F2EFCE4CF2EF5E210
:1015D000DF2EF02D80E00E940304F70181937F014C
:1015E0000F5F1F4FF601848190E00817190794F3ED
:1015F0008E010B5F1F4FAE014F5F5F4F7A0180E09E
:101600000E940304F80182938F01EE16FF06B9F7DA
:10161000CE0101960E94130460936C2570936D2592
:1016200080936E2590936F252496CDBFDEBFDF910A
:10163000CF911F910F91FF90EF90DF90CF90BF90CF
:10164000AF909F908F907F906F905F904F903F9062
:101650002F9008957F928F929F92AF92BF92CF92D8
:10166000DF92EF92FF920F931F93CF93DF9300D0FF
:101670001F92CDB7DEB74B015C0187EE93E0A0E08F
:10168000B0E08093942590939525A0939625B093F0
:1016900097258EEC97E080939225909393258EEC7E
:1016A0008093912587E08093902500E816E0F8016B
:1016B00084818061848384818F7E848381E80E9419
:1016C0000304809190250E940304809191250E943B
:1016D000030480E00E940304F80184818061848314
:1016E0000F2EF0EEEF2EF7E0FF2EF02D0F2EF3EB86
:1016F000CF2EF0E2DF2EF02DF80184818F7E8483DF
:10170000F701848180FF03C08481848304C0F701D2
:1017100084818160848387ED0E94030480E00E94BD
:101720000304782E1F928F93DF92CF920E94C12BD9
:10173000F8018481806184830F900F900F900F9047
:101740007720D4F6E0E8F6E084818F7E8483809170
:10175000E40781FF06C0E0EEF7E084818E7F84839A
:1017600005C0E0EEF7E084818260848384E80E9413
:101770000304809190250E940304809191250E948A
:10178000030480E00E940304AE014F5F5F4FC50178
:10179000B4010E940D048C811F928F938B811F9244
:1017A0008F938A811F928F9389811F928F9380ECF0
:1017B00090E29F938F930E94C12B8C810E9403041F
:1017C0008B810E9403048A810E94030489810E9404
:1017D000030400E816E0F801848180618483848139
:1017E0008F7E848383E80E940304809190250E9469
:1017F0000304809191250E94030480E00E94030469
:10180000F801848180618483CDBFDEBF2496CDBF83
:10181000DEBFDF91CF911F910F91FF90EF90DF908E
:10182000CF90BF90AF909F908F907F9008952FB7EB
:10183000F894E0E0F8E010828CE0818781E080831A
:10184000818313821482168283E08783A0E9B8E043
:101850008C918E7F8C93A0E9B0E019968C911997AA
:101860008E7F98ED94BF19968C93A0E8B8E01C92F7
:1018700018961C92189719961C9219971C961C92F0
:101880001C9713968C911397887E13968C931397BD
:1018900012961C92129714968C91149714969C9100
:1018A00014978470892B14968C938485848710A256
:1018B00011A216A217A28FEF9FEF80A791A712A6E1
:1018C00013A614A615A616A617A62FBF08959FB790
:1018D000F894E0E4F8E010828CE0818784E0808373
:1018E00011821382148282E086831782A0E9B8E015
:1018F0008C918D7F8C938485848710A211A22FE315
:101900003CE926A337A310A611A612A613A69FBFD3
:1019100008959FB7F894E0E4F9E010828CE08187A5
:1019200085E0808311821382148281E0868317828E
:10193000A0E9B9E08C918D7F8C938485848710A277
:1019400011A22FE433EC26A337A310A611A612A6EA
:1019500013A69FBF08951F920F920FB60F921124E6
:1019600008B60F9218BE09B60F9219BE0AB60F92AA
:101970001ABE0BB60F921BBE4F925F926F927F9270
:101980008F929F92AF92BF92CF92DF92EF92FF928F
:101990000F931F932F933F934F935F936F937F9377
:1019A0008F939F93AF93BF93CF93DF93EF93FF9367
:1019B00080910C0884FF05C0E0E0F8E08485806138
:1019C000848780918B2490918C24A0918D24B09158
:1019D0008E24181619061A061B060CF06FC0019704
:1019E000A109B10980938B2490938C24A0938D241A
:1019F000B0938E2463C088819981AA81BB81181617
:101A000019061A061B060CF043C0F801208131812B
:101A1000F60180819181820F931FF8018083918369
:101A2000883E934090F1852D0E945B01F8018081F2
:101A30009181885E93408083918388819981AA8176
:101A4000BB810197A109B10988839983AA83BB83CC
:101A5000F401808181110DC0F50180819181A28105
:101A6000B3810197A109B10980839183A283B383D4
:101A70000CC0F50180819181A281B3810196A11DE5
:101A8000B11D80839183A283B383F701408202C09A
:101A9000F70110822496FFEFEF1AFF0A0E5F1F4F27
:101AA00022E0C20ED11C84E0A80EB11C5394EFEFCB
:101AB0008E1A9E0AF3E05F129ECF20C0C8E1D7E2E3
:101AC0000F2EFEEEEF2EF6E2FF2EF02D08EE16E2C0
:101AD0000F2EF2EECF2EF6E2DF2EF02D0F2EF4E2D7
:101AE000AF2EF7E2BF2EF02D0F2EFFED8F2EF6E278
:101AF0009F2EF02D512C442443947DCFFF91EF91E4
:101B0000DF91CF91BF91AF919F918F917F916F9115
:101B10005F914F913F912F911F910F91FF90EF9007
:101B2000DF90CF90BF90AF909F908F907F906F90FD
:101B30005F904F900F900BBE0F900ABE0F9009BEA2
:101B40000F9008BE0F900FBE0F901F9018951F9218
:101B50000F920FB60F92112408B60F9218BE09B655
:101B60000F9219BE0BB60F921BBECF92DF92EF926F
:101B7000FF920F931F932F933F934F935F936F9316
:101B80007F938F939F93AF93BF93EF93FF93809136
:101B9000C4249091C52401968093C4249093C524B5
:101BA000C0908B24D0908C24E0908D24F0908E24D3
:101BB0001C141D041E041F040CF086C08091932485
:101BC00090919424A0919524B0919624C816D9069A
:101BD000EA06FB06B4F14091772450917824609195
:101BE000792470917A248091732490917424A09127
:101BF0007524B09176248A019B01080F191F2A1FB2
:101C00003B1FC901B80100937724109378242093D7
:101C1000792430937A240E94DE299B01AC0160E094
:101C200070E08AE796E40E94342920E030E04AE739
:101C300054E40E946A2A0E94AD2960932808709398
:101C4000290880918F2490919024A0919124B091A3
:101C500092248C159D05AE05BF050CF4F3C0809150
:101C6000772490917824A0917924B0917A24C0901F
:101C70007324D0907424E0907524F0907624BC01F5
:101C8000CD016C197D098E099F09609377247093AB
:101C900078248093792490937A240E94DE299B01F2
:101CA000AC0160E070E08AE796E40E94342920E00D
:101CB00030E04AE754E40E946A2A0E94AD2960930A
:101CC000280870932908BEC080916E24813009F0E5
:101CD00051C040917724509178246091792470917B
:101CE0007A248091732490917424A0917524B091EA
:101CF0007624840F951FA61FB71F80937724909397
:101D00007824A0937924B0937A2440918724509129
:101D100088246091892470918A2484179507A607E6
:101D2000B70754F040937724509378246093792434
:101D300070937A2410926E246091772470917824A5
:101D40008091792490917A240E94DE299B01AC0134
:101D500060E070E08AE796E40E94342920E030E0F9
:101D60004AE754E40E946A2A0E94AD296093280839
:101D70007093290880916D24813009F063C04091EF
:101D80006F2450917024609171247091722480911D
:101D9000772490917824A0917924B0917A24841B9F
:101DA000950BA60BB70B481759076A077B074CF42E
:101DB0008093772490937824A0937924B0937A2405
:101DC00023C04093772450937824609379247093B0
:101DD0007A2410926D2480910020909101208F3FF1
:101DE0001FEF910789F0880F991F880F991FFC0139
:101DF000E85EF84D10821182128213828FEF9FEFFE
:101E00008093002090930120609177247091782432
:101E10008091792490917A240E94DE299B01AC0163
:101E200060E070E08AE796E40E94342920E030E028
:101E30004AE754E40E946A2A0E94AD296093280868
:101E400070932908FF91EF91BF91AF919F918F916E
:101E50007F916F915F914F913F912F911F910F91C2
:101E6000FF90EF90DF90CF900F900BBE0F9009BEC8
:101E70000F9008BE0F900FBE0F901F9018951F92E5
:101E80000F920FB60F92112408B60F9218BE09B622
:101E90000F9219BE0AB60F921ABE0BB60F921BBE56
:101EA0007F928F929F92AF92BF92CF92DF92EF92EA
:101EB000FF920F931F932F933F934F935F936F93D3
:101EC0007F938F939F93AF93BF93CF93DF93EF93C2
:101ED000FF930BEC14E20F2EF8E1AF2EF7E2BF2ECA
:101EE000F02D0F2EFEEECF2EF6E2DF2EF02D0F2E70
:101EF000FFEDEF2EF6E2FF2EF02DC0E0D0E048011E
:101F0000F80182A5882329F1F701808181115BC046
:101F10008C2F0E94530281111CC0F60180818823FE
:101F2000C1F0F5011082118212821382809168241F
:101F300081110FC0C0930020D093012010928B24F8
:101F400010928C2410928D2410928E248C2F0E943B
:101F50004001F40181A5882329F1F70180818823BC
:101F600009F18C2F0E946B0281111CC0F601808147
:101F70008823C1F0F50110821182128213828091B0
:101F8000682481110FC0C0930020D09301201092CB
:101F90008B2410928C2410928D2410928E248C2FDE
:101FA0000E9440012196055D1F4FF4E0AF0EB11C69
:101FB0008FEFC81AD80AEFEFEE1AFE0AC330D10528
:101FC00009F09ECF05C0F40181A5882359F3C9CF3C
:101FD000FF91EF91DF91CF91BF91AF919F918F9141
:101FE0007F916F915F914F913F912F911F910F9131
:101FF000FF90EF90DF90CF90BF90AF909F908F9029
:102000007F900F900BBE0F900ABE0F9009BE0F90ED
:1020100008BE0F900FBE0F901F9018952F923F9201
:102020004F925F926F927F928F929F92AF92BF92E8
:10203000CF92DF92EF92FF920F931F93CF93DF9394
:1020400080914F258E3009F4F6C158F4813009F49F
:10205000BCC0C8F08C3009F454C18D3009F4D5C12E
:10206000C0C48A3509F405C338F4813509F4F5C2D2
:10207000823509F4F8C2B5C4843609F45CC48536E7
:1020800009F462C4AEC4E0E0F8E010828CE081871D
:10209000809150258823F1F10F2EF2EECF2EF6E23B
:1020A000DF2EF02D0F2EFDE5EF2EF5E2FF2EF02DA9
:1020B0000F2EF1E58F2EF5E29F2EF02D08E117E2AD
:1020C000C0E0D0E00F2EFCE4AF2EF5E2BF2EF02DE5
:1020D000F40187859089F601819391936F01F7014F
:1020E00061917F01CE010E946D01F4018081918197
:1020F000A281B381F4E08F0E911CF801819391933A
:10210000A193B1938F012196F501848190E0C817C6
:10211000D907F4F2ECE4F5E280A191A1A2A1B3A168
:102120008093872490938824A0938924B0938A2451
:1021300080A591A5A2A5B3A5809373249093742440
:10214000A0937524B093762484A595A5A6A5B7A5DC
:1021500080936F2490937024A0937124B093722481
:1021600084A195A1A6A1B7A180938B2490938C24E0
:10217000A0938D24B0938E2480A991A9A2A9B3A97C
:102180008093932490939424A0939524B0939624C1
:1021900084A995A9A6A9B7A980938F249093902488
:1021A000A0939124B09392241092772410927824D3
:1021B0001092792410927A240E94170C8FEF9FEFCF
:1021C00080932808909329080CC4E0E0F8E010827E
:1021D0008CE08187809150258823F1F10F2EF2EE5B
:1021E000CF2EF6E2DF2EF02D0F2EFDE5EF2EF5E2DD
:1021F000FF2EF02D0F2EF1E58F2EF5E29F2EF02D04
:1022000008E117E2C0E0D0E00F2EFCE4AF2EF5E2CB
:10221000BF2EF02DF40187859089F601819391936B
:102220006F01F70161917F01CE010E946D01F40100
:1022300080819181A281B381F4E08F0E911CF8011D
:1022400081939193A193B1938F012196F50184819C
:1022500090E0C817D907F4F260916C2570916D2554
:1022600080916E2590916F256093872470938824C8
:102270008093892490938A2410929324109294241A
:10228000109295241092962410928F2410929024EC
:102290001092912410929224609377247093782462
:1022A0008093792490937A2410926E2410926D2456
:1022B0000E94DE299B01AC0160E070E08AE796E4B1
:1022C0000E9434296093C6247093C7248093C82445
:1022D0009093C9240E94170C20E030E04AE754E4B0
:1022E0006091C6247091C7248091C8249091C9241C
:1022F0000E946A2A0E94AD296093280870932908D9
:1023000070C30E9453018130F1F30BEC14E20F2EE5
:10231000F2EECF2EF6E2DF2EF02D0F2EF8E1EF2EAB
:10232000F7E2FF2EF02DC0E0D0E00F2EF8EE6F2E7A
:10233000F3E07F2EF02D0F2E88248A94982CA82C61
:10234000FFE7BF2EF02DF801648DCE010E946D01D4
:10235000F601619271926F01F70181929192A192BF
:10236000B1927F012196055D1F4FC330D10559F70A
:1023700080E49FE1A0E0B0E08093872490938824DC
:10238000A0938924B0938A2480937724909378240F
:10239000A0937924B0937A2410926E2410926D2425
:1023A00080E090E0A0E0B0E48093C6249093C7243E
:1023B000A093C824B093C924C1E0C09368240E94AC
:1023C000170C20E030E04AE754E46091C624709195
:1023D000C7248091C8249091C9240E946A2A0E942F
:1023E000AD29609328087093290888E0EAEDF0E2AF
:1023F000A9E6B6E201900D928A95E1F7C0939C257B
:10240000E0EAF6E0848181608483E3EDF6E2A4E211
:10241000B7E28D919C9111978083918314968D9151
:102420009C9115978283938318968D919C9119970F
:1024300084839583D6C20E9453018130F1F304E274
:1024400017E2C3EDD6E20F2EF8E1AF2EF7E2BF2E72
:10245000F02D4501E12CF12C212C312CC12CD12C5B
:102460003E01280188819981A0E0B0E0F801408117
:1024700051816281738184179507A607B70794F489
:1024800060E0C7010E946D0188819981A0E0B0E001
:10249000F801408151816281738184179507A607F5
:1024A000B70724F061E0C7010E946D010C5F1F4F68
:1024B0002296F30180819181F201408151816281F4
:1024C0007381481B590B61097109DB01CA013AF498
:1024D00088279927DC01841B950BA60BB70BF40109
:1024E00081939193A193B1934F01A60160E070E0B5
:1024F000481759076A077B0714F46C011701FFEFAF
:10250000EF1AFF0A23E0E216F10409F0A9CF8BE2EB
:10251000829DF001839DF00D1124E553FB4D8581D3
:102520009681A781B0858093872490938824A09377
:102530008924B0938A2441855285638574854093AC
:102540008324509384246093852470938624458546
:1025500056856785708940937F24509380246093CB
:10256000812470938224E12CF12CC0928B24D09290
:102570008C24E0928D24F0928E24892B8A2B8B2B35
:1025800009F02AC284EF91E0A0E0B0E080938724B4
:1025900090938824A0938924B0938A2410926E2467
:1025A00010926D2419C2F5016191719181919191FF
:1025B0005F010E94DE292B013C01C701B6010E9488
:1025C000DE299B01AC01C301B2010E94342920E045
:1025D00030E04AE754E40E946A2A0E94AD296993D8
:1025E0007993A016B106F9F660918724709188243A
:1025F0008091892490918A24609377247093782421
:102600008093792490937A240E94DE299B01AC0167
:1026100060E070E08AE796E40E9434296093C62463
:102620007093C7248093C8249093C9240E94170CE8
:1026300020E030E04AE754E46091C6247091C7245A
:102640008091C8249091C9240E946A2A0E94AD29D1
:102650006093280870932908C4C1E0E0F7E0848102
:1026600084608483BEC1E0E0F7E084818B7F848353
:10267000B8C180914C2590914D258093642490930E
:1026800065240E947708609360247093612480938E
:10269000622490936324FFEF23EC89E0F150204003
:1026A0008040E1F700C000000091892510918A2543
:1026B00020918B2530918C2560916024709161244C
:1026C0008091622490916324061717072807390721
:1026D00050F040918425442359F060177107820718
:1026E000930708F408C120918425213009F003C123
:1026F0002AE046E554E20E947B2B80918D258823B9
:1027000009F43FC06091602470916124809162243B
:10271000909163242AE030E040E050E00E94E72AF4
:102720002F5F40918E2550918F25622F70E06417A6
:1027300075073CF5CB0101973AF4CA01861B970B4C
:102740001816190684F018C0E22FF0E0EA5AFB4D83
:10275000DA01AA5ABB4D26E534E282918E93E21744
:10276000F307D9F7EACFE6E5F4E28A5A9B4D20E376
:102770002193E817F907E1F7FA01EA5AFB4D80E3E4
:10278000808380918425811114C080916024909170
:102790006124A0916224B09163240196A11DB11D12
:1027A0008093602490936124A0936224B093632467
:1027B00013C08091602490916124A0916224B09113
:1027C00063240197A109B109809360249093612447
:1027D000A0936224B0936324109254241092552441
:1027E00010929825609160247091612480916224F8
:1027F000909163240E942A0B9FEFE3EDF0E3915048
:10280000E040F040E1F700C000000E9477086093CC
:1028100060247093612480936224909363242FEF4B
:1028200083EC99E0215080409040E1F700C0000027
:10283000809163248F93809162248F93809161248F
:102840008F93809160248F9382EE90E29F938F9379
:102850000E94C12BE0915424F0915524EA5AFB4D7B
:10286000208130E020533109C901880F991F220FC0
:10287000331F220F331F220F331F820F931F8C59D8
:102880009F4F0E94DC08CCE4D5E28B811F928F938E
:1028900089818F9388818F938AEF90E29F938F93A2
:1028A0000E94C12B88898F938F858F938E858F93FC
:1028B0008D858F938C858F938B858F938A858F934E
:1028C00089858F9388858F938F818F938E818F9346
:1028D0008D818F9387E191E29F938F930E94C12B0B
:1028E0000E940E1081E080935324EDB7FEB77A96D4
:1028F000EDBFFEBF76C010925324109298250E941F
:10290000B90520914C2530914D25809164249091FA
:1029100065242817390709F464C0CCE4D5E20E9485
:10292000B905288139818091642490916524281704
:102930003907A9F756C087E391E20E94D52B109280
:10294000CA24109298254DC080915424909155240A
:1029500001968093542490935524FC01EA5AFB4D30
:1029600020812223D1F081E0809353241092982576
:1029700030E020533109C901880F991F220F331FFE
:10298000220F331F220F331F820F931F8C599F4F2B
:102990000E94DC080E940E1024C010925324109252
:1029A00098250E94B90520914C2530914D258091A4
:1029B0006424909165242817390799F0CCE4D5E276
:1029C0000E94B90528813981809164249091652401
:1029D00028173907A9F705C0C2EED6E204E217E2CC
:1029E000E2CDDF91CF911F910F91FF90EF90DF909B
:1029F000CF90BF90AF909F908F907F906F905F909F
:102A00004F903F902F9008952F923F924F925F9258
:102A10006F927F928F929F92AF92BF92CF92DF92EE
:102A2000EF92FF920F931F93CF93DF93CDB7DEB753
:102A30002B97CDBFDEBF0091B124202F30E01901CC
:102A400041E0241A310843E050E068E471E28DEA85
:102A500094E20E946D2B892B89F488E0EEE4F1E288
:102A6000A9E6B6E201900D928A95E1F781E08093A4
:102A70009C25E0EAF6E084818160848343E050E0B5
:102A800066E571E28DEA94E20E946D2B892B09F0D4
:102A9000A1C08091B024803311F00C942A2280913F
:102AA000B224823309F445C030F4803361F08133BD
:102AB00029F10C942A22833309F456C0843309F493
:102AC0006EC00C942A2280919724882311F40C94D0
:102AD0002A22822D0E9424021F928F933F922F92CE
:102AE0008AE591E29F938F930E94C12B0F900F90E4
:102AF0000F900F900F900F900C942A2280919724A2
:102B0000882311F40C942A22822D0E943B021F92EA
:102B10008F933F922F9287E691E29F938F930E942B
:102B2000C12B0F900F900F900F900F900F900C945F
:102B30002A2280919724882311F40C942A22822D32
:102B40000E9483021F928F933F922F9284E791E21B
:102B50009F938F930E94C12B0F900F900F900F9017
:102B60000F900F900C942A2280919724882311F4BF
:102B70000C942A22822D0E946B021F928F933F9207
:102B80002F9281E891E29F938F930E94C12B0F9027
:102B90000F900F900F900F900F900C942A2280911D
:102BA0009724882311F40C942A22822D0E94530228
:102BB0001F928F933F922F928EE891E29F938F9373
:102BC0000E94C12B0F900F900F900F900F900F90BD
:102BD0000C942A2243E050E06BE971E28DEA94E222
:102BE0000E946D2B892BE1F48091B024803311F089
:102BF0000C942A228091B224803321F0813349F051
:102C00000C942A226091B324C1010E94E7010C9424
:102C10002A226091B324C1010E94AA010C942A22A5
:102C200043E050E06FE971E28DEA94E20E946D2B7F
:102C3000892B09F046C08091B024803311F00C94A8
:102C40002A228091B224803321F08133F1F00C9458
:102C50002A2280919724882311F40C942A22F101CE
:102C6000E752F94D80811F928F933F922F9283EA12
:102C700091E29F938F930E94C12B0F900F900F9022
:102C80000F900F900F900C942A2280919724882304
:102C900011F40C942A22F101E452F94D80811F9223
:102CA0008F933F922F9280EB91E29F938F930E949C
:102CB000C12B0F900F900F900F900F900F900C94CE
:102CC0002A2243E050E06DEB71E28DEA94E20E942B
:102CD0006D2B892B09F049C08091CA2481110C9475
:102CE0002A228091B024803311F00C942A22E2EB46
:102CF000F4E2A8E9B4E220EC34E281918D932E173E
:102D00003F07D9F78EE090E08093C2249093C324CC
:102D100008E914E2D80154961C92C8010E94462B7F
:102D2000F101EE0FFF1FEE0FFF1FE05DF84D608316
:102D30007183828393831F930F933F922F9281EC31
:102D400091E29F938F9389E696E29F938F930E94DF
:102D5000052C81E080939C25E0EAF6E08481816087
:102D60008483CDBFDEBF0C942A2243E050E06DEC9B
:102D700071E28DEA94E20E946D2B892B09F040C02C
:102D80008091B024803311F00C942A22E8E9F4E217
:102D900082EA94E211928E179F07E1F78AE090E0B1
:102DA0008093C2249093C3241092A224F101EE0FC9
:102DB000FF1FEE0FFF1FE05DF84D60817181828182
:102DC00093812AE048E954E20E947B2B809197246A
:102DD000882311F40C942A2288E994E29F938F931C
:102DE0003F922F9281ED91E29F938F930E94C12B8E
:102DF0000F900F900F900F900F900F900C942A222D
:102E000043E050E06DED71E28DEA94E20E946D2B9B
:102E1000892B09F07EC38091CA2481110C942A2247
:102E20000E9453018130F1F38091B024803309F086
:102E3000D0C1C101880F991F880F991FFC01E05D67
:102E4000F84DDC01AC5DB84D4081518162817381E8
:102E50008D919D910D90BC91A02D481759076A073F
:102E60007B072CF460E0C1010E946D0104C061E0A9
:102E7000C1010E946D01C101880F991F880F991F20
:102E8000FC01E45FF84DC080D180E280F380C09205
:102E90008724D0928824E0928924F0928A24FC012D
:102EA000E050F94D80809180A280B380809283248D
:102EB00090928424A0928524B0928624FC01EC5048
:102EC000F94D408151816281738140937F245093F9
:102ED00080246093812470938224FC01EC5DF84D82
:102EE000DC01A05DB84D00811181228133818D917B
:102EF0009D910D90BC91A02D081B190B2A0B3B0B2B
:102F0000D901C8013AF488279927DC01801B910B6D
:102F1000A20BB30B2C013D0180938B2490938C2446
:102F2000A0938D24B0938E24F101EE0FFF1FEE517C
:102F3000F94D88EE93E0808391831092772410926C
:102F400078241092792410927A248FEF9FEF809347
:102F500028089093290889288A288B2861F484E618
:102F600090E0A0E0B0E08093832490938424A09329
:102F70008524B0938624452B462B472B61F484E6A9
:102F800090E0A0E0B0E080937F2490938024A09311
:102F90008124B0938224C701B6010E94DE2920E07B
:102FA00030E048EC52E40E946A2A6D837E838F836E
:102FB0009887009183241091842420918524309156
:102FC000862409831A832B833C83C901B8010E949C
:102FD000DE299B01AC016D817E818F8198850E94E5
:102FE00034290E94A6299B01AC01C701B6010E94A9
:102FF000092B2093732430937424409375245093A9
:10300000762480907F2490908024A0908124B0909A
:103010008224C501B4010E94DE299B01AC016D81AF
:103020007E818F8198850E9434290E94A6299B0168
:10303000AC01C701B6010E94092B20936F24309385
:1030400070244093712450937224A7019601C70104
:10305000B6010E94D72A6D837E838F839887A5014E
:1030600094010E94092B69017A0120938F243093E7
:10307000902440939124509392246D817E818F817E
:10308000988529813A814B815C810E94092B4601F8
:103090005701820E931EA41EB51E80927B2490922F
:1030A0007C24A0927D24B0927E2484149504A604EE
:1030B000B704CCF1C301B2010E94DE2969837A838F
:1030C0008B839C83C501B4010E94DE299B01AC0166
:1030D00069817A818B819C810E9434294B015C013A
:1030E000C701B6010E94DE299B01AC01C501B401F4
:1030F0000E946A2A0E94A62960938F2470939024CC
:103100008093912490939224A3019201261B370B64
:10311000480B590B20939324309394244093952487
:10312000509396240EC0D301C201821B930BA40BB3
:10313000B50B8093932490939424A0939524B093FB
:103140009624C101880F991F880F991FFC01E85E22
:10315000F84DDC01AC5DB84D805D984D4D915D91B1
:103160006D917C91DC01CD90DD90ED90FC90DB01C8
:10317000CA018C199D09AE09BF09AC01BD013AF421
:1031800044275527BA01481B590B6A0B7B0B408318
:1031900051836283738311E010936E243F922F92C8
:1031A00081EE91E29F938F9389E696E29F938F93AE
:1031B0000E94052C10939C25E0EAF6E08481816052
:1031C00084830F900F900F900F900F900F900C949E
:1031D0002A22813301F520926624309267243F929F
:1031E0002F928AEE91E29F938F9389E696E29F93C6
:1031F0008F930E94052C81E080939C25E0EAF6E005
:103200008481816084830F900F900F900F900F90B6
:103210000F900C942A22823309F0ACC061E0C10106
:103220000E946D01C101880F991F880F991FFC0131
:10323000E45FF84DC080D180E280F380C0928724A3
:10324000D0928824E0928924F0928A24FC01E050F4
:10325000F94D408051806280738040928324509267
:1032600084246092852470928624FC01EC50F94DF0
:1032700080809180A280B38080927F24909280246D
:10328000A0928124B0928224109277241092782404
:103290001092792410927A248FEF9FEF8093280860
:1032A00090932908C701B6010E94DE2920E030E092
:1032B00048EC52E40E946A2A69837A838B839C8358
:1032C000C301B2010E94DE299B01AC0169817A81B0
:1032D0008B819C810E9434290E94A6299B01AC010C
:1032E000C701B6010E94092B2093732430937424E4
:1032F0004093752450937624C501B4010E94DE29C1
:103300009B01AC0169817A818B819C810E94342967
:103310000E94A6299B01AC01C701B6010E94092B9E
:1033200020936F243093702440937124509372241F
:10333000209200203092012011E010936E243F92E1
:103340002F9283EF91E29F938F9389E696E29F936A
:103350008F930E94052C10939C25E0EAF6E084816F
:10336000816084830F900F900F900F900F900F90BB
:103370000C942A228333F1F411E010936D243F92D0
:103380002F928CEF91E29F938F9389E696E29F9321
:103390008F930E94052C10939C25E0EAF6E084812F
:1033A000816084830F900F900F900F900F900F907B
:1033B0000C942A22843311F00C942A2260E0C1017B
:1033C0000E946D01C101880F991F880F991FFC0190
:1033D000E45FF84DC080D180E280F380C092872402
:1033E000D0928824E0928924F0928A24FC01E05053
:1033F000F94D4080518062807380409283245092C6
:1034000084246092852470928624FC01EC50F94D4E
:1034100080809180A280B38080927F2490928024CB
:10342000A0928124B0928224109277241092782462
:103430001092792410927A248FEF9FEF80932808BE
:1034400090932908C701B6010E94DE2920E030E0F0
:1034500048EC52E40E946A2A69837A838B839C83B6
:10346000C301B2010E94DE299B01AC0169817A810E
:103470008B819C810E9434290E94A6299B01AC016A
:10348000C701B6010E94092B209373243093742442
:103490004093752450937624C501B4010E94DE291F
:1034A0009B01AC0169817A818B819C810E943429C6
:1034B0000E94A6299B01AC01C701B6010E94092BFD
:1034C00020936F243093702440937124509372247E
:1034D000209200203092012011E010936E243F9240
:1034E0002F9285E092E29F938F9389E696E29F93D5
:1034F0008F930E94052C10939C25E0EAF6E08481CE
:10350000816084830F900F900F900F900F900F9019
:10351000A1C743E050E06EE072E28DEA94E20E94BF
:103520006D2B892B31F58091CA24811193C780912D
:10353000B024803309F08EC7F101EE0FFF1FEE0FAC
:10354000FF1FE85EF84D1082118212821382809173
:103550009724882309F47EC73F922F9282E192E25A
:103560009F938F930E94C12B0F900F900F900F90FD
:1035700071C743E050E06BE172E28DEA94E20E9491
:103580006D2B892B69F58091B024803309F062C7D7
:10359000F101EE0FFF1FEE0FFF1FE85EF84D608197
:1035A0007181828193812AE048E954E20E947B2B59
:1035B00080919724882309F44DC788E994E29F936A
:1035C0008F933F922F928FE192E29F938F930E946D
:1035D000C12B0F900F900F900F900F900F903AC744
:1035E00043E050E06BE272E28DEA94E20E946D2BC0
:1035F000892B81F58091B024803309F02BC7F1012C
:10360000EE0FFF1FEE0FFF1FEC5DF84D6081718123
:10361000828193812AE048E954E20E947B2B88E969
:1036200094E29F938F933F922F928FE292E29F9327
:103630008F9389E696E29F938F930E94052C81E0F9
:1036400080939C25E0EAF6E0848181608483CDBF8D
:10365000DEBF00C743E050E06BE372E28DEA94E224
:103660000E946D2B892BB1F58091CA248111F2C67D
:103670008091B024803309F0EDC6C101880F991FF5
:10368000880F991FFC01E85EF84D108211821282AA
:103690001382FC01E05DF84DDC01AC5DB84D8D910D
:1036A0009D910D90BC91A02D80839183A283B383C3
:1036B00080919724882309F4CDC63F922F928FE3FF
:1036C00092E29F938F930E94C12B0F900F900F90C7
:1036D0000F90C0C643E050E068E472E28DEA94E2E5
:1036E0000E946D2B892B09F041C08091CA24811161
:1036F000B1C60E9453018130F1F38091B024803330
:1037000009F0A8C6E2EBF4E2A8E9B4E28CEB94E29B
:1037100021912D938E179F07D9F78AE090E080932F
:10372000C2249093C3241092A22488E994E20E94B8
:10373000462BF101EE0FFF1FEE0FFF1FEC5DF84D62
:10374000608371838283938380919724882309F413
:1037500081C63F922F928CE492E29F938F930E94B6
:10376000C12B0F900F900F900F9074C643E050E064
:1037700065E572E28DEA94E20E946D2B892B49F493
:103780008091CA24811166C60E9453018130F1F3F1
:1037900061C643E050E069E572E28DEA94E20E947E
:1037A0006D2B8C01892B09F056C00E94530191E0CA
:1037B0002091CA24211190E0992309F44BC691E08D
:1037C000811190E0992309F445C68091B02480339B
:1037D00009F040C6A2EBB4E2E8E9F4E28D918193EE
:1037E0000F5F1F4F0A301105CCF30093C2241093D2
:1037F000C32408E914E2D8011A961C92C8010E9459
:10380000422B9101220F331F220F331FF901E45F76
:10381000F84D7F010E94A629D7016D937D938D936A
:103820009C9313971F930F933F922F928DE592E2F3
:103830009F938F9389E696E29F938F930E94052C26
:1038400081E080939C25E0EAF6E0848181608483B6
:10385000CDBFDEBFFFC543E050E069E672E28DEA0E
:1038600094E20E946D2B892BF9F48091B02480336F
:1038700009F0F0C580919724882309F4EBC5F10184
:10388000E251F94D80811F928F933F922F928DE6E6
:1038900092E29F938F930E94C12B0F900F900F90F5
:1038A0000F900F900F90D6C543E050E069E772E2A9
:1038B0008DEA94E20E946D2B892B21F58091B02432
:1038C000803309F0C7C580919724882309F4C2C5C5
:1038D000F101EE0FFF1FEE0FFF1FE45FF84D838134
:1038E0008F9382818F9381818F9380818F933F9279
:1038F0002F928DE792E29F938F930E94C12BCDBFB1
:10390000DEBFA8C543E050E068E872E28DEA94E2C9
:103910000E946D2B8C01892B09F056C00E94530127
:1039200091E02091CA24211190E0992309F492C5D5
:1039300091E0811190E0992309F48CC58091B02425
:10394000803309F087C5A2EBB4E2E8E9F4E28D9197
:1039500081930F5F1F4F0A301105CCF30093C224EF
:103960001093C32408E914E2D8011A961C92C801E6
:103970000E94422B9101220F331F220F331FF901A6
:10398000E050F94D7F010E94A629D7016D937D93E8
:103990008D939C9313971F930F933F922F928CE8D4
:1039A00092E29F938F9389E696E29F938F930E9472
:1039B000052C81E080939C25E0EAF6E0848181601B
:1039C0008483CDBFDEBF46C543E050E068E972E2C4
:1039D0008DEA94E20E946D2B8C01892B09F056C070
:1039E0000E94530191E02091CA24211190E0992373
:1039F00009F430C591E0811190E0992309F42AC5BA
:103A00008091B024803309F025C5A2EBB4E2E8E947
:103A1000F4E28D9181930F5F1F4F0A301105CCF3B3
:103A20000093C2241093C32408E914E2D8011A9623
:103A30001C92C8010E94422B9101220F331F220FBA
:103A4000331FF901EC50F94D7F010E94A629D701DF
:103A50006D937D938D939C9313971F930F933F9238
:103A60002F928CE992E29F938F9389E696E29F933F
:103A70008F930E94052C81E080939C25E0EAF6E07C
:103A8000848181608483CDBFDEBFE4C445E050E023
:103A900068EA72E28DEA94E20E946D2B892B09F0AC
:103AA000B5C08091CA248111D5C40E9453018130D0
:103AB000F1F38BE2829DF001839DF00D1124E5531B
:103AC000FB4D848D1F928F938EEA92E29F938F938A
:103AD0000E94C12B0F2EFBECEF2EF4E2FF2EF02DF7
:103AE0000F2EF2EEAF2EF6E2BF2EF02D0F2EF8E1E4
:103AF000CF2EF7E2DF2EF02D0F2EF4E28F2EF7E21D
:103B00009F2EF02D0F900F900F900F9019821A8218
:103B100008EE13E00F2E44244A94542C642CFFE743
:103B20007F2EF02DD7015C966C9189819A810E943D
:103B30006D01F501019311935F01D6014D925D92E4
:103B40006D927D926D01F401119211921192119278
:103B50004F0129813A812F5F3F4F29833A833BE20E
:103B6000E30EF11C49815A8143305105D9F680E4B6
:103B70009FE1A0E0B0E08093872490938824A093F5
:103B80008924B0938A248093772490937824A093F7
:103B90007924B0937A2410926E2410926D2480E0E0
:103BA00090E0A0E0B0E48093C6249093C724A09353
:103BB000C824B093C92451E0509368240E94170C84
:103BC00020E030E04AE754E46091C6247091C724B5
:103BD0008091C8249091C9240E946A2A0E94AD292C
:103BE000609328087093290888E0ECEBF2E2A9E6DC
:103BF000B6E201900D928A95E1F781E080939C25D1
:103C0000E0EAF6E084818160848324C443E050E0EC
:103C100064EC72E28DEA94E20E946D2B892B21F50F
:103C20008091B024803309F015C4F101EF50F94DB3
:103C300010823F922F9288EC92E29F938F9389E6B5
:103C400096E29F938F930E94052C81E080939C25A0
:103C5000E0EAF6E08481816084830F900F900F90FA
:103C60000F900F900F90F6C343E050E061ED72E2C9
:103C70008DEA94E20E946D2B892B21F58091B0246E
:103C8000803309F0E7C3F101EF50F94D11E01083E3
:103C90003F922F9285ED92E29F938F9389E696E271
:103CA0009F938F930E94052C10939C25E0EAF6E0E9
:103CB0008481816084830F900F900F900F900F90FC
:103CC0000F90C8C343E050E06EED72E28DEA94E2DB
:103CD0000E946D2B892B09F045C08091B024811181
:103CE0001FC0F101E053F94D10823F922F9282EEF6
:103CF00092E29F938F9389E696E29F938F930E941F
:103D0000052C81E080939C25E0EAF6E084818160C7
:103D100084830F900F900F900F900F900F909AC385
:103D2000813009F097C3F101E053F94D11E01083A0
:103D30003F922F928BEE92E29F938F9389E696E2C9
:103D40009F938F930E94052C10939C25E0EAF6E048
:103D50008481816084830F900F900F900F900F905B
:103D60000F9078C345E050E064EF72E28DEA94E290
:103D70000E946D2B892B09F045C08091B0248111E0
:103D80001FC0F101E353F94D10823F922F9288EF4B
:103D900092E29F938F9389E696E29F938F930E947E
:103DA000052C81E080939C25E0EAF6E08481816027
:103DB00084830F900F900F900F900F900F904AC335
:103DC000813009F047C3F101E353F94D11E010834D
:103DD0003F922F9281E093E29F938F9389E696E240
:103DE0009F938F930E94052C10939C25E0EAF6E0A8
:103DF0008481816084830F900F900F900F900F90BB
:103E00000F9028C345E050E06AE073E28DEA94E247
:103E10000E946D2B892B61F481E08093972480E1CF
:103E200093E29F938F930E94C12B0F900F9012C328
:103E300045E050E068E173E28DEA94E20E946D2B68
:103E4000892B19F41092972405C345E050E06EE1E8
:103E500073E28DEA94E20E946D2B892B09F00DC26A
:103E60008091CA248111F6C20E9453018130F1F37E
:103E70000F2EF4E2AF2EF7E2BF2EF02D0F2EF0E35F
:103E8000EF2EF7E2FF2EF02D0F2EF8E18F2EF7E246
:103E90009F2EF02D0F2EFCE0CF2EF7E2DF2EF02D1F
:103EA00036011D821E8200E010E0412C512C1701CA
:103EB000A982BA82D7014D915D916D917C91F501F6
:103EC00080819181A281B381481759076A077B07D6
:103ED00034F460E08D819E810E946D0105C061E037
:103EE0008D819E810E946D01F30181919191A1913B
:103EF000B1913F01A20160E070E0481759076A07DD
:103F00007B071CF42C010D811E81F4E0AF0EB11C67
:103F100024E0E20EF11CE981FA8180819181A28185
:103F2000B381F1014081518162817381841B950BC2
:103F3000A60BB70BAC01BD013AF444275527BA01D3
:103F4000481B590B6A0B7B0BD4014D935D936D930A
:103F50007D934D01ED81FE813196ED83FE83339794
:103F600009F0A5CF612C712C4092872450928824AF
:103F70006092892470928A2422EE36E229833A8361
:103F80000F2EF8E1EF2EF7E2FF2EF02DD6016D9106
:103F90007D918D919D916D01A30192010E94092B4C
:103FA000CA01B9010E94DE2920E030E04AE754E46A
:103FB0000E946A2A0E94AD29E981FA816193719376
:103FC000E983FA83CE14DF0409F7C801880F991F2B
:103FD000880F991FFC01E050F94D80809180A280EC
:103FE000B3808092832490928424A0928524B092FE
:103FF0008624FC01EC50F94DC080D180E280F38032
:10400000C0927F24D0928024E0928124F092822476
:10401000FC01EC5DF84DDC01A05DB84D40815181A3
:10402000628173818D919D910D90BC91A02D481B53
:10403000590B6A0B7B0BDB01CA013AF488279927DD
:10404000DC01841B950BA60BB70B282E392EAB87F2
:10405000B98780938B2490938C24A0938D24B09364
:104060008E24F801EE0FFF1FEE51F94D88EE93E01C
:10407000808391831092772410927824109279246F
:1040800010927A24E0E0F8E08FEF9FEF80A791A7ED
:1040900080A791A7181419041A041B0454F5C3012E
:1040A000B2010E94DE2969837A838B839C83C501D8
:1040B000B4010E94DE299B01AC0169817A818B8168
:1040C0009C810E94342920E030E048EC52E40E94B8
:1040D0006A2A0E94A6299B01AC01C301B2010E9479
:1040E000092B2093732430937424409375245093A8
:1040F00076241C141D041E041F0454F5C301B201D0
:104100000E94DE2969837A838B839C83C701B60171
:104110000E94DE299B01AC0169817A818B819C819F
:104120000E94342920E030E048EC52E40E946A2AE0
:104130000E94A6299B01AC01C301B2010E94092B78
:1041400020936F24309370244093712450937224F1
:10415000C301B2010E94DE299B01AC010E946A2AC0
:1041600069837A838B839C83C701B6010E94DE2911
:104170009B01AC0169817A818B819C810E943429E9
:104180000E94A62960938F24709390248093912499
:1041900090939224622D732D8B8599850E94DE2940
:1041A0006D837E838F839887C501B4010E94DE29C9
:1041B0009B01AC0169817A818B819C810E943429A9
:1041C0009B01AC016D817E818F8198850E94C728FB
:1041D0000E94A6296093932470939424809395243D
:1041E0009093962411E010936E2409850F930B850C
:1041F0000F933F922F92809172248F93809171241C
:104200008F93809170248F9380916F248F938091EE
:1042100076248F93809175248F93809174248F934B
:10422000809173248F93E2EEF6E283818F938281F3
:104230008F9381818F9380818F93FF92EF92DF9292
:10424000CF92BF92AF929F928F927F926F925F9226
:104250004F9284E293E29F938F9389E696E29F9335
:104260008F930E94052C10939C25E0EAF6E0848150
:1042700081608483CDBFDEBFEDC045E050E061E7E3
:1042800073E28DEA94E20E946D2B892B11F5109256
:10429000CA24E8E1F7E210821182128213821482AA
:1042A0001582168217821086118612861386E0E028
:1042B000F7E084818B7F848388E0E7E7F3E2A9E677
:1042C000B6E201900D928A95E1F781E080939C25FA
:1042D000C1C045E050E06FE773E28DEA94E20E94CE
:1042E0006D2B892B11F58091CA24882309F4B2C063
:1042F00081E080935224E8E1F7E210821182128279
:1043000013821482158216821782108611861286F5
:10431000138698E0E5E8F3E2A9E6B6E201900D9293
:104320009A95E1F780939C2595C045E050E06DE8B3
:1043300073E28DEA94E20E946D2B892BA9F580919E
:10434000CA24811127C083E993E20E94D52B0E94E1
:1043500053018130F1F31092982510926B24109242
:104360006C2431E03093CA2484EA93E20E94D52B76
:1043700088E0E8EBF3E2A9E6B6E201900D928A95B7
:10438000E1F741E040939C25E0EAF6E0848181601A
:10439000848360C080915224813009F05BC00E9408
:1043A0000E101092522456C045E050E060EC73E2CB
:1043B0008DEA94E20E946D2B892B09F046C0109281
:1043C00098250E94B9050E94B9050E94B905ECE440
:1043D000F5E283A98F9382A98F9381A98F9380A9F6
:1043E0008F9383A18F9382A18F9381A18F9380A1BB
:1043F0008F9387A18F9386A18F9385A18F9384A19B
:104400008F9380858F9387818F9386818F9385810A
:104410008F9383811F928F9381818F9380818F935C
:1044200086EC93E29F938F9389E696E29F938F9316
:104430000E94052C81E080939C25E0EAF6E08481CF
:1044400081608483CDBFDEBF05C0E0EAF6E08481F1
:104450008E7F84832B96CDBFDEBFDF91CF911F91DE
:104460000F91FF90EF90DF90CF90BF90AF909F9013
:104470008F907F906F905F904F903F902F90089516
:104480009FB7F894E0E5F0E08081846080838181CB
:1044900082FFFDCFE0E5F0E0808182608083A0E4D0
:1044A000B0E011968C911197807828ED24BF119679
:1044B0008C9386818C7F8683E0E6F0E0808181604A
:1044C0008083E0E5F0E0818181FFFDCFE0E4F0E072
:1044D0008081887F816028ED24BF8083E0E5F0E063
:1044E0008081867E8083E0EBF0E084818C7F848312
:1044F0009FBF08951F920F920FB60F92112408B616
:104500000F9218BE09B60F9219BE0AB60F921ABEC4
:104510000BB60F921BBE4F925F926F927F928F925B
:104520009F92AF92BF92CF92DF92EF92FF922F9322
:104530003F934F935F936F937F938F939F93AF932B
:10454000BF93EF93FF93CF93DF9300D000D0CDB70D
:10455000DEB78091E80681FFFEC086E094E20E940B
:10456000D52B8091680683FD2BC180E197E2A0E006
:10457000B0E08093872490938824A0938924B093FB
:104580008A2488E893E1A0E0B0E0809383249093AC
:104590008424A0938524B093862480937F249093D1
:1045A0008024A0938124B0938224109277241092C7
:1045B00078241092792410927A248FEF9FEF8093C1
:1045C00028089093290882E390E0A0E0B0E080936F
:1045D000732490937424A0937524B09376248093CD
:1045E0006F2490937024A0937124B09372248091CF
:1045F000080683FD0FC080916624909167242BE20A
:10460000289FF001299FF00D1124E553FB4D21A5B2
:104610002111C1C020916624309167242D833E83EF
:104620008BE2829FF001839FF00D1124E553FB4D37
:1046300041845284638474844092832450928424FD
:10464000609285247092862485849684A784B0889D
:1046500080927F2490928024A0928124B092822420
:10466000C0908724D0908824E0908924F0908A24F8
:10467000C701B6010E94DE2920E030E048EC52E498
:104680000E946A2A69837A838B839C83C301B20167
:104690000E94DE299B01AC0169817A818B819C811A
:1046A0000E9434290E94A6299B01AC01C701B601D2
:1046B0000E94092B20937324309374244093752413
:1046C00050937624C501B4010E94DE299B01AC0100
:1046D00069817A818B819C810E9434290E94A6295C
:1046E0009B01AC01C701B6010E94092B20936F24E6
:1046F000309370244093712450937224E0E2F7E0E9
:1047000084818061848381E090E080930020909395
:104710000120ED81FE81EE0FFF1FEE51F94D88EE75
:1047200093E0808391838D819E81880F991F880FEC
:10473000991F885E984D89839A838FEF9FEFAFEF23
:10474000BFE7E981FA8180839183A283B38381E00B
:1047500080936E2435C0809100209091012081309B
:10476000910529F48091240784FD0FC029C082306F
:10477000910529F48091240782FD07C021C0039789
:10478000F9F48091240780FF1BC010926E2481E011
:1047900080936D2415C02BE2289FF001299FF00D16
:1047A0001124E553FB4D85819681A781B0858093C7
:1047B000872490938824A0938924B0938A242ACFB5
:1047C0002696CDBFDEBFDF91CF91FF91EF91BF91D4
:1047D000AF919F918F917F916F915F914F913F9199
:1047E0002F91FF90EF90DF90CF90BF90AF909F9070
:1047F0008F907F906F905F904F900F900BBE0F90B7
:104800000ABE0F9009BE0F9008BE0F900FBE0F900A
:104810001F9018951F920F920FB60F92112408B691
:104820000F9218BE09B60F9219BE0AB60F921ABEA1
:104830000BB60F921BBE4F925F926F927F928F9238
:104840009F92AF92BF92CF92DF92EF92FF922F93FF
:104850003F934F935F936F937F938F939F93AF9308
:10486000BF93EF93FF93CF93DF9300D000D0CDB7EA
:10487000DEB78091680683FF1AC18091E80681FD4A
:104880004BC11092772410927824109279241092C0
:104890007A248FEF9FEF8093280890932908C09087
:1048A0008724D0908824E0908924F0908A24C7013E
:1048B000B6010E94DE2920E030E048EC52E40E947C
:1048C0006A2A4B015C016091832470918424809159
:1048D0008524909186240E94DE299B01AC01C501AC
:1048E000B4010E9434290E94A6299B01AC01C70192
:1048F000B6010E94092B20937324309374244093B3
:1049000075245093762460917F2470918024809147
:104910008124909182240E94DE299B01AC01C50173
:10492000B4010E9434290E94A6299B01AC01C70151
:10493000B6010E94092B20936F243093702440937A
:104940007124509372248091080684FD0FC08091D9
:104950006624909167242BE2289FF001299FF00D97
:104960001124E553FB4D22A52111C1C020916624DD
:10497000309167242D833E838BE2829FF001839FD9
:10498000F00D1124E553FB4D4184528463847484FB
:1049900040928324509284246092852470928624CD
:1049A00085849684A784B08880927F249092802406
:1049B000A0928124B0928224C0908724D090882431
:1049C000E0908924F0908A24C701B6010E94DE2974
:1049D00020E030E048EC52E40E946A2A69837A833E
:1049E0008B839C83C301B2010E94DE299B01AC0131
:1049F00069817A818B819C810E9434290E94A62939
:104A00009B01AC01C701B6010E94092B20937324BE
:104A1000309374244093752450937624C501B401D7
:104A20000E94DE299B01AC0169817A818B819C8186
:104A30000E9434290E94A6299B01AC01C701B6013E
:104A40000E94092B20936F2430937024409371248B
:104A500050937224E0E2F7E084818F7E848381E0CA
:104A600090E08093002090930120ED81FE81EE0F75
:104A7000FF1FEE51F94D88EE93E0808391838D8185
:104A80009E81880F991F880F991F885E984D898392
:104A90009A838FEF9FEFAFEFBFE7E981FA818083C1
:104AA0009183A283B38381E080936E2435C080918B
:104AB0000020909101208130910529F480912407F4
:104AC00084FF0FC029C08230910529F4809124070A
:104AD00082FF07C021C00397F9F48091240780FD6D
:104AE0001BC010926E2481E080936D2415C02BE2D0
:104AF000289FF001299FF00D1124E553FB4D85817E
:104B00009681A781B0858093872490938824A09371
:104B10008924B0938A242ACF2696CDBFDEBFDF91A9
:104B2000CF91FF91EF91BF91AF919F918F917F9125
:104B30006F915F914F913F912F91FF90EF90DF9098
:104B4000CF90BF90AF909F908F907F906F905F902D
:104B50004F900F900BBE0F900ABE0F9009BE0F90A2
:104B600008BE0F900FBE0F901F9018951F920F92C6
:104B70000FB60F92112408B60F9218BE09B60F9205
:104B800019BE0AB60F921ABE0BB60F921BBE2F9219
:104B90003F924F925F926F927F928F929F92AF92CD
:104BA000BF92CF92DF92EF92FF920F931F932F93BA
:104BB0003F934F935F936F937F938F939F93AF93A5
:104BC000BF93EF93FF93CF93DF9300D000D0CDB787
:104BD000DEB7E0E6F6E08085808582FF79C18091CE
:104BE000CA248823E1F081E080935224E8E1F7E2CF
:104BF0001082118212821382148215821682178209
:104C0000108611861286138698E0E5E8F3E2A9E69D
:104C1000B6E201900D929A95E1F780939C2510924F
:104C200051240F2EF0E62F2EF6E03F2EF02DF1014D
:104C3000808582FF4DC1FFEF23EC89E0F1502040D9
:104C40008040E1F700C00000809151248F5F809385
:104C500051248F3160F3809104078B7F8093040788
:104C60000E9453018130F1F304E217E2E3EDF6E232
:104C70000F2EF8E18F2EF7E29F2EF02D3401E12C5C
:104C8000F12C412C512CA12CB12C6501ED83FE831C
:104C90008D819E8189839A830B831C83FC01808193
:104CA0009181A0E0B0E0F80140815181628173817F
:104CB00084179507A607B707A4F460E0C7010E9410
:104CC0006D01ED81FE8180819181A0E0B0E0F8016D
:104CD000408151816281738184179507A607B707C8
:104CE00024F061E0C7010E946D010C5F1F4F8D81B0
:104CF0009E8102968D839E83E981FA8180819181D4
:104D0000EB81FC814081518162817381481B590B89
:104D100061097109DB01CA013AF488279927DC018E
:104D2000841B950BA60BB70BF30181939193A19371
:104D3000B1933F01A816B906CA06DB061CF4270189
:104D40005C016D01FFEFEF1AFF0A23E0E216F104A8
:104D500009F09ECF8BE2849DF001859DF00D11241A
:104D6000E553FB4DC580D680E780F084C092872450
:104D7000D0928824E0928924F0928A2481859285B9
:104D8000A385B4858093832490938424A093852461
:104D9000B093862485859685A785B08980937F24E6
:104DA00090938024A0938124B0938224D201AA0FEF
:104DB000BB1FAA0FBB1FAC5DB84DF201EE0FFF1F6A
:104DC000ED52F94D808191814D915D916D917C9174
:104DD000481B590B61097109DB01CA013AF48827A4
:104DE0009927DC01841B950BA60BB70BA82EB92EB7
:104DF0000A2F1B2F80938B2490938C24A0938D24B7
:104E0000B0938E24E2EEF6E2E983FA83F401619135
:104E10007191819191914F010E94DE292B013C01FA
:104E20006A2D7B2D802F912F0E94DE299B01AC01E2
:104E3000C301B2010E94342920E030E04AE754E483
:104E40000E946A2A0E94AD29E981FA8161937193D7
:104E5000E983FA8384E297E288159905B9F6C0924E
:104E60007724D0927824E0927924F0927A241092D8
:104E70006E2410926D24C701B6010E94DE299B01A9
:104E8000AC0160E070E08AE796E40E943429609308
:104E9000C6247093C7248093C8249093C9240E9489
:104EA000170C20E030E04AE754E46091C62470918A
:104EB000C7248091C8249091C9240E946A2A0E9424
:104EC000AD2960932808709329081092CA24AFCEA8
:104ED0002696CDBFDEBFDF91CF91FF91EF91BF91BD
:104EE000AF919F918F917F916F915F914F913F9182
:104EF0002F911F910F91FF90EF90DF90CF90BF9077
:104F0000AF909F908F907F906F905F904F903F9069
:104F10002F900F900BBE0F900ABE0F9009BE0F90FE
:104F200008BE0F900FBE0F901F90189588E08093D9
:104F30004506E0EAF8E083E085838381807C806237
:104F400083838EE2868388E987838481807E88617B
:104F5000848308951F920F920FB60F92112408B602
:104F60000F9218BE0BB60F921BBE8F939F93EF93B9
:104F7000FF93E0EAF8E0818190818C71D9F4E091AF
:104F8000482481E08E0F80934824F0E0E75BFB4DDE
:104F90009083883011F410924824809147248F5FC9
:104FA000883019F08093472405C01092472481E08F
:104FB00080934624FF91EF919F918F910F900BBEAC
:104FC0000F9008BE0F900FBE0F901F901895F89489
:104FD000E0EAF0E082818873876098ED94BF828375
:104FE00011820E9440220E949D020E945D037894DB
:104FF0000E94170C0E94670C0E94890C0E94FD03FE
:10500000E0E0F7E08481826084830E949627E0E8F4
:10501000F6E08481846084838481826084832FEFBE
:1050200089E698E1215080409040E1F700C00000FF
:105030008CE094E20E94D52B0E9441040F2EF0E6F2
:10504000EF2EF6E0FF2EF02DC0EED7E000EE16E0DA
:105050000F2EFCE4CF2EF5E2DF2EF02D0F2EFAEF0F
:10506000AF2EF0E2BF2EF02D552453940F2EF5E114
:105070006F2E712CF02DF701808583FF03C08C818A
:1050800081608C83F701808583FD03C08C818E7FD6
:105090008C83F801808581FF03C08C8182608C83C2
:1050A000F801808581FD03C08C818D7F8C83809188
:1050B000CA24882309F440C00E94530181113CC0D6
:1050C00080915224811138C080915324882349F063
:1050D0008FE194E20E94D52B80E090E00E94DC08F2
:1050E00006C082E394E20E94D52B0E94B905F60126
:1050F00083811F928F9381818F9380818F93BF9241
:10510000AF920E94C12B5F820E940E1080916B248F
:1051100090916C240F900F900F900F900F900F9024
:105120002091692430916A24821793072CF4019608
:1051300080936B2490936C2480919B25882309F4A1
:105140009ACF0F2EFDEA8F2EF4E29F2EF02DEFE97D
:10515000F5E224EB35E2D40180818D9311922E1774
:105160003F07D1F76092C4247092C5240E940415B1
:1051700082EC94E2F40111924F01E817F907D1F79C
:105180006092C4247092C52410929B2574CF50580D
:10519000BB27AA270E94DF280C94302A0E94222ACB
:1051A00038F00E94292A20F039F49F3F19F426F4A0
:1051B0000C941F2A0EF4E095E7FB0C94192AE92FB2
:1051C0000E94412A58F3BA176207730784079507AC
:1051D00020F079F4A6F50C94632A0EF4E0950B2EDA
:1051E000BA2FA02D0B01B90190010C01CA01A00139
:1051F0001124FF27591B99F0593F50F4503E68F194
:105200001A16F040A22F232F342F4427585FF3CFD4
:10521000469537952795A795F0405395C9F77EF4A5
:105220001F16BA0B620B730B840BBAF09150A1F0EE
:10523000FF0FBB1F661F771F881FC2F70EC0BA0F74
:10524000621F731F841F48F4879577956795B795FC
:10525000F7959E3F08F0B0CF9395880F08F09927F7
:10526000EE0F9795879508950E9448290C94302A4F
:105270000E94292A58F00E94222A40F029F45F3F18
:1052800029F00C94192A51110C94642A0C941F2AA9
:105290000E94412A68F39923B1F3552391F3951B9A
:1052A000550BBB27AA2762177307840738F09F5F47
:1052B0005F4F220F331F441FAA1FA9F335D00E2EB4
:1052C0003AF0E0E832D091505040E695001CCAF721
:1052D0002BD0FE2F29D0660F771F881FBB1F2617E4
:1052E00037074807AB07B0E809F0BB0B802DBF01BB
:1052F000FF2793585F4F3AF09E3F510578F00C948A
:10530000192A0C94642A5F3FE4F3983ED4F38695FF
:1053100077956795B795F7959F5FC9F7880F911DAA
:105320009695879597F90895E1E0660F771F881F96
:10533000BB1F621773078407BA0720F0621B730B49
:10534000840BBA0BEE1F88F7E09508950E94AD29F3
:105350006894B1110C94642A08950E94492A88F037
:105360009F5798F0B92F9927B751B0F0E1F0660F29
:10537000771F881F991F1AF0BA95C9F714C0B1306A
:1053800091F00E94632AB1E008950C94632A672F7C
:10539000782F8827B85F39F0B93FCCF38695779599
:1053A0006795B395D9F73EF4909580957095619582
:1053B0007F4F8F4F9F4F0895E89409C097FB3EF4AD
:1053C00090958095709561957F4F8F4F9F4F992352
:1053D000A9F0F92F96E9BB279395F69587957795D0
:1053E0006795B795F111F8CFFAF4BB0F11F460FF90
:1053F0001BC06F5F7F4F8F4F9F4F16C0882311F0E8
:1054000096E911C0772321F09EE8872F762F05C0FB
:10541000662371F096E8862F70E060E02AF09A9596
:10542000660F771F881FDAF7880F9695879597F98B
:10543000089597F99F6780E870E060E008959FEF16
:1054400080EC089500240A9416161706180609061B
:10545000089500240A9412161306140605060895EA
:10546000092E0394000C11F4882352F0BB0F40F472
:10547000BF2B11F460FF04C06F5F7F4F8F4F9F4FB2
:10548000089557FD9058440F551F59F05F3F71F034
:105490004795880F97FB991F61F09F3F79F087959B
:1054A0000895121613061406551FF2CF4695F1DF24
:1054B00008C0161617061806991FF1CF86957105B4
:1054C000610508940895E894BB2766277727CB01E8
:1054D00097F908950E947D2A0C94302A0E94222A6E
:1054E00038F00E94292A20F0952311F00C94192AF3
:1054F0000C941F2A11240C94642A0E94412A70F3F0
:10550000959FC1F3950F50E0551F629FF001729F68
:10551000BB27F00DB11D639FAA27F00DB11DAA1F77
:10552000649F6627B00DA11D661F829F2227B00DC4
:10553000A11D621F739FB00DA11D621F839FA00D4F
:10554000611D221F749F3327A00D611D231F849F9F
:10555000600D211D822F762F6A2F11249F575040F6
:105560009AF0F1F088234AF0EE0FFF1FBB1F661F71
:10557000771F881F91505040A9F79E3F510580F03A
:105580000C94192A0C94642A5F3FE4F3983ED4F3F8
:10559000869577956795B795F795E7959F5FC1F7DE
:1055A000FE2B880F911D9695879597F90895DB013D
:1055B0008F939F930E94282BBF91AF91A29F800D44
:1055C000911DA39F900DB29F900D11240895A1E20B
:1055D0001A2EAA1BBB1BFD010DC0AA1FBB1FEE1F6D
:1055E000FF1FA217B307E407F50720F0A21BB30BB8
:1055F000E40BF50B661F771F881F991F1A9469F734
:1056000060957095809590959B01AC01BD01CF018F
:105610000895052E97FB1EF400940E94202B57FD41
:1056200007D00E94E72A07FC03D04EF40C94202BED
:1056300050954095309521953F4F4F4F5F4F0895BE
:1056400090958095709561957F4F8F4F9F4F0895EE
:105650000E94332BA59F900DB49F900DA49F800DA9
:10566000911D11240895A29FB001B39FC001A39F73
:10567000700D811D1124911DB29F700D811D11248B
:10568000911D0895662777270C94322E1F93FC01F5
:1056900099278827BC01E89411911032E9F3193059
:1056A00010F01E30C8F31B3251F01D3249F46894DB
:1056B00006C00E948A2B610F711D811D911D1191E1
:1056C00010531A30B0F33EF4909580957095619523
:1056D0007F4F8F4F9F4F1F910895FB01DC01415079
:1056E000504030F08D910190801919F40020B9F7E5
:1056F000881B990B0895BB272A3051F4992342F453
:10570000BDE290958095709561957F4F8F4F9F4F2B
:105710000C94A02B592F482F372F262F660F771F59
:10572000881F991F660F771F881F991F620F731FAD
:10573000841F951F660F771F881F991F0895BB2729
:10574000FA01A62F6217710581059105330B30FB15
:1057500066F0AA27660F771F881F991FAA1FA21736
:1057600010F0A21B63953850A9F7A05DAA3308F08A
:10577000A95DA19336F7B111B1931082CA010C94BF
:10578000C52FCF93DF93CDB7DEB7AE014A5F5F4F32
:10579000FA0161917191AF0180913E2790913F276D
:1057A0000E942E2CDF91CF9108950F931F93CF93DA
:1057B000DF93E0913E27F0913F27238121FF1BC01B
:1057C0008C01D0E0C0E0F80181918F0160913E270B
:1057D00070913F27DB011896ED91FC911997882372
:1057E00031F01995892B79F3DFEFCFEFECCF8AE019
:1057F0001995892B19F08FEF9FEF02C08D2F9C2FE9
:10580000DF91CF911F910F9108950F931F93CF9325
:10581000DF93CDB7DEB72E97CDBFDEBF0E891F89D0
:1058200086E08C8309831A838FEF9FE78D839E83A5
:10583000AE01465E5F4F688D798DCE0101960E9464
:105840002E2CEF81F885E00FF11F10822E96CDBF30
:10585000DEBFDF91CF911F910F9108952F923F925C
:105860004F925F926F927F928F929F92AF92BF9270
:10587000CF92DF92EF92FF920F931F93CF93DF931C
:10588000CDB7DEB72B97CDBFDEBF6C017B018A01A0
:10589000FC0116821782838181FFCCC1CE01019663
:1058A0003C01F6019381F70193FD859193FF81916E
:1058B0007F01882309F4BAC1853239F493FD8591BB
:1058C00093FF81917F01853229F4B60190E00E9417
:1058D000D52FE7CF912C212C312CFFE1F315D8F0F7
:1058E0008B3279F038F4803279F08332A1F4232DB1
:1058F00020611DC08D3261F0803369F4232D216059
:1059000016C0832D8260382EE32DE4603E2E2AC01F
:10591000F32DF8601DC037FC2DC020ED280F2A3074
:1059200040F08E32B9F436FC81C1232D2064322E32
:1059300019C036FE06C08AE0989E200D1124922ED2
:1059400011C0EAE02E9E200D1124222EF32DF062CC
:105950003F2E08C08C3621F4832D8068382E02C07B
:10596000883641F4F70193FD859193FF81917F0182
:105970008111B3CF982F9F7D9554933028F40C5FFD
:105980001F4F9FE399830DC0833631F0833771F049
:10599000833509F059C021C0F801808189830E5FE9
:1059A0001F4F88248394912C530113C02801F2E0E7
:1059B0004F0E511CF801A080B18036FE03C0692D46
:1059C00070E002C06FEF7FEFC5010E94BA2F4C015B
:1059D0008201F32DFF773F2E16C0280122E0420EF0
:1059E000511CF801A080B18036FE03C0692D70E023
:1059F00002C06FEF7FEFC5010E94AF2F4C01F32D66
:105A0000F0683F2E820133FC1BC0822D90E0881687
:105A10009906B0F4B60180E290E00E94D52F2A9456
:105A2000F4CFF50137FC859137FE81915F01B60116
:105A300090E00E94D52F21102A9421E0821A91082B
:105A40008114910471F7E8C0843611F0893641F56C
:105A5000F80137FE07C060817181828193810C5FFC
:105A60001F4F08C060817181072E000C880B990BB5
:105A70000E5F1F4FF32DFF763F2E97FF09C09095C5
:105A80008095709561957F4F8F4F9F4FF0683F2EA7
:105A90002AE030E0A3010E941130882E861845C00C
:105AA000853731F4232D2F7EB22E2AE030E025C039
:105AB000932D997FB92E8F36C1F018F4883579F07F
:105AC000B5C0803719F0883721F0B0C0E92FE06108
:105AD000BE2EB4FE0DC0FB2DF460BF2E09C034FEF7
