:100000000C9418010C943E010C943E010C943E019A
:100010000C943E010C943E010C943E010C943E0164
:100020000C943E010C943E010C943E010C943E0154
:100030000C943E010C943E010C943E010C943E0144
:100040000C94590C0C943E010C943E010C943E010E
:100050000C94E00D0C943E010C943E010C943E0176
:100060000C943E010C94623C0C943E010C943E01B5
:100070000C943E010C943E010C943E010C943E0104
:100080000C943E010C943E010C943E010C943E01F4
:100090000C943E010C943E010C943E010C943E01E4
:1000A0000C943E010C943E010C943E010C943E01D4
:1000B0000C943E010C943E010C943E010C943E01C4
:1000C0000C943E010C943E010C943E010C943E01B4
:1000D0000C943E010C943E010C943E010C943E01A4
:1000E0000C943E010C943E010C943E010C943E0194
:1000F0000C943E010C943E010C943E010C943E0184
:100100000C94B6360C945C390C943E010C943E0170
:100110000C943E010C943E010C943E010C943E0163
:100120000C943E010C943E010C943E010C943E0153
:100130000C943E010C943E010C943E010C943E0143
:100140000C943E010C943E010C943E010C94890FDA
:100150000C943E010C943E010C943E010C943E0123
:100160000C943E010C943E010C943E010C943E0113
:100170000C943E010C943E010C943E010C943E0103
:100180000C942C340C943E010C943E010C943E01D2
:100190000C943E010C943E010C943E010C943E01E3
:1001A0000C943E010C943E010C943E010C943E01D3
:1001B0000C943E010C943E010C943E010C943E01C3
:1001C0000C943E010C943E010C943E010C943E01B3
:1001D0000C943E010C943E010C9407020C943E01D9
:1001E0000C943E010C943E010C943E010C943E0193
:1001F0000C943E014E414E494E495459494E46CD0C
:10020000CCCC3D0AD7233C17B7D13877CC2B3295CD
:1002100095E6241FB14F0A000020410000C84200AB
:10022000401C4620BCBE4CCA1B0E5AAEC59D740075
:1002300011241FBECFEFCDBFDFE3DEBF00E00CBF58
:1002400018BE19BE1ABE1BBE16E2A0E0B0E2E2EE76
:10025000FAE800E00BBF02C007900D92AE3CB10778
:10026000D9F71BBE29E2AEECB6E201C01D92A33C59
:10027000B207E1F70E949F3C0C946F450C9400007C
:10028000E0E0F6E0148280EC8083108A118A128A02
:10029000138A148A158A168A178A8185807F818736
:1002A00012861386E0E2F6E0148280E98083108AE9
:1002B000118A128A138A148A158A168A178A8185E6
:1002C000807F818712861386E0E4F6E088E88483E5
:1002D00098E09083108A118A128A138A148A158AE8
:1002E000168A178A8185807F818712861386E0E6C9
:1002F000F6E014821082108A118A128A138A148AF4
:10030000158A168A178A8185807F85608187928702
:1003100086E08387E0E8F6E0148286EB8083108A2B
:10032000118A128A138A148A158A168A178A818575
:10033000807F818712861386E0EAF6E0148281E4EA
:100340008083108A118A128A138A148A158A168A5F
:10035000178A8185807F818712861386E0EEF6E01A
:1003600014828CEF8083108A118A128A138A148A6D
:10037000158A168A178A8185807F8160818782E04D
:1003800082871386E0E0F7E014828FEF8083108A83
:10039000118A128A138A148A158A168A178A818505
:1003A000807F818712861386E0E2F7E014828FE374
:1003B0008083108A118A128A138A148A158A168AEF
:1003C000178A8185807F818712861386E0ECF7E0AB
:1003D00014821082108A118A128A138A8185807F82
:1003E000818712861386E0EEF7E0148283E0808333
:1003F000108A118A8185807F8187128613860895ED
:10040000E0ECFBE080E4808383E0818308951F9229
:100410000F920FB60F92112408B60F9218BE09B6AC
:100420000F9219BE0AB60F921ABE0BB60F921BBEE0
:100430002F933F938F939F93AF93BF93CF93DF936C
:10044000EF93FF93E0ECFBE08281938180918C2815
:1004500081112BC09D3079F09923F1F180918D2885
:100460008436D0F5E82FF0E0EE50F74D90838F5FA3
:1004700080938D2831C0CEE8D8E2A2EFB8E286E5BD
:1004800099E2FD012081299311928E179F07D1F7E0
:1004900021E020938B281D928A179B07E1F784E6C1
:1004A00080938A2810928D2817C08091562984360F
:1004B00028F4E82FF0E0E95AF64D30818F5F809301
:1004C0005629853649F4E0EAF6E084818E7F8483FC
:1004D00010928C28109256293093C30BFF91EF9104
:1004E000DF91CF91BF91AF919F918F913F912F91CC
:1004F0000F900BBE0F900ABE0F9009BE0F9008BE62
:100500000F900FBE0F901F901895E0ECFAE083E576
:100510008083118208958093C30AE0ECFAE082811F
:100520008823ECF78091C30A0895FA0160837183F0
:100530008283938308950F931F93FC01038110E03E
:1005400020E030E0302F222711270027428150E0A1
:1005500060E070E0BA0155274427040F151F261FDD
:10056000371F418150E060E070E0762F652F542FF7
:100570004427D901C801840F951FA61FB71F2081EA
:10058000BC01CD01620F711D811D911D1F910F9145
:100590000895AF92BF92CF92DF92EF92FF920F93A6
:1005A0001F93CF93DF9300D01F92CDB7DEB7109289
:1005B00085281092862810928728109288281092F9
:1005C0008328109284281092822810928128E0E8D3
:1005D000F6E084818061848384818F7E848383E0DC
:1005E0000E948B02809181280E948B028091822838
:1005F0000E948B0280E00E948B020DEB17E2E12C3F
:10060000F12C0F2EF1E0AF2EF0E2BF2EF02D0F2EC9
:10061000F2E2CF2EF0E2DF2EF02D80E00E948B027E
:100620008A8380E00E948B0289832A8130E0322F06
:100630002227A901480F511DF8014083518380E012
:100640000E948B02F801828380E00E948B02F801F5
:10065000838380E00E948B02F801848380E00E9403
:100660008B028C8380E00E948B028B8380E00E944F
:100670008B028A8380E00E948B028983CE010196DF
:100680000E949B02F801658376838783908780E0D0
:100690000E948B028C8380E00E948B028B8380E01F
:1006A0000E948B028A8380E00E948B028983CE01A4
:1006B00001960E949B02F801618772878387948765
:1006C00080E00E948B028C8380E00E948B028B83EF
:1006D00080E00E948B028A8380E00E948B028983E3
:1006E000CE0101960E949B02F80165877687878775
:1006F000908B80E00E948B028C8380E00E948B02B2
:100700008B8380E00E948B028A8380E00E948B02B0
:100710008983CE0101960E949B02F801618B728B46
:10072000838B948B80E00E948B028C8380E00E94FC
:100730008B028B8380E00E948B028A8380E00E9480
:100740008B028983CE0101960E949B02F801658B82
:10075000768B878B908F80E00E948B028A8380E06B
:100760000E948B0289832A8130E0322F2227A9013F
:10077000480F511DF801418F528F80E00E948B027B
:10078000F801838F80E00E948B02F801848F80E063
:100790000E948B028C8380E00E948B028B8380E01E
:1007A0000E948B028A8380E00E948B028983CE01A3
:1007B00001960E949B02F801658F768F878F90A328
:1007C00080E00E948B028C8380E00E948B028B83EE
:1007D00080E00E948B028A8380E00E948B028983E2
:1007E000CE0101960E949B02F80161A372A383A32C
:1007F00094A380E00E948B02F80185A380E00E9410
:100800008B02F80186A380E00E948B02F80187A387
:1008100080E00E948B02F80180A780E00E948B029A
:10082000F80181A71F928F93FF92EF92BF92AF9230
:100830000E94954080E00E948B02F80182A71F92DF
:100840008F93FF92EF92DF92CF920E949540FFEF3D
:10085000EF1AFF0A055D1F4FCDBFDEBF53E0E5165F
:10086000F10409F0DACE2496CDBFDEBFDF91CF913F
:100870001F910F91FF90EF90DF90CF90BF90AF90BE
:100880000895CF92DF92EF92FF920F931F93CF9331
:10089000DF9300D01F92CDB7DEB783E490E20E94D1
:1008A000A9408091892881114FC082E590E20E9481
:1008B000A94088EE93E0A0E0B0E080938528909373
:1008C0008628A0938728B09388281F921F9283E0E0
:1008D0008F9388EE8F9387E690E29F938F930E9489
:1008E00095408091852890918628A0918728B09185
:1008F0008828880F991FAA1FBB1F80938328909375
:1009000084288093822890938128E0E8F6E084810F
:100910008061848384818F7E848383E00E948B0244
:10092000809181280E948B02809182280E948B02F4
:1009300080E00E948B0281E0809389280F900F90C5
:100940000F900F900F900F9080E00E948B028A838F
:1009500080E00E948B0289830EE318E22A8130E056
:10096000322F2227A901480F511DF80140835183DE
:1009700080E00E948B02F801828380E00E948B025B
:10098000F8018383813009F45CC120F08A3509F4D1
:1009900042C2BBC280E00E948B028093422888231F
:1009A00009F4A7C28E010B5F1F4FAE014F5F5F4F6F
:1009B0006A01780180E00E948B02F70182937F0137
:1009C000EC15FD05B9F7CE0101960E949B02EEE3FE
:1009D000F8E265837683878390878481823008F488
:1009E00061C280E00E948B02F80182938F01EC15B6
:1009F000FD05B9F7CE0101960E949B02EEE3F8E2F5
:100A000061877287838794878481833008F44EC21C
:100A10008E010B5F1F4FAE014F5F5F4F7A0180E089
:100A20000E948B02F80182938F01EE15FF05B9F742
:100A3000CE0101960E949B0260934B2870934C2834
:100A400080934D2890934E2880914228882309F462
:100A500057C08E010B5F1F4FAE014F5F5F4F7A0192
:100A600080E00E948B02F80182938F01EE16FF0650
:100A7000B9F7CE0101960E949B02EEE3F8E2648B87
:100A8000758B868B978B8481823008F412C28E011D
:100A90000B5F1F4FAE014F5F5F4F7A0180E00E94F6
:100AA0008B02F80182938F01EE16FF06B9F7CE0193
:100AB00001960E949B02EEE3F8E2608F718F828FB5
:100AC000938F84818330E0F08E010B5F1F4FAE0166
:100AD0004F5F5F4F7A0180E00E948B02F8018293A2
:100AE0008F01EE15FF05B9F7CE0101960E949B021A
:100AF00060935A2870935B2880935C2890935D28BC
:100B000080914228882309F4D8C180E00E948B029A
:100B1000EEE3F8E2818B8481823028F080E00E944D
:100B20008B028093502880914228833008F4C5C1FD
:100B300080E00E948B0280935128BFC180E00E9418
:100B40008B02F60182936F010E171F07B9F7CE01D2
:100B500001960E949B0260935E2870935F288093A9
:100B6000602890936128670180E00E948B02F60163
:100B700082936F010E171F07B9F7CE0101960E94ED
:100B80009B026093622870936328809364289093FB
:100B90006528670180E00E948B02F60182936F0155
:100BA0000E171F07B9F7CE0101960E949B026093B2
:100BB0006628709367288093682890936928670156
:100BC00080E00E948B02F60182936F010E171F07CF
:100BD000B9F7CE0101960E949B0260936A28709338
:100BE0006B2880936C2890936D28670180E00E94A9
:100BF0008B02F60182936F01E017F107B9F7CE017E
:100C000001960E949B0260936E2870936F288093D8
:100C100070289093712880E00E948B02F7018293E4
:100C20007F010E171F07B9F7CE0101960E949B02A4
:100C3000609372287093732880937428909375281A
:100C400064C180E00E948B0280934228882309F4CB
:100C500056C18E010B5F1F4FAE014F5F5F4F6A01A0
:100C6000780180E00E948B02F70182937F01EC15EE
:100C7000FD05B9F7CE0101960E949B02EEE3F8E272
:100C800065837683878390878481823008F41EC1D0
:100C900080E00E948B02F80182938F01EC15FD0524
:100CA000B9F7CE0101960E949B02EEE3F8E261875C
:100CB0007287838794878481833008F40BC18E0107
:100CC0000B5F1F4FAE014F5F5F4F7A0180E00E94C4
:100CD0008B02F80182938F01EE16FF06B9F7CE0161
:100CE00001960E949B0260934B2870934C2880933E
:100CF0004D2890934E2880914228882309F457C0AC
:100D00008E010B5F1F4FAE014F5F5F4F7A0180E096
:100D10000E948B02F80182938F01EE16FF06B9F74D
:100D2000CE0101960E949B02EEE3F8E2648B758B84
:100D3000868B978B8481823008F4CFC08E010B5F45
:100D40001F4FAE014F5F5F4F7A0180E00E948B0220
:100D5000F80182938F01EE15FF05B9F7CE010196D8
:100D60000E949B02EEE3F8E2608F718F828F938F77
:100D700084818330E0F08E010B5F1F4FAE014F5F27
:100D80005F4F7A0180E00E948B02F80182938F010D
:100D9000EE15FF05B9F7CE0101960E949B02609304
:100DA0005A2870935B2880935C2890935D288091EB
:100DB0004228882309F495C080E00E948B02EEE36C
:100DC000F8E2818B8481823028F080E00E948B02DF
:100DD0008093502880914228833008F482C080E0BC
:100DE0000E948B02809351287CC080E00E948B027D
:100DF000F80182938F01EE16FF06B9F7CE01019636
:100E00000E949B0260935E2870935F288093602805
:100E1000909361287AC080E00E948B020EE318E272
:100E2000F80180AF80E00E948B028C8380E00E94FA
:100E30008B028B8380E00E948B028A8380E00E9479
:100E40008B028983CE0101960E949B02F80161AF5B
:100E500072AF83AF94AF80E00E948B028C8380E0FE
:100E60000E948B028B8380E00E948B028A8380E049
:100E70000E948B028983CE0101960E949B0260939F
:100E80007B2870937C2880937D2890937E2880E037
:100E90000E948B0280937F2880E00E948B028093C7
:100EA000802833C0833008F0B3CDCECD8111D1CDB1
:100EB00023C0833008F424CE07CE7E01F5E0EF0E88
:100EC000F11C8E010F5F1F4F670138CE833008F091
:100ED000F6CE11CF811114CF15C0833008F467CF3F
:100EE0004ACF8E010B5F1F4FAE014F5F5F4F7A01FC
:100EF0007CCF80914228DACF80914228DACF80914E
:100F00004228E8CF80914228E8CF2496CDBFDEBFAB
:100F1000DF91CF911F910F91FF90EF90DF90CF90D5
:100F20000895CF93DF9300D01F92CDB7DEB780E84E
:100F300090E20E94A94087EE93E0A0E0B0E08093A9
:100F4000852890938628A0938728B09388288EECD4
:100F500097E080938328909384288EEC8093822856
:100F600087E080938128E0E8F6E0848180618483D3
:100F700084818F7E848383E00E948B02809181280C
:100F80000E948B02809182280E948B0280E00E9446
:100F90008B0280E00E948B028C8380E00E948B0297
:100FA0008B8380E00E948B028A8380E00E948B0208
:100FB00089839C811F929F939B811F929F939A810B
:100FC0001F929F931F928F9383E990E29F938F9339
:100FD0000E949540CE0101960E949B02CDBFDEBFCC
:100FE0002496CDBFDEBFDF91CF910895CF92DF92DF
:100FF000EF92FF920F931F93CF93DF9300D01F9236
:10100000CDB7DEB72091892821112FC0A0E0B0E034
:101010008093852890938628A0938728B09388286A
:10102000880F991FAA1FBB1F809383289093842841
:101030008093822890938128E0E8F6E084818061A3
:10104000848384818F7E848383E00E948B028091DD
:1010500081280E948B02809182280E948B0280E06E
:101060000E948B0281E08093892880E00E948B029D
:101070008A8380E00E948B0289830EE318E22A8132
:1010800030E0322F2227A901480F511DF80140837B
:10109000518380E00E948B02F801828380E00E94ED
:1010A0008B02F8018383882321F0813009F458C131
:1010B00073C280E00E948B0280934228882309F447
:1010C0005FC28E010B5F1F4FAE014F5F5F4F6A0122
:1010D000780180E00E948B02F70182937F01EC157A
:1010E000FD05B9F7CE0101960E949B02EEE3F8E2FE
:1010F00065837683878390878481823008F419C260
:1011000080E00E948B02F80182938F01EC15FD05AF
:10111000B9F7CE0101960E949B02EEE3F8E26187E7
:101120007287838794878481833008F406C28E0196
:101130000B5F1F4FAE014F5F5F4F7A0180E00E944F
:101140008B02F80182938F01EE15FF05B9F7CE01EE
:1011500001960E949B0260934B2870934C288093C9
:101160004D2890934E2880914228882309F457C037
:101170008E010B5F1F4FAE014F5F5F4F7A0180E022
:101180000E948B02F80182938F01EE16FF06B9F7D9
:10119000CE0101960E949B02EEE3F8E2648B758B10
:1011A000868B978B8481823008F4CAC18E010B5FD5
:1011B0001F4FAE014F5F5F4F7A0180E00E948B02AC
:1011C000F80182938F01EE16FF06B9F7CE01019662
:1011D0000E949B02EEE3F8E2608F718F828F938F03
:1011E00084818330E0F08E010B5F1F4FAE014F5FB3
:1011F0005F4F7A0180E00E948B02F80182938F0199
:10120000EE15FF05B9F7CE0101960E949B0260938F
:101210005A2870935B2880935C2890935D28809176
:101220004228882309F490C180E00E948B02EEE3FB
:10123000F8E2818B8481823028F080E00E948B026A
:101240008093502880914228833008F47DC180E04B
:101250000E948B028093512877C180E00E948B020C
:10126000F60182936F010E171F07B9F7CE010196A1
:101270000E949B0260935E2870935F288093602891
:1012800090936128670180E00E948B02F6018293AF
:101290006F010E171F07B9F7CE0101960E949B023E
:1012A00060936228709363288093642890936528E4
:1012B000670180E00E948B02F60182936F010E1796
:1012C0001F07B9F7CE0101960E949B026093662822
:1012D000709367288093682890936928670180E05D
:1012E0000E948B02F60182936F010E171F07B9F758
:1012F000CE0101960E949B0260936A2870936B282E
:1013000080936C2890936D28670180E00E948B0287
:10131000F60182936F01E017F107B9F7CE0101964C
:101320000E949B0260936E2870936F2880937028B0
:101330009093712880E00E948B02F70182937F01D5
:101340000E171F07B9F7CE0101960E949B0260930A
:1013500072287093732880937428909375281CC109
:1013600080E00E948B0280934228882309F40EC1FA
:101370008E010B5F1F4FAE014F5F5F4F6A01780117
:1013800080E00E948B02F70182937F01EC15FD053E
:10139000B9F7CE0101960E949B02EEE3F8E2658365
:1013A0007683878390878481823008F4D6C080E07A
:1013B0000E948B02F80182938F01EC15FD05B9F7AD
:1013C000CE0101960E949B02EEE3F8E261877287EC
:1013D000838794878481833008F4C3C08E010B5FB8
:1013E0001F4FAE014F5F5F4F7A0180E00E948B027A
:1013F000F80182938F01EE16FF06B9F7CE01019630
:101400000E949B0260934B2870934C2880934D2838
:1014100090934E2880914228882309F457C08E016A
:101420000B5F1F4FAE014F5F5F4F7A0180E00E945C
:101430008B02F80182938F01EE16FF06B9F7CE01F9
:1014400001960E949B02EEE3F8E2648B758B868B1B
:10145000978B8481823008F487C08E010B5F1F4F09
:10146000AE014F5F5F4F7A0180E00E948B02F8016E
:1014700082938F01EE15FF05B9F7CE0101960E9408
:101480009B02EEE3F8E2608F718F828F938F8481ED
:101490008330E0F08E010B5F1F4FAE014F5F5F4F57
:1014A0007A0180E00E948B02F80182938F01EE1591
:1014B000FF05B9F7CE0101960E949B0260935A285E
:1014C00070935B2880935C2890935D2880914228DC
:1014D000882309F44DC080E00E948B02EEE3F8E21D
:1014E000818B8481823028F080E00E948B0280937F
:1014F0005028809142288330D8F180E00E948B02EE
:101500008093512835C080E00E948B02F8018293BD
:101510008F01EE16FF06B9F7CE0101960E949B02DD
:1015200060935E2870935F28809360289093612871
:1015300033C0833008F0FBCD16CE811119CE23C005
:10154000833008F46CCE4FCE7E01F5E0EF0EF11C37
:101550008E010F5F1F4F670180CE833008F03ECFB2
:1015600059CF81115CCF15C0833008F4AFCF92CF33
:101570008E010B5F1F4FAE014F5F5F4F7A01C3CFEC
:1015800080914228DACF80914228DACF8091422898
:10159000E8CF80914228E8CF2496CDBFDEBFDF910F
:1015A000CF911F910F91FF90EF90DF90CF90089512
:1015B0007F928F929F92AF92BF92CF92DF92EF92E3
:1015C000FF920F931F93CF93DF9300D01F92CDB75D
:1015D000DEB74B015C0187EE93E0A0E0B0E08093C2
:1015E000852890938628A0938728B09388288EEC2E
:1015F00097E080938328909384288EEC80938228B0
:1016000087E08093812800E816E0F80184818061FA
:10161000848384818F7E848381E80E948B02809101
:1016200081280E948B02809182280E948B0280E098
:101630000E948B02F8018481806184830F2EF0EE7A
:10164000EF2EF7E0FF2EF02D0F2EF1EBCF2EF0E274
:10165000DF2EF02DF80184818F7E8483F701848151
:1016600080FF03C08481848304C0F701848181608A
:10167000848387ED0E948B0280E00E948B02782E8B
:101680001F928F93DF92CF920E949540F801848140
:10169000806184830F900F900F900F907720D4F685
:1016A000E0E8F6E084818F7E84838091E40781FF07
:1016B00006C0E0EEF7E084818E7F848305C0E0EE13
:1016C000F7E084818260848384E80E948B028091A9
:1016D00081280E948B02809182280E948B0280E0E8
:1016E0000E948B02AE014F5F5F4FC501B4010E94A3
:1016F00095028C811F928F938B811F928F938A8189
:101700001F928F9389811F928F938EEB90E29F930C
:101710008F930E9495408C810E948B028B810E9446
:101720008B028A810E948B0289810E948B0200E8D1
:1017300016E0F80184818061848384818F7E8483B4
:1017400083E80E948B02809181280E948B02809105
:1017500082280E948B0280E00E948B02F801848123
:1017600080618483CDBFDEBF2496CDBFDEBFDF9115
:10177000CF911F910F91FF90EF90DF90CF90BF908E
:10178000AF909F908F907F9008952FB7F894E0E0EE
:10179000F8E010828CE0818781E08083818313826E
:1017A0001482168283E08783A0E9B8E08C918E7F53
:1017B0008C93A0E9B0E019968C9119978E7F98EDE3
:1017C00094BF19968C93A0E8B8E01C9218961C92CE
:1017D000189719961C9219971C961C921C97139691
:1017E0008C911397887E13968C93139712961C9264
:1017F000129714968C91149714969C911497847058
:10180000892B14968C938485848710A211A216A22A
:1018100017A28FEF9FEF80A791A712A613A614A679
:1018200015A616A617A62FBF08959FB7F894E0E453
:10183000F8E010828CE0818784E08083118213823B
:10184000148282E086831782A0E9B8E08C918D7FB4
:101850008C938485848710A211A22FE33CE926A3F0
:1018600037A310A611A612A613A69FBF08959FB76F
:10187000F894E0E4F9E010828CE0818785E08083D1
:1018800011821382148281E086831782A0E9B9E075
:101890008C918D7F8C938485848710A211A22FE474
:1018A00033EC26A337A310A611A612A613A69FBF3A
:1018B00008951F920F920FB60F92112408B60F923F
:1018C00018BE09B60F9219BE0BB60F921BBE2F930E
:1018D0003F934F935F936F937F938F939F93AF93B8
:1018E000BF93EF93FF9380910C0884FF05C0E0E065
:1018F000F8E0848580618487809194279091952772
:10190000A0919627B0919727181619061A061B065C
:101910005CF40197A109B1098093942790939527CE
:10192000A0939627B09397274091902750919127A5
:1019300060919227709193271416150616061706C4
:101940000CF057C0209136273091372780913027EF
:1019500090913127820F931F8093362790933727DA
:10196000883E23E0920708F440C0E0E2F7E020E27E
:101970002783885E93408093362790933727415082
:101980005109610971094093902750939127609301
:10199000922770939327848184FD14C08091AC2793
:1019A0009091AD27A091AE27B091AF270197A109E3
:1019B000B1098093AC279093AD27A093AE27B09345
:1019C000AF2713C08091AC279091AD27A091AE278F
:1019D000B091AF270196A11DB11D8093AC279093C4
:1019E000AD27A093AE27B093AF2781E0809348271F
:1019F00002C01092482740918C2750918D2760910A
:101A00008E2770918F2714161506160617060CF0F0
:101A100057C0209134273091352780912E279091FF
:101A20002F27820F931F8093342790933527883E6A
:101A300023E0920708F440C0E0E2F7E028E02783C3
:101A4000885E934080933427909335274150510905
:101A50006109710940938C2750938D2760938E27DD
:101A600070938F27848182FD14C08091A827909164
:101A7000A927A091AA27B091AB270197A109B10985
:101A80008093A8279093A927A093AA27B093AB2768
:101A900013C08091A8279091A927A091AA27B0915F
:101AA000AB270196A11DB11D8093A8279093A9276C
:101AB000A093AA27B093AB2781E08093472702C069
:101AC00010924727409188275091892760918A2753
:101AD00070918B2714161506160617060CF057C0C2
:101AE000209132273091332780912C2790912D27F8
:101AF000820F931F8093322790933327883E23E0F1
:101B0000920708F440C0E0E2F7E022E02783885E15
:101B100093408093322790933327415051096109B4
:101B20007109409388275093892760938A2770937F
:101B30008B27848180FD14C08091A4279091A527D4
:101B4000A091A627B091A7270197A109B109809379
:101B5000A4279093A527A093A627B093A72713C0E7
:101B60008091A4279091A527A091A627B091A7279F
:101B70000196A11DB11D8093A4279093A527A09342
:101B8000A627B093A72781E08093462702C0109232
:101B90004627FF91EF91BF91AF919F918F917F91D8
:101BA0006F915F914F913F912F910F900BBE0F90CE
:101BB00009BE0F9008BE0F900FBE0F901F90189592
:101BC0001F920F920FB60F92112408B60F9218BEF3
:101BD00009B60F9219BE0BB60F921BBECF92DF92C1
:101BE000EF92FF920F931F932F933F934F935F9327
:101BF0006F937F938F939F93AF93BF93EF93FF93D5
:101C000080912627909127270196809326279093ED
:101C10002727C0909427D0909527E0909627F090A2
:101C200097271C141D041E041F040CF086C080910D
:101C3000842790918527A0918627B0918727C81681
:101C4000D906EA06FB06B4F140914227509143279A
:101C5000609144277091452780913E2790913F27BE
:101C6000A0914027B09141278A019B01080F191FBD
:101C70002A1F3B1FC901B801009342271093432735
:101C800020934427309345270E94A73E9B01AC0137
:101C900060E070E08AE796E40E94FD3D20E030E0DD
:101CA0004AE754E40E94333F0E94763E609328083E
:101CB000709329088091802790918127A091822795
:101CC000B09183278C159D05AE05BF050CF404C1AA
:101CD0008091422790914327A0914427B0914527B6
:101CE000C0903E27D0903F27E0904027F0904127BA
:101CF000BC01CD016C197D098E099F0960934227B3
:101D00007093432780934427909345270E94A73ED2
:101D10009B01AC0160E070E08AE796E40E94FD3D23
:101D200020E030E04AE754E40E94333F0E94763ED0
:101D30006093280870932908CFC08091392781309B
:101D400009F051C0409142275091432760914427A8
:101D50007091452780913E2790913F27A091402781
:101D6000B0914127840F951FA61FB71F809342276C
:101D700090934327A0934427B093452740916D2724
:101D800050916E2760916F27709170278417950787
:101D9000A607B70754F04093422750934327609318
:101DA00044277093452710923927609142277091FC
:101DB000432780914427909145270E94A73E9B018D
:101DC000AC0160E070E08AE796E40E94FD3D20E00F
:101DD00030E04AE754E40E94333F0E94763E60932D
:101DE00028087093290880913827813009F074C041
:101DF00040913A2750913B2760913C2770913D27B5
:101E00008091422790914327A0914427B091452784
:101E1000841B950BA60BB70B481759076A077B075E
:101E20004CF48093422790934327A0934427B09388
:101E3000452734C04093422750934327609344275B
:101E400070934527109238278091ED26813059F400
:101E50001092ED26109290271092912710929227BF
:101E6000109293271BC0823059F41092ED261092E5
:101E70008C2710928D2710928E2710928F270EC0DC
:101E80008091ED26833051F41092ED261092882730
:101E90001092892710928A2710928B2760914227EF
:101EA0007091432780914427909145270E94A73E37
:101EB0009B01AC0160E070E08AE796E40E94FD3D82
:101EC00020E030E04AE754E40E94333F0E94763E2F
:101ED0006093280870932908FF91EF91BF91AF910B
:101EE0009F918F917F916F915F914F913F912F9132
:101EF0001F910F91FF90EF90DF90CF900F900BBE4E
:101F00000F9009BE0F9008BE0F900FBE0F901F904C
:101F100018951F920F920FB60F92112408B60F92C8
:101F200018BE8F938091E727882379F18091240749
:101F300084FD2BC08091080684FF28C126C0109222
:101F400090271092912710929227109293278091B8
:101F5000F42681111AC01092ED2610929427109247
:101F60009527109296271092972710928C271092FF
:101F70008D2710928E2710928F271092882710920B
:101F8000892710928A2710928B278091E627882331
:101F900079F18091240784FF2BC08091080683FF8C
:101FA000FAC026C010929027109291271092922783
:101FB000109293278091F42681111AC01092ED2679
:101FC0001092942710929527109296271092972797
:101FD00010928C2710928D2710928E2710928F27A7
:101FE000109288271092892710928A2710928B27A7
:101FF00080911228882379F18091240782FD2BC0DB
:102000008091280686FFCCC026C010928C271092A3
:102010008D2710928E2710928F278091F4268111A0
:102020001AC01092ED2610929427109295271092C4
:10203000962710929727109290271092912710922E
:102040009227109293271092882710928927109236
:102050008A2710928B2780911128882379F180910B
:10206000240782FF2BC08091280680FF9EC026C0D7
:1020700010928C2710928D2710928E2710928F2706
:102080008091F42681111AC01092ED2610929427A7
:1020900010929527109296271092972710929027CA
:1020A00010929127109292271092932710928827CE
:1020B0001092892710928A2710928B2780913D28B1
:1020C000882379F18091240780FD2BC080914806F8
:1020D00084FF70C026C01092882710928927109222
:1020E0008A2710928B278091F42681111AC01092B2
:1020F000ED26109294271092952710929627109211
:10210000972710928C2710928D2710928E2710926D
:102110008F27109290271092912710929227109259
:10212000932780913C28882309F44DC0809124078F
:1021300080FF49C08091480685FF41C044C010928D
:1021400088271092892710928A2710928B278091D6
:10215000F426811138C01092ED2610929427109227
:102160009527109296271092972710928C271092FD
:102170008D2710928E2710928F2710929027109201
:10218000912710929227109293271DC08091482783
:102190008111D5CEFACE80914827811103CF28CF67
:1021A00080914727811131CF56CF809147278111E8
:1021B0005FCF84CF8091462781118DCFB2CF8091A0
:1021C00046278111BCCF8F910F9008BE0F900FBE94
:1021D0000F901F9018954F925F926F927F928F92FF
:1021E0009F92AF92BF92CF92DF92EF92FF920F93A6
:1021F0001F93CF93DF93CDB7DEB72897CDBFDEBF58
:10220000809141288E3009F49FC258F4813009F43E
:10221000DEC0C8F08C3009F496C18D3009F463C279
:1022200086C68A3509F4CDC438F4813509F4BDC4B5
:10223000823509F4C0C47BC6843609F42CC68536C1
:1022400009F432C674C6E0E0F8E010828CE08187C1
:10225000EEE3F8E2848995898093302790933127C3
:10226000808D918D80932E2790932F27848D958D2F
:1022700080932C2790932D2780A191A1A2A1B3A197
:1022800080936D2790936E27A0936F27B09370274C
:1022900080A591A5A2A5B3A580933E2790933F2743
:1022A000A0934027B093412784A595A5A6A5B7A5DF
:1022B00080933A2790933B27A0933C27B0933D27E8
:1022C0008189813031F4E0E2F7E0848180618483A8
:1022D00005C0E0E2F7E084818F7E848380915028FE
:1022E000813031F4E0E2F7E084818460848305C0CA
:1022F000E0E2F7E084818B7F8483809151288130F4
:1023000031F4E0E2F7E084818160848305C0E0E29B
:10231000F7E084818E7F8483EEE3F8E284A195A1C7
:10232000A6A1B7A18093942790939527A093962771
:10233000B093972780A991A9A2A9B3A980938427D4
:1023400090938527A0938627B093872784A995A982
:10235000A6A9B7A98093802790938127A09382276D
:10236000B093832785819681A781B085809390273C
:1023700090939127A0939227B0939327818592857C
:10238000A385B48580938C2790938D27A0938E2767
:10239000B0938F2785859685A785B08980938827F8
:1023A00090938927A0938A27B0938B271092422776
:1023B0001092432710924427109245270E94C50B84
:1023C0008FEF9FEF8093280890932908B0C5E0E035
:1023D000F8E010828CE08187EEE3F8E28489958949
:1023E0008093302790933127808D918D80932E2775
:1023F00090932F27848D958D80932C2790932D2754
:1024000060A171A182A193A160936D2770936E2743
:1024100080936F27909370272189213031F4E0E277
:10242000F7E024812061248305C0E0E2F7E0248105
:102430002F7E248320915028213031F4E0E2F7E010
:1024400024812460248305C0E0E2F7E024812B7F0F
:10245000248320915128213031F4E0E2F7E02481F7
:102460002160248305C0E0E2F7E024812E7F2483ED
:102470001092842710928527109286271092872722
:102480001092802710928127109282271092832722
:10249000EEE3F8E2058116812781308500939027CD
:1024A00010939127209392273093932701851285CB
:1024B0002385348500938C2710938D2720938E27B6
:1024C00030938F27058516852785308900938827C7
:1024D0001093892720938A2730938B276093422774
:1024E0007093432780934427909345271092392770
:1024F000109238270E94A73E9B01AC0160E070E07B
:102500008AE796E40E94FD3D60932827709329276F
:1025100080932A2790932B270E94C50B20E030E060
:102520004AE754E4609128277091292780912A274F
:1025300090912B270E94333F0E94763E609328089B
:1025400070932908F4C48091482781110EC090919E
:10255000472791110AC09091462721E0911101C0AF
:1025600020E02093F926992399F090914727911123
:1025700007C021E090914627911103C020E001C0DF
:1025800021E0922F8111FECF9111FCCF2093F926EB
:1025900080917F27811106C0E0E2F7E084818F7E81
:1025A000848307C0813029F4E0E2F7E08481806110
:1025B000848380917E27811106C0E0E2F7E0848168
:1025C0008B7F848307C0813029F4E0E2F7E08481C7
:1025D0008460848380917D27811106C0E0E2F7E06A
:1025E00084818E7F848307C0813029F4E0E2F7E0A4
:1025F00084818160848380E49FE1A0E0B0E08093E7
:102600006D2790936E27A0936F27B09370278093C8
:10261000422790934327A0934427B09345271092D5
:1026200039271092382780E090E0A0E0B0E4809352
:10263000282790932927A0932A27B0932B2721E0BE
:102640002093F42688EE93E08093302790933127EF
:1026500080932E2790932F2780932C2790932D27BC
:102660008FEF9FEFAFEFBFE7809390279093912775
:10267000A0939227B093932780938C2790938D27D4
:10268000A0938E27B0938F278093882790938927D4
:10269000A0938A27B0938B270E94C50B20E030E0DF
:1026A0004AE754E4609128277091292780912A27CE
:1026B00090912B270E94333F0E94763E609328081A
:1026C0007093290888E0E8EDF0E2A7E5B9E201900F
:1026D0000D928A95E1F781E080938C28E0EAF6E09C
:1026E0008481816084838091AC279091AD27A091F3
:1026F000AE27B091AF278093A0279093A127A093F6
:10270000A227B093A3278091A8279091A927A091F1
:10271000AA27B091AB2780939C2790939D27A093E5
:102720009E27B0939F278091A4279091A527A091E1
:10273000A627B091A7278093982790939927A093D5
:102740009A27B0939B27F3C38091482781110EC02D
:102750009091472791110AC09091462721E091114D
:1027600001C020E02093F926992399F09091472702
:10277000911107C021E090914627911103C020E0FC
:1027800001C021E0922F8111FECF9111FCCF209347
:10279000F9260091A0271091A1272091A22730911E
:1027A000A327C090AC27D090AD27E090AE27F09043
:1027B000AF270C151D052E053F052CF4E0E2F7E0D0
:1027C00084818F7E8483C016D106E206F3062CF442
:1027D000E0E2F7E084818061848340909C27509000
:1027E0009D2760909E2770909F274091A827509129
:1027F000A9276091AA277091AB2744165506660653
:1028000077062CF4E0E2F7E084818B7F8483441523
:102810005505660577052CF4E0E2F7E084818460D5
:1028200084838090982790909927A0909A27B090C1
:102830009B278091A4279091A527A091A627B091CE
:10284000A72788169906AA06BB062CF4E091240750
:10285000EE7FE093240788159905AA05BB052CF4A3
:10286000E0912407E160E0932407C01AD10AE20A4C
:10287000F30A970186013AF40027112798010C19F1
:102880001D092E093F0968017901009390271093D3
:10289000912720939227309393274419550966096D
:1028A00077098A019B013AF4002711279801041B3C
:1028B000150B260B370B2801390100938C27109339
:1028C0008D2720938E2730938F2788199909AA097D
:1028D000BB09AC01BD013AF444275527BA01481B96
:1028E000590B6A0B7B0B49835A836B837C83409320
:1028F00088275093892760938A2770938B274C14DD
:102900005D046E047F049CF54C155D056E057F0526
:1029100074F5EDEBF7E285819681A781B085809310
:102920006D2790936E27A0936F27B09370278185B2
:102930009285A385B4858093512790935227A093C5
:102940005327B093542785859685A785B0898093B2
:102950004D2790934E27A0934F27B0935027C092B6
:102960009427D0929527E0929627F0929727C41447
:10297000D504E604F704BCF589819A81AB81BC815A
:1029800084159505A605B70574F5EDEBF7E280A96A
:1029900091A9A2A9B3A980936D2790936E27A093C4
:1029A0006F27B093702784A995A9A6A9B7A980938A
:1029B000512790935227A0935327B093542780AD6B
:1029C00091ADA2ADB3AD80934D2790934E27A093C8
:1029D0004F27B093502740929427509295276092AA
:1029E00096277092972789819A81AB81BC81C816FE
:1029F000D906EA06FB060CF041C0481659066A06DD
:102A00007B06E4F58091182890911928A0911A2846
:102A1000B0911B2880936D2790936E27A0936F270A
:102A2000B093702780911C2890911D28A0911E289A
:102A3000B0911F288093512790935227A09353273A
:102A4000B09354278091202890912128A09122288A
:102A5000B091232880934D2790934E27A0934F2722
:102A6000B093502789819A81AB81BC818093942750
:102A700090939527A0939627B093972780906D27E2
:102A800090906E27A0906F27B090702718141904AB
:102A90001A041B040CF052C0609194277091952782
:102AA00080919627909197270E94A73E6D837E8301
:102AB0008F839887C701B6010E94A73E2D813E8172
:102AC0004F8158850E94FD3D20E030E04AE754E404
:102AD0000E94333F0E94763E6093302770933127E7
:102AE000C301B2010E94A73E2D813E814F815885CE
:102AF0000E94FD3D20E030E04AE754E40E94333F6D
:102B00000E94763E60932E2770932F2769817A81E9
:102B10008B819C810E94A73E2D813E814F815885EB
:102B20000E94FD3D20E030E04AE754E40E94333F3C
:102B30000E94763E60932C2770932D278092422727
:102B400090924327A0924427B092452710923927AC
:102B500010923827C501B4010E94A73E9B01AC0129
:102B600060E070E08AE796E40E94FD3D60932827CC
:102B70007093292780932A2790932B270E94C50BB7
:102B800020E030E04AE754E460912827709129273B
:102B900080912A2790912B270E94333F0E94763EF6
:102BA0006093280870932908C2C1E0E0F7E08481AF
:102BB00084608483BCC1E0E0F7E084818B7F848300
:102BC000B6C180913E2890913F288093EB26909348
:102BD000EC260E9491076093E7267093E826809385
:102BE000E9269093EA269FEFA3ECB9E09150A0402C
:102BF000B040E1F700C0000000917B2810917C28D4
:102C000020917D2830917E286091E7267091E826FA
:102C10008091E9269091EA260617170728073907B9
:102C200050F040917628442359F0601771078207CD
:102C3000930708F410C120917628213009F00BC1C8
:102C40002AE04DED56E20E944F4080917F28882374
:102C500009F43FC06091E7267091E8268091E9264B
:102C60009091EA262AE030E040E050E00E94B03F38
:102C70002F5F90918028291760F5422F50E0BA010C
:102C8000615071094AF4292F30E0C901841B950B6A
:102C9000181619068CF019C0E22FF0E0E352F94D36
:102CA000A92FB0E0A352B94D2DED36E282918E935B
:102CB0002E173F07D9F7E7CFEDEDF6E28352994D96
:102CC00040E34193E817F907E1F7F901E352F94DC1
:102CD000108280917628811114C08091E72690910E
:102CE000E826A091E926B091EA260196A11DB11D22
:102CF0008093E7269093E826A093E926B093EA26EE
:102D000013C08091E7269091E826A091E926B09122
:102D1000EA260197A109B1098093E7269093E82656
:102D2000A093E926B093EA261092DC261092892817
:102D30006091E7267091E8268091E9269091EA2635
:102D40000E94D80AEFEFF3ED20E3E150F04020407D
:102D5000E1F700C000000E9491076093E72670939E
:102D6000E8268093E9269093EA268FEF93ECA9E07A
:102D700081509040A040E1F700C000008091EA2619
:102D80008F938091E9268F938091E8268F9380918D
:102D9000E7268F9380EE90E29F938F930E94954059
:102DA000E091DC26F0E0E352F94D208130E0205341
:102DB0003109C901880F991F220F331F220F331FBA
:102DC000220F331F820F931F8C599F4F0E94F607CB
:102DD000809141281F928F9380913F288F93EEE33B
:102DE000F8E280818F9387EF90E29F938F930E9408
:102DF000954080914E288F9380914D288F9380919C
:102E00004C288F9380914B288F9380914A288F93E1
:102E1000809149288F93809148288F9380914728EB
:102E20008F93809146288F93809145288F9380912E
:102E300044288F93809143288F9384E191E29F935C
:102E40008F930E9495400E94EB1081E08093DB26D7
:102E5000CDBFDEBF6CC01092DB26109289280E9485
:102E6000410420913E2830913F288091EB2690919B
:102E7000EC262817390709F45AC00E944104AEE332
:102E8000B8E22D913C918091EB269091EC26281789
:102E9000390799F74CC081E391E20E94A940109252
:102EA000BC271092892843C0E091DC26EF5FE093B5
:102EB000DC26F0E0E352F94D20812223D1F081E0BD
:102EC0008093DB261092892830E020533109C90114
:102ED000880F991F220F331F220F331F220F331F1A
:102EE000820F931F8C599F4F0E94F6070E94EB1090
:102EF0001EC01092DB26109289280E944104209166
:102F0000EB263091EC2680913E2890913F2828179F
:102F1000390769F00E944104EEE3F8E22081318133
:102F20008091EB269091EC262817390799F728967F
:102F3000CDBFDEBFDF91CF911F910F91FF90EF903A
:102F4000DF90CF90BF90AF909F908F907F906F90C9
:102F50005F904F9008952F923F924F925F926F92A1
:102F60007F928F929F92AF92BF92CF92DF92EF9219
:102F7000FF920F931F93CF93DF93CDB7DEB76E977A
:102F8000CDBFDEBF43E050E062E471E280E197E252
:102F90000E943640892B89F488E0E8E4F1E2A7E555
:102FA000B9E201900D928A95E1F781E080938C2837
:102FB000E0EAF6E084818160848343E050E060E5EC
:102FC00071E280E197E20E943640892B09F0BBC193
:102FD00080911327803311F00C94DC3380911427F7
:102FE000823309F496C0833309F421C1813311F08F
:102FF0000C94DC3380911527823309F440C030F4FF
:10300000803361F0813319F10C94DC33833309F49C
:103010004FC0843309F465C00C94DC338091FA26E8
:10302000882311F40C94DC338091080682FB8827F6
:1030300080F91F928F9384E591E29F938F930E9472
:1030400095400F900F900F900F900C94DC3380916F
:10305000FA26882311F40C94DC33809108068695B7
:1030600081701F928F9380E691E29F938F930E94CD
:1030700095400F900F900F900F900C94DC3380913F
:10308000FA26882311F40C94DC338091080685FB22
:10309000882780F91F928F938CE691E29F938F93FC
:1030A0000E9495400F900F900F900F900C94DC337E
:1030B0008091FA26882311F40C94DC338091080661
:1030C00083FB882780F91F928F9388E791E29F9373
:1030D0008F930E9495400F900F900F900F900C943B
:1030E000DC338091FA26882311F40C94DC33809130
:1030F0000806829581701F928F9384E891E29F93D6
:103100008F930E9495400F900F900F900F900C940A
:10311000DC3380911527823309F440C030F48033CA
:1031200061F0813311F10C94DC33833309F44FC027
:10313000843309F463C00C94DC338091FA2688232D
:1031400011F40C94DC3380912806869581701F92CF
:103150008F9380E991E29F938F930E9495400F9007
:103160000F900F900F900C94DC338091FA268823F7
:1031700011F40C94DC338091280682FB882780F9B7
:103180001F928F938CE991E29F938F930E949540B9
:103190000F900F900F900F900C94DC338091FA26D3
:1031A000882311F40C94DC338091280685FB882752
:1031B00080F91F928F9388EA91E29F938F930E94E8
:1031C00095400F900F900F900F900C94DC338091EE
:1031D000FA26882311F40C94DC3380912806817040
:1031E0001F928F9384EB91E29F938F930E9495405F
:1031F0000F900F900F900F900C94DC338091FA2673
:10320000882311F40C94DC338091280686FB8827F0
:1032100080F91F928F9380EC91E29F938F930E948D
:1032200095400F900F900F900F900C94DC3380918D
:1032300015278233F1F130F4803361F0813309F1E5
:103240000C94DC33833309F44DC0843309F463C038
:103250000C94DC338091FA26882311F40C94DC332F
:103260008091480681701F928F938CEC91E29F931E
:103270008F930E9495400F900F900F900F900C9499
:10328000DC338091FA26882311F40C94DC3380918E
:103290004806869581701F928F9388ED91E29F93E7
:1032A0008F930E9495400F900F900F900F900C9469
:1032B000DC338091FA26882311F40C94DC3380915E
:1032C000480686FB882780F91F928F9388EA91E24F
:1032D0009F938F930E9495400F900F900F900F90A7
:1032E0000C94DC338091FA26882311F40C94DC339F
:1032F0008091480685FB882780F91F928F9384EE82
:1033000091E29F938F930E9495400F900F900F90A2
:103310000F900C94DC338091FA26882311F40C94DE
:10332000DC3380914806829581701F928F9380EFE5
:1033300091E29F938F930E9495400F900F900F9072
:103340000F900C94DC3343E050E06CEF71E280E1CD
:1033500097E20E943640892B09F042C180911327E1
:10336000803311F00C94DC3380911427823309F4FC
:103370006FC0833309F4D4C0813311F00C94DC3373
:1033800080911527803321F0813391F10C94DC3347
:1033900080911627803389F4E0E0F6E084818F770E
:1033A00084838091FA26882341F080E092E29F9303
:1033B0008F930E9495400F900F9080911627813334
:1033C00011F00C94DC33E0E0F6E0848180688483C3
:1033D0008091FA26882311F40C94DC338AE092E27F
:1033E0009F938F930E9495400F900F900C94DC3325
:1033F00080911627803389F4E0E0F6E084818F7BAA
:1034000084838091FA26882341F084E192E29F939D
:103410008F930E9495400F900F90809116278133D3
:1034200011F00C94DC33E0E0F6E084818064848366
:103430008091FA26882311F40C94DC338EE192E219
:103440009F938F930E9495400F900F900C94DC33C4
:1034500080911527803321F0813391F10C94DC3376
:1034600080911627803389F4E0E2F6E084818F773B
:1034700084838091FA26882341F088E292E29F9328
:103480008F930E9495400F900F9080911627813363
:1034900011F00C94DC33E0E2F6E0848180688483F0
:1034A0008091FA26882311F40C94DC3382E392E2B3
:1034B0009F938F930E9495400F900F900C94DC3354
:1034C00080911627803389F4E0E2F6E084818F7ED4
:1034D00084838091FA26882341F08CE392E29F93C3
:1034E0008F930E9495400F900F9080911627813303
:1034F00011F00C94DC33E0E2F6E084818061848397
:103500008091FA26882311F40C94DC3386E492E24D
:103510009F938F930E9495400F900F900C94DC33F3
:1035200080911527803321F0813391F10C94DC33A5
:1035300080911627803389F4E0E4F6E084818F7768
:1035400084838091FA26882341F080E592E29F935C
:103550008F930E9495400F900F9080911627813392
:1035600011F00C94DC33E0E4F6E08481806884831D
:103570008091FA26882311F40C94DC338AE592E2D8
:103580009F938F930E9495400F900F900C94DC3383
:1035900080911627803371F48091FA26882311F4E4
:1035A0000C94DC3384E692E29F938F930E949540C3
:1035B0000F900F9080911627813311F00C94DC331B
:1035C0008091FA26882311F40C94DC338EE692E283
:1035D0009F938F930E9495400F900F900C94DC3333
:1035E00043E050E068E772E280E197E20E943640F3
:1035F000892B09F0A4C080911327803311F00C941B
:10360000DC3380911427823309F441C0833309F4F9
:1036100077C0813311F00C94DC338091152780330F
:1036200021F08133D9F00C94DC338091FA26882381
:1036300011F40C94DC3380910406881F8827881FBE
:103640001F928F938CE792E29F938F930E949540F5
:103650000F900F900F900F900C94DC338091FA260E
:10366000882311F40C94DC338091040686FB8827B0
:1036700080F91F928F9388E892E29F938F930E9424
:1036800095400F900F900F900F900C94DC33809129
:103690001527803321F08133D9F00C94DC338091ED
:1036A000FA26882311F40C94DC3380912406881FB9
:1036B0008827881F1F928F9384E992E29F938F93AC
:1036C0000E9495400F900F900F900F900C94DC3358
:1036D0008091FA26882311F40C94DC33809124061F
:1036E000829581701F928F9380EA92E29F938F93CD
:1036F0000E9495400F900F900F900F900C94DC3328
:1037000080911527803311F00C94DC338091FA26D8
:10371000882311F40C94DC3380914406881F882799
:10372000881F1F928F938CEA92E29F938F930E943F
:1037300095400F900F900F900F900C94DC3343E066
:1037400050E068EB72E280E197E20E943640892BFC
:1037500009F0CDC08091BC2781110C94DC3380919D
:103760001327803311F00C94DC33809114278233BB
:1037700009F445C0833309F480C0813311F00C94FF
:10378000DC33E5E1F7E2ABEFB6E223E237E2819129
:103790008D93E217F307D9F78EE0809325271092D7
:1037A0000F278BEF96E20E940F406093B82770932B
:1037B000B9278093BA279093BB270F2EFBEF8F2E4C
:1037C000F6E29F2EF02D9F928F928CEB92E29F93C8
:1037D0008F9387E599E29F938F930E94D94081E070
:1037E00080938C28E0EAF6E08481816084830F90E6
:1037F0000F900F900F900F900F900C94DC33E5E139
:10380000F7E2ABEFB6E22FE137E281918D93E21759
:10381000F307D9F78AE080932527109205278BEFCD
:1038200096E20E940F406093B4277093B52780936F
:10383000B6279093B7270F2EFBEFCF2EF6E2DF2EA1
:10384000F02DDF92CF9287EC92E29F938F9387E5E2
:1038500099E29F938F930E94D94081E080938C28B6
:10386000E0EAF6E08481816084830F900F900F90EE
:103870000F900F900F900C94DC33E5E1F7E2ABEF83
:10388000B6E22FE137E281918D93E217F307D9F782
:103890008AE080932527109205278BEF96E20E94FD
:1038A0000F406093B0277093B1278093B227909315
:1038B000B3270BEF16E21F930F9382ED92E29F93D3
:1038C0008F9387E599E29F938F930E94D94081E07F
:1038D00080938C28E0EAF6E08481816084830F90F5
:1038E0000F900F900F900F900F900C94DC3343E0EB
:1038F00050E06DED72E280E197E20E943640892B44
:1039000009F0A1C080911327803311F00C94DC33AF
:10391000809114278233B9F1833309F464C0813371
:1039200011F00C94DC33EBEFF6E285E097E21192B4
:103930008E179F07E1F78AE08093252710920527CD
:103940006091B8277091B9278091BA279091BB27D1
:103950002AE04BEF56E20E944F408091FA268823DE
:1039600011F40C94DC338BEF96E29F938F9381EEEE
:1039700092E29F938F930E9495400F900F900F902B
:103980000F900C94DC33EBEFF6E285E097E21192B6
:10399000E817F907E1F78AE08093252710920527B9
:1039A0006091B4277091B5278091B6279091B72781
:1039B0002AE04BEF56E20E944F408091FA2688237E
:1039C00011F40C94DC338BEF96E29F938F938CEE83
:1039D00092E29F938F930E9495400F900F900F90CB
:1039E0000F900C94DC33EBEFF6E285E097E2119256
:1039F0008E179F07E1F78AE080932527109205270D
:103A00006091B0277091B1278091B2279091B32730
:103A10002AE04BEF56E20E944F408091FA2688231D
:103A200011F40C94DC338BEF96E29F938F9387EF26
:103A300092E29F938F930E9495400F900F900F906A
:103A40000F900C94DC3343E050E062E073E280E1DD
:103A500097E20E943640892B09F04CC78091482795
:103A600081110C9495339091472791110C94BF3399
:103A70002091462791E0211101C090E09093F92612
:103A80009091BC2791110C94DC33222399F09091F2
:103A90004727911107C021E090914627911103C05B
:103AA00020E001C021E0922F8111FECF9111FCCFC7
:103AB0002093F92680911327803309F08FC48091D9
:103AC0001427823309F488C1833309F406C3813390
:103AD00011F00C94DC334091B8275091B9276091D4
:103AE000BA277091BB278091AC279091AD27A09108
:103AF000AE27B091AF27481759076A077B072CF408
:103B0000E0E2F7E024812F7E248384179507A6073F
:103B1000B7072CF4E0E2F7E0248120612483C09011
:103B20007927D0907A27E0907B27F0907C27C0926D
:103B30006D27D0926E27E0926F27F09270278090C9
:103B4000692790906A27A0906B27B0906C27898294
:103B50009A82AB82BC828092512790925227A09287
:103B60005327B092542780905D2790905E27A090B5
:103B70005F27B090602780924D2790924E27A092A9
:103B80004F27B0925027841B950BA60BB70B2C0127
:103B90003D013AF4442455243201481A590A6A0A6C
:103BA0007B0A4092942750929527609296277092B4
:103BB000972788EE93E080933027909331271092D7
:103BC00042271092432710924427109245278FEFE7
:103BD0009FEF8093280890932908C701B6010E949F
:103BE000A73E20E030E048EC52E40E94333F6D8372
:103BF0007E838F83988769817A818B819C810E94E3
:103C0000A73E9B01AC016D817E818F8198850E94CA
:103C1000FD3D0E946F3E9B01AC01C701B6010E94B1
:103C2000D23F20933E2730933F2740934027509325
:103C30004127C501B4010E94A73E9B01AC016D81E3
:103C40007E818F8198850E94FD3D0E946F3E9B0181
:103C5000AC01C701B6010E94D23F20933A273093AE
:103C60003B2740933C2750933D27A7019601C7016E
:103C7000B6010E94A03F6D837E838F839887A50144
:103C800094010E94D23F69017A01209380273093EA
:103C9000812740938227509383276D817E818F8176
:103CA000988529813A814B815C810E94D23F4601EF
:103CB0005701820E931EA41EB51E80924927909232
:103CC0004A27A0924B27B0924C2784149504A6044F
:103CD000B704CCF1C301B2010E94A73E69837A8385
:103CE0008B839C83C501B4010E94A73E9B01AC015C
:103CF00069817A818B819C810E94FD3D4B015C0131
:103D0000C701B6010E94A73E9B01AC01C501B401E9
:103D10000E94333F0E946F3E6093802770938127FB
:103D2000809382279093832763015201A61AB70AD2
:103D3000C80AD90AA0928427B0928527C092862704
:103D4000D09287270EC0D301C201821B930BA40B14
:103D5000B50B8093842790938527A0938627B093F3
:103D600087278091AC279091AD27A091AE27B09185
:103D7000AF274091B8275091B9276091BA27709129
:103D8000BB27841B950BA60BB70BAC01BD013AF406
:103D900044275527BA01481B590B6A0B7B0B4093EC
:103DA000902750939127609392277093932781E0F7
:103DB0008093392798E0E6E0F3E2A7E5B9E20190C5
:103DC0000D929A95E1F780938C28E0EAF6E08481E1
:103DD000816084830C94DC334091B4275091B527E3
:103DE0006091B6277091B7278091A8279091A92755
:103DF000A091AA27B091AB27481759076A077B07FC
:103E00002CF4E0E2F7E024812B7F248384179507CC
:103E1000A607B7072CF4E0E2F7E0248124602483AE
:103E2000C0907527D0907627E0907727F09078277C
:103E3000C0926D27D0926E27E0926F27F092702784
:103E40008090652790906627A0906727B09068279C
:103E500089829A82AB82BC828092512790925227AB
:103E6000A0925327B09254278090592790905A27B8
:103E7000A0905B27B0905C2780924D2790924E27B0
:103E8000A0924F27B0925027841B950BA60BB70B1F
:103E90002C013D013AF4442455243201481A590AB0
:103EA0006A0A7B0A4092942750929527609296273F
:103EB0007092972788EE93E080932E2790932F2778
:103EC00010924227109243271092442710924527C0
:103ED0008FEF9FEF8093280890932908C701B601C0
:103EE0000E94A73E20E030E048EC52E40E94333FBD
:103EF0006D837E838F83988769817A818B819C8192
:103F00000E94A73E9B01AC016D817E818F819885C7
:103F10000E94FD3D0E946F3E9B01AC01C701B601AE
:103F20000E94D23F20933E2730933F274093402763
:103F300050934127C501B4010E94A73E9B01AC01EB
:103F40006D817E818F8198850E94FD3D0E946F3E2C
:103F50009B01AC01C701B6010E94D23F20933A27D2
:103F600030933B2740933C2750933D27A701960170
:103F7000C701B6010E94A03F6D837E838F8398871F
:103F8000A50194010E94D23F69017A012093802704
:103F90003093812740938227509383276D817E81C0
:103FA0008F81988529813A814B815C810E94D23F23
:103FB00046015701820E931EA41EB51E809249270A
:103FC00090924A27A0924B27B0924C2784149504D4
:103FD000A604B704CCF1C301B2010E94A73E6983D5
:103FE0007A838B839C83C501B4010E94A73E9B0109
:103FF000AC0169817A818B819C810E94FD3D4B01DE
:104000005C01C701B6010E94A73E9B01AC01C5013E
:10401000B4010E94333F0E946F3E609380277093EB
:104020008127809382279093832763015201A61AE8
:10403000B70AC80AD90AA0928427B0928527C092ED
:104040008627D09287270EC0D301C201821B930B13
:10405000A40BB50B8093842790938527A093862784
:10406000B09387278091A8279091A927A091AA278C
:10407000B091AB274091B4275091B5276091B627F6
:104080007091B727841B950BA60BB70BAC01BD0134
:104090003AF444275527BA01481B590B6A0B7B0B8E
:1040A00040938C2750938D2760938E2770938F2792
:1040B00081E08093392798E0EEE0F3E2A7E5B9E2EA
:1040C00001900D929A95E1F780938C28E0EAF6E052
:1040D0008481816084830C94DC334091B0275091BB
:1040E000B1276091B2277091B3278091A427909156
:1040F000A527A091A627B091A727481759076A07B7
:104100007B072CF4E0E2F7E024812E7F24838417E0
:104110009507A607B7072CF4E0E2F7E024812160B9
:104120002483C0907127D0907227E0907327F0907D
:104130007427C0926D27D0926E27E0926F27F0927D
:1041400070278090612790906227A0906327B0909D
:10415000642789829A82AB82BC8280925127909296
:104160005227A0925327B0925427809055279090C1
:104170005627A0905727B090582780924D279092AD
:104180004E27A0924F27B0925027841B950BA60B69
:10419000B70B2C013D013AF4442455243201481A4E
:1041A000590A6A0A7B0A4092942750929527609296
:1041B00096277092972788EE93E080932C27909310
:1041C0002D271092422710924327109244271092D5
:1041D00045278FEF9FEF8093280890932908C70108
:1041E000B6010E94A73E20E030E048EC52E40E9475
:1041F000333F6D837E838F83988769817A818B813A
:104200009C810E94A73E9B01AC016D817E818F81C4
:1042100098850E94FD3D0E946F3E9B01AC01C70145
:10422000B6010E94D23F20933E2730933F27409310
:10423000402750934127C501B4010E94A73E9B012E
:10424000AC016D817E818F8198850E94FD3D0E9429
:104250006F3E9B01AC01C701B6010E94D23F209383
:104260003A2730933B2740933C2750933D27A701A3
:104270009601C701B6010E94A03F6D837E838F83A4
:104280009887A50194010E94D23F69017A01209389
:1042900080273093812740938227509383276D8115
:1042A0007E818F81988529813A814B815C810E9432
:1042B000D23F46015701820E931EA41EB51E809266
:1042C000492790924A27A0924B27B0924C278414FA
:1042D0009504A604B704CCF1C301B2010E94A73E25
:1042E00069837A838B839C83C501B4010E94A73EB6
:1042F0009B01AC0169817A818B819C810E94FD3D8B
:104300004B015C01C701B6010E94A73E9B01AC01B5
:10431000C501B4010E94333F0E946F3E6093802725
:1043200070938127809382279093832763015201A2
:10433000A61AB70AC80AD90AA0928427B09285277C
:10434000C0928627D09287270EC0D301C201821B5C
:10435000930BA40BB50B8093842790938527A09390
:104360008627B09387278091A4279091A527A091B5
:10437000A627B091A7274091B0275091B12760910F
:10438000B2277091B327841B950BA60BB70BAC011A
:10439000BD013AF444275527BA01481B590B6A0B53
:1043A0007B0B409388275093892760938A277093CB
:1043B0008B2781E08093392798E0E6E1F3E2A7E5D7
:1043C000B9E201900D929A95E1F780938C28E0EA8A
:1043D000F6E08481816084830C94DC33813309F0BE
:1043E0004BC0809114278233D9F0833379F1813324
:1043F00011F00C94DC3381E08093002098E0EEE132
:10440000F3E2A7E5B9E201900D929A95E1F7809366
:104410008C28E0EAF6E08481816084830C94DC33AC
:1044200082E08093002088E0E6E2F3E2A7E5B9E2CB
:1044300001900D928A95E1F781E080938C28E0EA63
:10444000F6E08481816084830C94DC3383E0809384
:10445000002088E0EEE2F3E2A7E5B9E201900D92D8
:104460008A95E1F781E080938C28E0EAF6E0848188
:10447000816084830C94DC33823309F0EEC1809137
:104480001427823309F4A7C0833309F445C181336B
:1044900011F00C94DC33E0E2F7E0848180618483E6
:1044A000C0907927D0907A27E0907B27F0907C27E6
:1044B000C0926D27D0926E27E0926F27F0927027FE
:1044C0008090692790906A27A0906B27B0906C2706
:1044D0008092512790925227A0925327B09254274E
:1044E00040905D2750905E2760905F277090602716
:1044F00040924D2750924E2760924F27709250273E
:104500001092422710924327109244271092452779
:104510008FEF9FEF8093280890932908C701B60179
:104520000E94A73E20E030E048EC52E40E94333F76
:1045300069837A838B839C83C501B4010E94A73E63
:104540009B01AC0169817A818B819C810E94FD3D38
:104550000E946F3E9B01AC01C701B6010E94D23F91
:1045600020933E2730933F27409340275093412785
:10457000C301B2010E94A73E9B01AC0169817A810F
:104580008B819C810E94FD3D0E946F3E9B01AC018E
:10459000C701B6010E94D23F20933A2730933B27B0
:1045A00040933C2750933D2781E08093ED268093F4
:1045B000392798E0E6E0F3E2A7E5B9E201900D9231
:1045C0009A95E1F780938C28E0EAF6E08481816097
:1045D00084830C94DC33E0E2F7E08481846084839C
:1045E000C0907527D0907627E0907727F0907827B5
:1045F000C0926D27D0926E27E0926F27F0927027BD
:1046000040906527509066276090672770906827D4
:10461000409251275092522760925327709254270C
:104620008090592790905A27A0905B27B0905C27E4
:1046300080924D2790924E27A0924F27B0925027FC
:104640001092422710924327109244271092452738
:104650008FEF9FEF8093280890932908C701B60138
:104660000E94A73E20E030E048EC52E40E94333F35
:1046700069837A838B839C83C301B2010E94A73E26
:104680009B01AC0169817A818B819C810E94FD3DF7
:104690000E946F3E9B01AC01C701B6010E94D23F50
:1046A00020933E2730933F27409340275093412744
:1046B000C501B4010E94A73E9B01AC0169817A81CA
:1046C0008B819C810E94FD3D0E946F3E9B01AC014D
:1046D000C701B6010E94D23F20933A2730933B276F
:1046E00040933C2750933D2782E08093ED2681E064
:1046F0008093392798E0EEE0F3E2A7E5B9E2019074
:104700000D929A95E1F780938C28E0EAF6E0848197
:10471000816084830C94DC33E0E2F7E08481816083
:104720008483C0907127D0907227E0907327F09017
:104730007427C0926D27D0926E27E0926F27F09277
:104740007027409061275090622760906327709097
:1047500064274092512750925227609253277092BB
:1047600054278090552790905627A0905727B090B7
:10477000582780924D2790924E27A0924F27B092B3
:1047800050271092422710924327109244271092EC
:1047900045278FEF9FEF8093280890932908C70142
:1047A000B6010E94A73E20E030E048EC52E40E94AF
:1047B000333F69837A838B839C83C301B2010E9458
:1047C000A73E9B01AC0169817A818B819C810E940B
:1047D000FD3D0E946F3E9B01AC01C701B6010E94E6
:1047E000D23F20933E2730933F274093402750935A
:1047F0004127C501B4010E94A73E9B01AC0169811C
:104800007A818B819C810E94FD3D0E946F3E9B01BD
:10481000AC01C701B6010E94D23F20933A273093E2
:104820003B2740933C2750933D2783E08093ED2620
:1048300081E08093392798E0E6E1F3E2A7E5B9E269
:1048400001900D929A95E1F780938C28E0EAF6E0CA
:104850008481816084830C94DC33833311F00C9465
:10486000DC33809114278233D9F0833371F18133A3
:1048700011F00C94DC3381E08093382798E0E6E374
:10488000F3E2A7E5B9E201900D929A95E1F78093E2
:104890008C28E0EAF6E08481816084830C94DC3328
:1048A00081E08093382798E0EEE3F3E2A7E5B9E2F0
:1048B00001900D929A95E1F780938C28E0EAF6E05A
:1048C0008481816084830C94DC3381E08093382779
:1048D00098E0E6E4F3E2A7E5B9E201900D929A953B
:1048E000E1F780938C28E0EAF6E08481816084839C
:1048F0000C94DC3343E050E06EE473E280E197E235
:104900000E943640892B09F05DC08091BC2781113F
:104910000C94DC3380911327803311F00C94DC333A
:10492000809114278233F1F08333A1F1813311F0A8
:104930000C94DC33109290271092912710929227BA
:10494000109293278091FA26882311F40C94DC337B
:1049500082E593E29F938F930E9495400F900F9072
:104960000C94DC3310928C2710928D2710928E2796
:1049700010928F278091FA26882311F40C94DC334F
:104980008AE593E29F938F930E9495400F900F903A
:104990000C94DC33109288271092892710928A2772
:1049A00010928B278091FA26882311F40C94DC3323
:1049B00082E693E29F938F930E9495400F900F9011
:1049C0000C94DC3343E050E06AE673E280E197E266
:1049D0000E943640892B09F07DC0809113278033D7
:1049E00011F00C94DC3380911427823359F1833316
:1049F00009F44CC0813311F00C94DC3360919027A2
:104A00007091912780919227909193272AE030E02E
:104A10004BEF56E20E9444408091FA26882311F41D
:104A20000C94DC338BEF96E29F938F938EE693E2A8
:104A30009F938F930E9495400F900F900F900F902F
:104A40000C94DC3360918C2770918D2780918E2798
:104A500090918F272AE030E04BEF56E20E944440CD
:104A60008091FA26882311F40C94DC338BEF96E2C4
:104A70009F938F9389E793E29F938F930E94954032
:104A80000F900F900F900F900C94DC33609188275B
:104A90007091892780918A2790918B272AE030E0B6
:104AA0004BEF56E20E9444408091FA26882311F48D
:104AB0000C94DC338BEF96E29F938F9384E893E220
:104AC0009F938F930E9495400F900F900F900F909F
:104AD0000C94DC3343E050E06FE873E280E197E24E
:104AE0000E943640892B09F095C0809113278033AE
:104AF00011F00C94DC3380911427823399F18333C5
:104B000009F45CC0813311F00C94DC336091AC2764
:104B10007091AD278091AE279091AF272AE030E0C9
:104B20004BEF56E20E9444408BEF96E29F938F93A7
:104B300083E993E29F938F9387E599E29F938F9305
:104B40000E94D94081E080938C28E0EAF6E08481DD
:104B5000816084830F900F900F900F900F900F90B3
:104B60000C94DC336091A8277091A9278091AA2723
:104B70009091AB272AE030E04BEF56E20E94444090
:104B80008BEF96E29F938F938EE993E29F938F939F
:104B900087E599E29F938F930E94D94081E08093AB
:104BA0008C28E0EAF6E08481816084830F900F9086
:104BB0000F900F900F900F900C94DC336091A4270E
:104BC0007091A5278091A6279091A7272AE030E031
:104BD0004BEF56E20E9444408BEF96E29F938F93F7
:104BE00089EA93E29F938F9387E599E29F938F934E
:104BF0000E94D94081E080938C28E0EAF6E084812D
:104C0000816084830F900F900F900F900F900F9002
:104C10000C94DC3343E050E064EB73E280E197E214
:104C20000E943640892B09F08EC08091BC278111EB
:104C30000C94DC3380911327803311F00C94DC3317
:104C400080911427823379F1833309F454C081337E
:104C500011F00C94DC33109290271092912710924F
:104C60009227109293278091AC279091AD27A09125
:104C7000AE27B091AF278093B8279093B927A09320
:104C8000BA27B093BB278091FA26882311F40C949D
:104C9000DC3382E593E29F938F930E9495400F90BF
:104CA0000F900C94DC3310928C2710928D27109269
:104CB0008E2710928F278091A8279091A927A091E5
:104CC000AA27B091AB278093B4279093B527A093E0
:104CD000B627B093B7278091FA26882311F40C9455
:104CE000DC338AE593E29F938F930E9495400F9067
:104CF0000F900C94DC331092882710928927109221
:104D00008A2710928B278091A4279091A527A091A4
:104D1000A627B091A7278093B0279093B127A0939F
:104D2000B227B093B3278091FA26882311F40C940C
:104D3000DC3382E693E29F938F930E9495400F901D
:104D40000F900C94DC3343E050E068EB73E280E1B9
:104D500097E20E943640892B09F0CAC090914827FB
:104D600091110C949F338091472781110C94C93382
:104D70008091462721E0811101C020E02093F9268F
:104D80002091BC2721110C94DC33882399F0809169
:104D90004727811107C081E020914627211103C0D8
:104DA00080E001C081E0282F9111FECF2111FCCFBE
:104DB0008093F92680911327803311F00C94DC3313
:104DC000809114278233B1F1833309F462C08133B7
:104DD00011F00C94DC3380E0282F30E0F901E5502D
:104DE000F94DD901A05FB84D15969C9190838F5FC6
:104DF0008A3090F380932527109205278BEF96E257
:104E00000E940F406093AC277093AD278093AE272C
:104E10009093AF278091FA26882311F40C94DC3309
:104E20008CEB93E29F938F930E9495400F900F908D
:104E30000C94DC3380E0282F30E0F901E550F94D87
:104E4000D901A05FB84D15969C9190838F5F8A30F1
:104E500090F380932527109205278BEF96E20E940E
:104E60000F406093A8277093A9278093AA27909357
:104E7000AB278091FA26882311F40C94DC3384EC60
:104E800093E29F938F930E9495400F900F900C9404
:104E9000DC3380E0282F30E0F901E550F94DD901ED
:104EA000A05FB84D15969C9190838F5F8A3090F3E8
:104EB00080932527109205278BEF96E20E940F40E2
:104EC0006093A4277093A5278093A6279093A72784
:104ED0008091FA26882311F40C94DC338CEC93E255
:104EE0009F938F930E9495400F900F900C94DC330A
:104EF00043E050E064ED73E280E197E20E943640C7
:104F0000892B81F59091482791110C94A9338091B8
:104F1000472781110C94D3338091462721E08111DA
:104F200001C020E02093F9262091BC2721110C9488
:104F3000DC33882311F40C94DC33809147278111F2
:104F400007C081E020914627211103C080E001C005
:104F500081E0282F9111FECF2111FCCF8093F926FB
:104F60000C94DC3343E050E068ED73E280E197E2BB
:104F70000E943640892B09F0EBC0809148278111AF
:104F80000C94B3338091472781110C94B33391E093
:104F900020914627211101C090E09093F92621E04D
:104FA0003091BC27311120E0921710F00C94DC33C3
:104FB00090911327903311F00C94DC3390911427C7
:104FC000923309F449C0933309F484C0913311F04A
:104FD0000C94DC33282F30E0F901E550F94DD9016C
:104FE000A05FB84D15969C9190838F5F8A3090F3A7
:104FF00080932527109205278BEF96E20E940B40A5
:105000000E946F3E6093792770937A2780937B2765
:1050100090937C270F2EFBEFCF2EF6E2DF2EF02DA4
:10502000DF92CF928CED93E29F938F9387E599E285
:105030009F938F930E94D94081E080938C28E0EA6F
:10504000F6E08481816084830F900F900F900F9021
:105050000F900F900C94DC33282F30E0F901E550CD
:10506000F94DD901A05FB84D15969C9190838F5F43
:105070008A3090F380932527109205278BEF96E2D4
:105080000E940B400E946F3E6093752770937627B5
:1050900080937727909378270BEF16E21F930F9357
:1050A00087EE93E29F938F9387E599E29F938F9387
:1050B0000E94D94081E080938C28E0EAF6E0848168
:1050C000816084830F900F900F900F900F900F903E
:1050D0000C94DC33282F30E0F901E550F94DD9016B
:1050E000A05FB84D15969C9190838F5F8A3090F3A6
:1050F00080932527109205278BEF96E20E940B40A4
:105100000E946F3E6093712770937227809373277C
:10511000909374274BEF56E25F934F9382EF93E2A5
:105120009F938F9387E599E29F938F930E94D94035
:1051300081E080938C28E0EAF6E0848181608483BA
:105140000F900F900F900F900F900F900C94DC33F6
:1051500043E050E06DEF73E280E197E20E94364059
:10516000892B09F052C080911327803311F00C94E1
:10517000DC33809114278233E1F0833381F1813372
:1051800011F00C94DC338091FA26882311F40C94EE
:10519000DC33809148271F928F9381E094E29F93A4
:1051A0008F930E9495400F900F900F900F900C944A
:1051B000DC338091FA26882311F40C94DC3380913F
:1051C00047271F928F938CE094E29F938F930E94C6
:1051D00095400F900F900F900F900C94DC338091BE
:1051E000FA26882311F40C94DC33809146271F9211
:1051F0008F9387E194E29F938F930E9495400F9045
:105200000F900F900F900C94DC3343E050E062E27B
:1052100074E280E197E20E943640892B09F071C068
:1052200080911327803311F00C94DC338091142784
:10523000823339F1833309F444C0813311F00C9483
:10524000DC338091FA26882311F40C94DC338091AE
:105250007C278F9380917B278F9380917A278F93E0
:10526000809179278F9386E294E29F938F930E9497
:1052700095400F900F900F900F900F900F900C94FF
:10528000DC338091FA26882311F40C94DC3380916E
:1052900078278F93809177278F93809176278F93AC
:1052A000809175278F938FE294E29F938F930E9452
:1052B00095400F900F900F900F900F900F900C94BF
:1052C000DC338091FA26882311F40C94DC3380912E
:1052D00074278F93809173278F93809172278F9378
:1052E000809171278F9388E394E29F938F930E941C
:1052F00095400F900F900F900F900F900F900C947F
:10530000DC3343E050E061E474E280E197E20E9424
:105310003640892B09F0EFC08091482781110C9409
:10532000B7338091472781110C94B73391E02091D6
:105330004627211101C090E09093F92621E0309199
:10534000BC27311120E0921710F00C94DC339091BF
:105350001327903311F00C94DC339091142792337F
:1053600009F445C0933309F484C0913311F00C94CF
:10537000DC33282F30E0F901E550F94DD901A05F69
:10538000B84D15969C9190838F5F8A3090F38093EF
:105390002527109205278BEF96E20E940B400E9472
:1053A0006F3E6093692770936A2780936B27909371
:1053B0006C27ABEFB6E2BF93AF9385E494E29F9383
:1053C0008F9387E599E29F938F930E94D94081E064
:1053D00080938C28E0EAF6E08481816084830F90DA
:1053E0000F900F900F900F900F900C94DC33282F9C
:1053F00030E0F901E550F94DD901A05FB84D15969F
:105400009C9190838F5F8A3090F380932527109230
:1054100005278BEF96E20E940B400E946F3E60933F
:1054200065277093662780936727909368270F2ED0
:10543000FBEFAF2EF6E2BF2EF02DBF92AF9280E5CC
:1054400094E29F938F9387E599E29F938F930E94B5
:10545000D94081E080938C28E0EAF6E08481816085
:1054600084830F900F900F900F900F900F900C94DB
:10547000DC33282F30E0F901E550F94DD901A05F68
:10548000B84D15969C9190838F5F8A3090F38093EE
:105490002527109205278BEF96E20E940B400E9471
:1054A0006F3E609361277093622780936327909388
:1054B00064270F2EFBEFEF2EF6E2FF2EF02DFF926A
:1054C000EF928BE594E29F938F9387E599E29F9308
:1054D0008F930E94D94081E080938C28E0EAF6E027
:1054E0008481816084830F900F900F900F900F90B4
:1054F0000F900C94DC3343E050E066E674E280E108
:1055000097E20E943640892B09F0EEC0809148272F
:1055100081110C94BB338091472781110C94BB33CC
:105520009091462721E0911101C020E02093F926B7
:1055300031E04091BC27411130E0231710F00C946A
:10554000DC3320911327203311F00C94DC332091AD
:105550001427223309F445C0233309F480C02133D2
:1055600011F00C94DC33282F30E0F901E550F94DAF
:10557000D901A05FB84D15969C9190838F5F8A30BA
:1055800090F380932527109205278BEF96E20E94D7
:105590000B400E946F3E60935D2770935E2780935F
:1055A0005F27909360272BEF36E23F932F938AE695
:1055B00094E29F938F9387E599E29F938F930E9444
:1055C000D94081E080938C28E0EAF6E08481816014
:1055D00084830F900F900F900F900F900F900C946A
:1055E000DC33282F30E0F901E550F94DD901A05FF7
:1055F000B84D15969C9190838F5F8A3090F380937D
:105600002527109205278BEF96E20E940B400E94FF
:105610006F3E6093592770935A2780935B2790932E
:105620005C278BEF96E29F938F9385E794E29F939D
:105630008F9387E599E29F938F930E94D94081E0F1
:1056400080938C28E0EAF6E08481816084830F9067
:105650000F900F900F900F900F900C94DC339111DE
:10566000FECF292F822F90E0FC01E550F94DDC019F
:10567000A05FB84D15968C9180832F5F2A3090F3F0
:1056800020932527109205278BEF96E20E940B406E
:105690000E946F3E6093552770935627809357273B
:1056A000909358270F2EFBEF8F2EF6E29F2EF02DB2
:1056B0009F928F9280E894E29F938F9387E599E27F
:1056C0009F938F930E94D94081E080938C28E0EAD9
:1056D000F6E08481816084830F900F900F900F908B
:1056E0000F900F900C94DC3345E050E06BE874E2CF
:1056F00080E197E20E943640892B09F002C1209197
:10570000482721110BC080914727811109C091E0E2
:1057100080914627811105C090E003C091E001C04F
:1057200091E0892F9093F9269091BC2791110C94C8
:10573000DC333091472791E040914627411101C069
:1057400090E0813051F4211104C0311104C0892F3F
:10575000F8CF81E0F6CF81E0F4CF8093F9268091F5
:10576000D9271F928F9381E994E29F938F930E9490
:1057700095408091D9270F900F900F900F90813016
:1057800031F4E0E2F7E084818F7E848307C08111E9
:1057900005C0E0E2F7E08481806184838091042881
:1057A000813031F4E0E2F7E084818B7F848307C0AD
:1057B000811105C0E0E2F7E08481846084838091F8
:1057C0002F28813031F4E0E2F7E084818E7F8483FA
:1057D00007C0811105C0E0E2F7E084818160848325
:1057E00080E49FE1A0E0B0E080936D2790936E2766
:1057F000A0936F27B09370278093422790934327FD
:10580000A0934427B0934527109239271092382748
:1058100080E090E0A0E0B0E48093282790932927CF
:10582000A0932A27B0932B27BB24B394B092F426DD
:1058300088EE93E0809330279093312780932E2732
:1058400090932F2780932C2790932D278FEF9FEFF6
:10585000AFEFBFE78093902790939127A093922773
:10586000B093932780938C2790938D27A0938E27B6
:10587000B0938F278093882790938927A0938A27B6
:10588000B0938B270E94C50B20E030E04AE754E438
:10589000609128277091292780912A2790912B27A2
:1058A0000E94333F0E94763E609328087093290837
:1058B00088E0E8EDF0E2A7E5B9E201900D928A9563
:1058C000E1F71092AC271092AD271092AE271092FC
:1058D000AF271092A8271092A9271092AA271092FA
:1058E000AB271092A4271092A5271092A6271092FA
:1058F000A727B0928C28E0EAF6E084818160848357
:105900005BC745E050E06FE974E280E197E20E94F6
:105910003640892BA1F410927F2788E0E5EAF4E273
:10592000A7E5B9E201900D928A95E1F781E08093B5
:105930008C28E0EAF6E08481816084833DC745E0FD
:1059400050E06DEA74E280E197E20E943640892BD4
:10595000A1F410927E2788E0E3EBF4E2A7E5B9E238
:1059600001900D928A95E1F781E080938C28E0EA1E
:10597000F6E08481816084831FC745E050E06BEBD3
:1059800074E280E197E20E943640892BA1F41092E4
:105990007D2788E0E1ECF4E2A7E5B9E201900D9201
:1059A0008A95E1F781E080938C28E0EAF6E0848133
:1059B0008160848301C745E050E069EC74E280E1D6
:1059C00097E20E943640892BA1F481E080937F27E3
:1059D00098E0EFECF4E2A7E5B9E201900D929A9518
:1059E000E1F780938C28E0EAF6E08481816084838B
:1059F000E3C645E050E067ED74E280E197E20E9483
:105A00003640892BA1F481E080937E2798E0EDED6C
:105A1000F4E2A7E5B9E201900D929A95E1F780933F
:105A20008C28E0EAF6E0848181608483C5C645E085
:105A300050E065EE74E280E197E20E943640892BE7
:105A4000A1F481E080937D2798E0EBEEF4E2A7E5F6
:105A5000B9E201900D929A95E1F780938C28E0EAE3
:105A6000F6E0848181608483A7C645E050E063EF5F
:105A700074E280E197E20E943640892BA1F41092F3
:105A8000F32688E0E9EFF4E2A7E5B9E201900D9290
:105A90008A95E1F781E080938C28E0EAF6E0848142
:105AA0008160848389C645E050E061E075E280E171
:105AB00097E20E943640892BA1F481E08093F3267F
:105AC00098E0E7E0F5E2A7E5B9E201900D929A953A
:105AD000E1F780938C28E0EAF6E08481816084839A
