:100000000C9418010C943E010C943E010C943E019A
:100010000C943E010C943E010C943E010C943E0164
:100020000C943E010C943E010C943E010C943E0154
:100030000C943E010C943E010C943E010C943E0144
:100040000C94770C0C943E010C943E010C943E01F0
:100050000C94FE0D0C943E010C943E010C943E0158
:100060000C943E010C947D3C0C943E010C943E019A
:100070000C943E010C943E010C943E010C943E0104
:100080000C943E010C943E010C943E010C943E01F4
:100090000C943E010C943E010C943E010C943E01E4
:1000A0000C943E010C943E010C943E010C943E01D4
:1000B0000C943E010C943E010C943E010C943E01C4
:1000C0000C943E010C943E010C943E010C943E01B4
:1000D0000C943E010C943E010C943E010C943E01A4
:1000E0000C943E010C943E010C943E010C943E0194
:1000F0000C943E010C943E010C943E010C943E0184
:100100000C94D1360C9477390C943E010C943E013A
:100110000C943E010C943E010C943E010C943E0163
:100120000C943E010C943E010C943E010C943E0153
:100130000C943E010C943E010C943E010C943E0143
:100140000C943E010C943E010C943E010C94A70FBC
:100150000C943E010C943E010C943E010C943E0123
:100160000C943E010C943E010C943E010C943E0113
:100170000C943E010C943E010C943E010C943E0103
:100180000C9447340C943E010C943E010C943E01B7
:100190000C943E010C943E010C943E010C943E01E3
:1001A0000C943E010C943E010C943E010C943E01D3
:1001B0000C943E010C943E010C943E010C943E01C3
:1001C0000C943E010C943E010C943E010C943E01B3
:1001D0000C943E010C943E010C9407020C943E01D9
:1001E0000C943E010C943E010C943E010C943E0193
:1001F0000C943E014E414E494E495459494E46CD0C
:10020000CCCC3D0AD7233C17B7D13877CC2B3295CD
:1002100095E6241FB14F0A000020410000C84200AB
:10022000401C4620BCBE4CCA1B0E5AAEC59D740075
:1002300011241FBECFEFCDBFDFE3DEBF00E00CBF58
:1002400018BE19BE1ABE1BBE16E2A0E0B0E2E8E17D
:10025000FBE800E00BBF02C007900D92A03EB10783
:10026000D9F71BBE29E2A0EEB6E201C01D92AB3D5C
:10027000B207E1F70E94BA3C0C948A450C94000046
:10028000E0E0F6E0148280EC8083108A118A128A02
:10029000138A148A158A168A178A8185807F818736
:1002A00012861386E0E2F6E0148280E98083108AE9
:1002B000118A128A138A148A158A168A178A8185E6
:1002C000807F818712861386E0E4F6E088E88483E5
:1002D00098E09083108A118A128A138A148A158AE8
:1002E000168A178A8185807F818712861386E0E6C9
:1002F000F6E014821082108A118A128A138A148AF4
:10030000158A168A178A8185807F85608187928702
:1003100086E08387E0E8F6E0148286EB8083108A2B
:10032000118A128A138A148A158A168A178A818575
:10033000807F818712861386E0EAF6E0148281E4EA
:100340008083108A118A128A138A148A158A168A5F
:10035000178A8185807F818712861386E0EEF6E01A
:1003600014828CEF8083108A118A128A138A148A6D
:10037000158A168A178A8185807F8160818782E04D
:1003800082871386E0E0F7E014828FEF8083108A83
:10039000118A128A138A148A158A168A178A818505
:1003A000807F818712861386E0E2F7E014828FE374
:1003B0008083108A118A128A138A148A158A168AEF
:1003C000178A8185807F818712861386E0ECF7E0AB
:1003D00014821082108A118A128A138A8185807F82
:1003E000818712861386E0EEF7E0148283E0808333
:1003F000108A118A8185807F8187128613860895ED
:10040000E0ECFBE080E4808383E0818308951F9229
:100410000F920FB60F92112408B60F9218BE09B6AC
:100420000F9219BE0AB60F921ABE0BB60F921BBEE0
:100430002F933F938F939F93AF93BF93CF93DF936C
:10044000EF93FF93E0ECFBE0828193818091A228FF
:10045000811139C09D30B9F0992309F455C020911C
:10046000A3283091A428243631050CF04FC0F9019F
:10047000E75FF64D90832F5F3F4F2093A328309383
:10048000A42820E244C0C5EAD8E2A9E0B9E28DE69A
:1004900099E2FD01208129931192E817F907D1F71C
:1004A00021E02093A1281D92A817B907E1F784E65F
:1004B00090E080939F289093A0281092A3281092F8
:1004C000A42820E224C080916D2990916E29843661
:1004D00091052CF4FC01E159F64D208101C020E288
:1004E000019680936D2990936E298536910579F454
:1004F000E0EAF6E084818E7F84831092A228109235
:100500006D2910926E2903C020E201C020E22093E1
:10051000C30BFF91EF91DF91CF91BF91AF919F916D
:100520008F913F912F910F900BBE0F900ABE0F90AD
:1005300009BE0F9008BE0F900FBE0F901F90189528
:10054000E0ECFAE083E58083118208958093C30A8A
:10055000E0ECFAE082818823ECF78091C30A0895E9
:10056000FA01608371838283938308950F931F93AD
:10057000FC01038110E020E030E0302F222711271A
:100580000027428150E060E070E0BA01552744271F
:10059000040F151F261F371F418150E060E070E0F7
:1005A000762F652F542F4427D901C801840F951F3A
:1005B000A61FB71F2081BC01CD01620F711D811DD7
:1005C000911D1F910F910895AF92BF92CF92DF922C
:1005D000EF92FF920F931F93CF93DF9300D01F9260
:1005E000CDB7DEB710929A2810929B2810929C28C3
:1005F00010929D281092982810929928109297286E
:1006000010929628E0E8F6E08481806184838481FA
:100610008F7E848383E00E94A602809196280E94A8
:10062000A602809197280E94A60280E00E94A6025E
:1006300001ED17E2E12CF12C0F2EF1E0AF2EF0E2EC
:10064000BF2EF02D0F2EF2E2CF2EF0E2DF2EF02D96
:1006500080E00E94A6028A8380E00E94A60289832D
:100660002A8130E0322F2227A901480F511DF801BD
:100670004083518380E00E94A602F801828380E0DB
:100680000E94A602F801838380E00E94A602F8017E
:10069000848380E00E94A6028C8380E00E94A602F0
:1006A0008B8380E00E94A6028A8380E00E94A602DB
:1006B0008983CE0101960E94B602F8016583768394
:1006C0008783908780E00E94A6028C8380E00E944E
:1006D000A6028B8380E00E94A6028A8380E00E94AB
:1006E000A6028983CE0101960E94B602F8016187B5
:1006F00072878387948780E00E94A6028C8380E0C3
:100700000E94A6028B8380E00E94A6028A8380E07A
:100710000E94A6028983CE0101960E94B602F801CA
:10072000658776878787908B80E00E94A6028C83FE
:1007300080E00E94A6028B8380E00E94A6028A834A
:1007400080E00E94A6028983CE0101960E94B60233
:10075000F801618B728B838B948B80E00E94A602E0
:100760008C8380E00E94A6028B8380E00E94A60218
:100770008A8380E00E94A6028983CE0101960E94AE
:10078000B602F801658B768B878B908F80E00E9494
:10079000A6028A8380E00E94A60289832A8130E033
:1007A000322F2227A901480F511DF801418F528F86
:1007B00080E00E94A602F801838F80E00E94A602DA
:1007C000F801848F80E00E94A6028C8380E00E9462
:1007D000A6028B8380E00E94A6028A8380E00E94AA
:1007E000A6028983CE0101960E94B602F801658FA8
:1007F000768F878F90A380E00E94A6028C8380E092
:100800000E94A6028B8380E00E94A6028A8380E079
:100810000E94A6028983CE0101960E94B602F801C9
:1008200061A372A383A394A380E00E94A602F801AF
:1008300085A380E00E94A602F80186A380E00E94C2
:10084000A602F80187A380E00E94A602F80180A713
:1008500080E00E94A602F80181A71F928F93FF9269
:10086000EF92BF92AF920E94B04080E00E94A60239
:10087000F80182A71F928F93FF92EF92DF92CF929F
:100880000E94B040FFEFEF1AFF0A055D1F4FCDBF7A
:10089000DEBF53E0E516F10409F0DACE2496CDBFB1
:1008A000DEBFDF91CF911F910F91FF90EF90DF900E
:1008B000CF90BF90AF900895CF92DF92EF92FF92CA
:1008C0000F931F93CF93DF9300D01F92CDB7DEB766
:1008D00083E490E20E94C44080919E2881114FC021
:1008E00082E590E20E94C44088EE93E0A0E0B0E090
:1008F00080939A2890939B28A0939C28B0939D283E
:100900001F921F9283E08F9388EE8F9387E690E289
:100910009F938F930E94B04080919A2890919B283A
:10092000A0919C28B0919D28880F991FAA1FBB1FDA
:10093000809398289093992880939728909396284D
:10094000E0E8F6E084818061848384818F7E848303
:1009500083E00E94A602809196280E94A6028091C0
:1009600097280E94A60280E00E94A60281E0809360
:100970009E280F900F900F900F900F900F9080E097
:100980000E94A6028A8380E00E94A602898302E573
:1009900018E22A8130E0322F2227A901480F511D89
:1009A000F8014083518380E00E94A602F80182830F
:1009B00080E00E94A602F8018383813009F45CC1C3
:1009C00020F08A3509F442C2BEC280E00E94A6022D
:1009D00080935628882309F4AAC28E010B5F1F4F0B
:1009E000AE014F5F5F4F6A01780180E00E94A6026E
:1009F000F70182937F01EC15FD05B9F7CE01019651
:100A00000E94B602E2E5F8E26583768387839087E9
:100A10008481823008F464C280E00E94A602F8015A
:100A200082938F01EC15FD05B9F7CE0101960E9466
:100A3000B602E2E5F8E26187728783879487848152
:100A4000833008F451C28E010B5F1F4FAE014F5F20
:100A50005F4F7A0180E00E94A602F80182938F0125
:100A6000EE15FF05B9F7CE0101960E94B60260931C
:100A70005F2870936028809361289093622880910A
:100A80005628882309F457C08E010B5F1F4FAE0113
:100A90004F5F5F4F7A0180E00E94A602F8018293C7
:100AA0008F01EE16FF06B9F7CE0101960E94B6023D
:100AB000E2E5F8E2648B758B868B978B84818230BC
:100AC00008F415C28E010B5F1F4FAE014F5F5F4FE1
:100AD0007A0180E00E94A602F80182938F01EE164F
:100AE000FF06B9F7CE0101960E94B602E2E5F8E2F0
:100AF000608F718F828F938F84818330E0F08E01BD
:100B00000B5F1F4FAE014F5F5F4F7A0180E00E9485
:100B1000A602F80182938F01EE15FF05B9F7CE0109
:100B200001960E94B60260936E2870936F2880939E
:100B300070289093712880915628882309F4DBC18E
:100B400080E00E94A602E2E5F8E2818B8481823097
:100B500028F080E00E94A6028093642880915628A5
:100B6000833008F4C8C180E00E94A6028093652803
:100B7000C2C180E00E94A602F60182936F010E17A7
:100B80001F07B9F7CE0101960E94B6026093722842
:100B9000709373288093742890937528670180E080
:100BA0000E94A602F60182936F010E171F07B9F784
:100BB000CE0101960E94B602609376287093772842
:100BC0008093782890937928670180E00E94A6029C
:100BD000F60182936F010E171F07B9F7CE01019638
:100BE0000E94B60260937A2870937B2880937C28B9
:100BF00090937D28670180E00E94A602F60182930F
:100C00006F010E171F07B9F7CE0101960E94B602B9
:100C100060937E2870937F2880938028909381280A
:100C2000670180E00E94A602F60182936F01E0173F
:100C3000F107B9F7CE0101960E94B60260938228AF
:100C400070938328809384289093852880E00E9465
:100C5000A602F70182937F010E171F07B9F7CE0195
:100C600001960E94B602609386287093872880932D
:100C700088289093892867C180E00E94A60280930B
:100C80005628882309F459C18E010B5F1F4FAE010E
:100C90004F5F5F4F6A01780180E00E94A602F70172
:100CA00082937F01EC15FD05B9F7CE0101960E94F4
:100CB000B602E2E5F8E265837683878390878481D4
:100CC000823008F421C180E00E94A602F8018293DC
:100CD0008F01EC15FD05B9F7CE0101960E94B60211
:100CE000E2E5F8E2618772878387948784818330A5
:100CF00008F40EC18E010B5F1F4FAE014F5F5F4FB7
:100D00007A0180E00E94A602F80182938F01EE161C
:100D1000FF06B9F7CE0101960E94B60260935F28E4
:100D20007093602880936128909362288091562860
:100D3000882309F457C08E010B5F1F4FAE014F5F30
:100D40005F4F7A0180E00E94A602F80182938F0132
:100D5000EE16FF06B9F7CE0101960E94B602E2E553
:100D6000F8E2648B758B868B978B8481823008F4D4
:100D7000D2C08E010B5F1F4FAE014F5F5F4F7A01F4
:100D800080E00E94A602F80182938F01EE15FF0514
:100D9000B9F7CE0101960E94B602E2E5F8E2608F53
:100DA000718F828F938F84818330E0F08E010B5F8F
:100DB0001F4FAE014F5F5F4F7A0180E00E94A60295
:100DC000F80182938F01EE15FF05B9F7CE01019668
:100DD0000E94B60260936E2870936F2880937028EB
:100DE0009093712880915628882309F498C080E058
:100DF0000E94A602E2E5F8E2818B8481823028F02D
:100E000080E00E94A6028093642880915628833057
:100E100008F485C080E00E94A602809365287FC008
:100E200080E00E94A602F80182938F01EE16FF0671
:100E3000B9F7CE0101960E94B602609372287093B2
:100E4000732880937428909375287DC080E00E9459
:100E5000A60202E518E2F80180AF80E00E94A60237
:100E60008C8380E00E94A6028B8380E00E94A60211
:100E70008A8380E00E94A6028983CE0101960E94A7
:100E8000B602F80161AF72AF83AF94AF80E00E9409
:100E9000A6028C8380E00E94A6028B8380E00E94E1
:100EA000A6028A8380E00E94A6028983CE01019671
:100EB0000E94B60260938F287093902880939128A7
:100EC0009093922880E00E94A6028093932880E06D
:100ED0000E94A60290E0809394289093952833C0B6
:100EE000833008F0B0CDCBCD8111CECD23C083307F
:100EF00008F421CE04CE7E01F5E0EF0EF11C8E0148
:100F00000F5F1F4F670135CE833008F0F3CE0ECF51
:100F1000811111CF15C0833008F464CF47CF8E0103
:100F20000B5F1F4FAE014F5F5F4F7A0179CF80910A
:100F30005628DACF80915628DACF80915628E8CF0C
:100F400080915628E8CF2496CDBFDEBFDF91CF91A8
:100F50001F910F91FF90EF90DF90CF900895CF9366
:100F6000DF9300D01F92CDB7DEB781E890E20E94F8
:100F7000C44087EE93E0A0E0B0E080939A2890937D
:100F80009B28A0939C28B0939D288EEC97E080939B
:100F90009828909399288EEC8093972887E08093E7
:100FA0009628E0E8F6E084818061848384818F7EE6
:100FB000848383E00E94A602809196280E94A60264
:100FC000809197280E94A60280E00E94A60280E0FD
:100FD0000E94A6028C8380E00E94A6028B8380E0A0
:100FE0000E94A6028A8380E00E94A60289839C81D7
:100FF0001F929F939B811F929F939A811F929F9311
:101000001F928F9384E990E29F938F930E94B04048
:10101000CE0101960E94B602CDBFDEBF2496CDBFA1
:10102000DEBFDF91CF910895CF92DF92EF92FF92D2
:101030000F931F93CF93DF9300D01F92CDB7DEB7EE
:1010400020919E2821112FC0A0E0B0E080939A2823
:1010500090939B28A0939C28B0939D28880F991F5C
:10106000AA1FBB1F80939828909399288093972854
:1010700090939628E0E8F6E08481806184838481FF
:101080008F7E848383E00E94A602809196280E942E
:10109000A602809197280E94A60280E00E94A602E4
:1010A00081E080939E2880E00E94A6028A8380E0EF
:1010B0000E94A602898302E518E22A8130E0322FDD
:1010C0002227A901480F511DF8014083518380E078
:1010D0000E94A602F801828380E00E94A602F80125
:1010E0008383882321F0813009F458C173C280E0E2
:1010F0000E94A60280935628882309F45FC28E01BD
:101100000B5F1F4FAE014F5F5F4F6A01780180E0B8
:101110000E94A602F70182937F01EC15FD05B9F745
:10112000CE0101960E94B602E2E5F8E2658376837D
:10113000878390878481823008F419C280E00E94FE
:10114000A602F80182938F01EC15FD05B9F7CE01D7
:1011500001960E94B602E2E5F8E261877287838712
:1011600094878481833008F406C28E010B5F1F4F81
:10117000AE014F5F5F4F7A0180E00E94A602F80146
:1011800082938F01EE15FF05B9F7CE0101960E94FB
:10119000B60260935F2870936028809361289093D3
:1011A000622880915628882309F457C08E010B5F6E
:1011B0001F4FAE014F5F5F4F7A0180E00E94A60291
:1011C000F80182938F01EE16FF06B9F7CE01019662
:1011D0000E94B602E2E5F8E2648B758B868B978BF2
:1011E0008481823008F4CAC18E010B5F1F4FAE01AB
:1011F0004F5F5F4F7A0180E00E94A602F801829360
:101200008F01EE16FF06B9F7CE0101960E94B602D5
:10121000E2E5F8E2608F718F828F938F8481833053
:10122000E0F08E010B5F1F4FAE014F5F5F4F7A0101
:1012300080E00E94A602F80182938F01EE15FF055F
:10124000B9F7CE0101960E94B60260936E287093A2
:101250006F28809370289093712880915628882356
:1012600009F490C180E00E94A602E2E5F8E2818BD9
:101270008481823028F080E00E94A6028093642856
:1012800080915628833008F47DC180E00E94A60238
:101290008093652877C180E00E94A602F6018293C0
:1012A0006F010E171F07B9F7CE0101960E94B60213
:1012B0006093722870937328809374289093752894
:1012C000670180E00E94A602F60182936F010E176B
:1012D0001F07B9F7CE0101960E94B60260937628E7
:1012E000709377288093782890937928670180E01D
:1012F0000E94A602F60182936F010E171F07B9F72D
:10130000CE0101960E94B60260937A2870937B28E2
:1013100080937C2890937D28670180E00E94A6023C
:10132000F60182936F010E171F07B9F7CE010196E0
:101330000E94B60260937E2870937F288093802855
:1013400090938128670180E00E94A602F6018293B3
:101350006F01E017F107B9F7CE0101960E94B602BE
:1013600060938228709383288093842890938528A3
:1013700080E00E94A602F70182937F010E171F07EB
:10138000B9F7CE0101960E94B60260938628709349
:10139000872880938828909389281CC180E00E9428
:1013A000A60280935628882309F40EC18E010B5F94
:1013B0001F4FAE014F5F5F4F6A01780180E00E94CE
:1013C000A602F70182937F01EC15FD05B9F7CE0166
:1013D00001960E94B602E2E5F8E265837683878390
:1013E00090878481823008F4D6C080E00E94A602F3
:1013F000F80182938F01EC15FD05B9F7CE01019636
:101400000E94B602E2E5F8E26187728783879487DB
:101410008481833008F4C3C08E010B5F1F4FAE017F
:101420004F5F5F4F7A0180E00E94A602F80182932D
:101430008F01EE16FF06B9F7CE0101960E94B602A3
:1014400060935F287093602880936128909362284E
:1014500080915628882309F457C08E010B5F1F4FD7
:10146000AE014F5F5F4F7A0180E00E94A602F80153
:1014700082938F01EE16FF06B9F7CE0101960E9406
:10148000B602E2E5F8E2648B758B868B978B8481DC
:10149000823008F487C08E010B5F1F4FAE014F5F93
:1014A0005F4F7A0180E00E94A602F80182938F01CB
:1014B000EE15FF05B9F7CE0101960E94B602E2E5EE
:1014C000F8E2608F718F828F938F84818330E0F098
:1014D0008E010B5F1F4FAE014F5F5F4F7A0180E0BF
:1014E0000E94A602F80182938F01EE15FF05B9F75D
:1014F000CE0101960E94B60260936E2870936F2809
:10150000809370289093712880915628882309F43D
:101510004DC080E00E94A602E2E5F8E2818B848162
:10152000823028F080E00E94A60280936428809197
:1015300056288330D8F180E00E94A6028093652867
:1015400035C080E00E94A602F80182938F01EE165A
:10155000FF06B9F7CE0101960E94B6026093722889
:1015600070937328809374289093752833C08330C8
:1015700008F0FBCD16CE811119CE23C0833008F4BC
:101580006CCE4FCE7E01F5E0EF0EF11C8E010F5FA9
:101590001F4F670180CE833008F03ECF59CF8111B5
:1015A0005CCF15C0833008F4AFCF92CF8E010B5FB4
:1015B0001F4FAE014F5F5F4F7A01C3CF8091562816
:1015C000DACF80915628DACF80915628E8CF8091E3
:1015D0005628E8CF2496CDBFDEBFDF91CF911F9173
:1015E0000F91FF90EF90DF90CF9008957F928F92B0
:1015F0009F92AF92BF92CF92DF92EF92FF920F93A2
:101600001F93CF93DF9300D01F92CDB7DEB74B016E
:101610005C0187EE93E0A0E0B0E080939A2890937D
:101620009B28A0939C28B0939D288EEC97E08093F4
:101630009828909399288EEC8093972887E0809340
:10164000962800E816E0F801848180618483848113
:101650008F7E848381E80E94A602809196280E9452
:10166000A602809197280E94A60280E00E94A6020E
:10167000F8018481806184830F2EF0EEEF2EF7E075
:10168000FF2EF02D0F2EF2EBCF2EF0E2DF2EF02DFD
:10169000F80184818F7E8483F701848180FF03C0F9
:1016A0008481848304C0F70184818160848387ED11
:1016B0000E94A60280E00E94A602782E1F928F93BD
:1016C000DF92CF920E94B040F801848180618483D0
:1016D0000F900F900F900F907720D4F6E0E8F6E08F
:1016E00084818F7E84838091E40781FF06C0E0EED1
:1016F000F7E084818E7F848305C0E0EEF7E084818B
:101700008260848384E80E94A602809196280E94C9
:10171000A602809197280E94A60280E00E94A6025D
:10172000AE014F5F5F4FC501B4010E94B0028C81D2
:101730001F928F938B811F928F938A811F928F9319
:1017400089811F928F938FEB90E29F938F930E94DA
:10175000B0408C810E94A6028B810E94A6028A81E1
:101760000E94A60289810E94A60200E816E0F80104
:1017700084818061848384818F7E848383E80E9456
:10178000A602809196280E94A602809197280E9426
:10179000A60280E00E94A602F80184818061848311
:1017A000CDBFDEBF2496CDBFDEBFDF91CF911F91AD
:1017B0000F91FF90EF90DF90CF90BF90AF909F90F0
:1017C0008F907F9008952FB7F894E0E0F8E01082B2
:1017D0008CE0818781E0808381831382148216826A
:1017E00083E08783A0E9B8E08C918E7F8C93A0E999
:1017F000B0E019968C9119978E7F98ED94BF199649
:101800008C93A0E8B8E01C9218961C921897199631
:101810001C9219971C961C921C9713968C911397E7
:10182000887E13968C93139712961C921297149697
:101830008C91149714969C9114978470892B14960C
:101840008C938485848710A211A216A217A28FEF11
:101850009FEF80A791A712A613A614A615A616A6F9
:1018600017A62FBF08959FB7F894E0E4F8E0108220
:101870008CE0818784E0808311821382148282E06D
:1018800086831782A0E9B8E08C918D7F8C93848544
:10189000848710A211A22FE33CE926A337A310A648
:1018A00011A612A613A69FBF08959FB7F894E0E46F
:1018B000F9E010828CE0818785E0808311821382B9
:1018C000148281E086831782A0E9B9E08C918D7F34
:1018D0008C938485848710A211A22FE433EC26A375
:1018E00037A310A611A612A613A69FBF08951F9294
:1018F0000F920FB60F92112408B60F9218BE09B6B8
:101900000F9219BE0BB60F921BBE2F933F934F93AE
:101910005F936F937F938F939F93AF93BF93EF9357
:10192000FF9380910C0884FF05C0E0E0F8E0848517
:10193000806184878091A8279091A927A091AA27E8
:10194000B091AB27181619061A061B065CF401970E
:10195000A109B1098093A8279093A927A093AA274A
:10196000B093AB274091A4275091A5276091A6275B
:101970007091A72714161506160617060CF057C007
:1019800020914A2730914B278091442790914527F9
:10199000820F931F80934A2790934B27883E23E022
:1019A000920708F440C0E0E2F7E020E22783885E77
:1019B000934080934A2790934B27415051096109E6
:1019C00071094093A4275093A5276093A62770938D
:1019D000A727848184FD14C08091C0279091C127DE
:1019E000A091C227B091C3270197A109B1098093A3
:1019F000C0279093C127A093C227B093C32713C0D9
:101A00008091C0279091C127A091C227B091C32790
:101A10000196A11DB11D8093C0279093C127A0936B
:101A2000C227B093C32781E080935C2702C0109245
:101A30005C274091A0275091A1276091A227709127
:101A4000A32714161506160617060CF057C020918A
:101A50004827309149278091422790914327820F50
:101A6000931F8093482790934927883E23E092074D
:101A700008F440C0E0E2F7E028E02783885E934066
:101A80008093482790934927415051096109710972
:101A90004093A0275093A1276093A2277093A32778
:101AA000848182FD14C08091BC279091BD27A091B4
:101AB000BE27B091BF270197A109B1098093BC2728
:101AC0009093BD27A093BE27B093BF2713C08091EA
:101AD000BC279091BD27A091BE27B091BF2701964A
:101AE000A11DB11D8093BC279093BD27A093BE2755
:101AF000B093BF2781E080935B2702C010925B27E1
:101B000040919C2750919D2760919E2770919F271F
:101B100014161506160617060CF057C02091462716
:101B2000309147278091402790914127820F931F42
:101B30008093462790934727883E23E0920708F436
:101B400040C0E0E2F7E022E02783885E9340809384
:101B500046279093472741505109610971094093E5
:101B60009C2750939D2760939E2770939F27848185
:101B700080FD14C08091B8279091B927A091BA2711
:101B8000B091BB270197A109B1098093B827909321
:101B9000B927A093BA27B093BB2713C08091B82769
:101BA0009091B927A091BA27B091BB270196A11DAA
:101BB000B11D8093B8279093B927A093BA27B0930B
:101BC000BB2781E080935A2702C010925A27FF91C9
:101BD000EF91BF91AF919F918F917F916F915F91A5
:101BE0004F913F912F910F900BBE0F9009BE0F9018
:101BF00008BE0F900FBE0F901F9018951F920F9266
:101C00000FB60F92112408B60F9218BE09B60F92A4
:101C100019BE0BB60F921BBECF92DF92EF92FF92CE
:101C20000F931F932F933F934F935F936F937F93E4
:101C30008F939F93AF93BF93EF93FF9380913A2736
:101C400090913B27019680933A2790933B27C09031
:101C5000A827D090A927E090AA27F090AB271C14C2
:101C60001D041E041F040CF086C0809198279091DB
:101C70009927A0919A27B0919B27C816D906EA0602
:101C8000FB06B4F140915627509157276091582791
:101C9000709159278091522790915327A0915427F2
:101CA000B09155278A019B01080F191F2A1F3B1F5E
:101CB000C901B8010093562710935727209358273E
:101CC000309359270E94C23E9B01AC0160E070E056
:101CD0008AE796E40E94183E20E030E04AE754E4A8
:101CE0000E944E3F0E94913E6093280870932908FD
:101CF0008091942790919527A0919627B09197274E
:101D00008C159D05AE05BF050CF404C180915627C6
:101D100090915727A0915827B0915927C0905227EA
:101D2000D0905327E0905427F0905527BC01CD0167
:101D30006C197D098E099F09609356277093572768
:101D400080935827909359270E94C23E9B01AC0173
:101D500060E070E08AE796E40E94183E20E030E000
:101D60004AE754E40E944E3F0E94913E6093280847
:101D700070932908CFC080914D27813009F051C060
:101D800040915627509157276091582770915927B5
:101D90008091522790915327A0915427B0915527B5
:101DA000840F951FA61FB71F809356279093572720
:101DB000A0935827B09359274091812750918227AB
:101DC000609183277091842784179507A607B7072A
:101DD00054F0409356275093572760935827709399
:101DE000592710924D27609156277091572780915F
:101DF0005827909159270E94C23E9B01AC0160E098
:101E000070E08AE796E40E94183E20E030E04AE75E
:101E100054E40E944E3F0E94913E609328087093C4
:101E2000290880914C27813009F074C040914E27D9
:101E300050914F27609150277091512780915627DC
:101E400090915727A0915827B0915927841B950B43
:101E5000A60BB70B481759076A077B074CF480930A
:101E6000562790935727A0935827B093592734C0EB
:101E700040935627509357276093582770935927BC
:101E800010924C2780910027813059F4109200273E
:101E90001092A4271092A5271092A6271092A72788
:101EA0001BC0823059F4109200271092A027109284
:101EB000A1271092A2271092A3270EC0809100277D
:101EC000833051F41092002710929C2710929D2786
:101ED00010929E2710929F27609156277091572746
:101EE00080915827909159270E94C23E9B01AC01D6
:101EF00060E070E08AE796E40E94183E20E030E05F
:101F00004AE754E40E944E3F0E94913E60932808A5
:101F100070932908FF91EF91BF91AF919F918F919D
:101F20007F916F915F914F913F912F911F910F91F1
:101F3000FF90EF90DF90CF900F900BBE0F9009BEF7
:101F40000F9008BE0F900FBE0F901F9018951F9214
:101F50000F920FB60F92112408B60F9218BE8F93EE
:101F60008091FB27882379F18091240784FD2BC081
:101F70008091080684FF28C126C01092A4271092E1
:101F8000A5271092A6271092A727809107278111D5
:101F90001AC0109200271092A8271092A927109219
:101FA000AA271092AB271092A0271092A127109277
:101FB000A2271092A32710929C2710929D2710927F
:101FC0009E2710929F278091FA27882379F180918C
:101FD000240784FF2BC08091080683FFFAC026C027
:101FE0001092A4271092A5271092A6271092A72737
:101FF0008091072781111AC0109200271092A827FC
:102000001092A9271092AA271092AB271092A0270E
:102010001092A1271092A2271092A32710929C271A
:1020200010929D2710929E2710929F27809126281C
:10203000882379F18091240782FD2BC080912806A6
:1020400086FFCCC026C01092A0271092A127109224
:10205000A2271092A3278091072781111AC01092FE
:1020600000271092A8271092A9271092AA27109251
:10207000AB271092A4271092A5271092A6271092A2
:10208000A72710929C2710929D2710929E271092AE
:102090009F2780912528882379F18091240782FF4A
:1020A0002BC08091280680FF9EC026C01092A027DA
:1020B0001092A1271092A2271092A32780910727A0
:1020C00081111AC0109200271092A8271092A927F8
:1020D0001092AA271092AB271092A4271092A5273E
:1020E0001092A6271092A72710929C2710929D2746
:1020F00010929E2710929F2780915128882379F172
:102100008091240780FD2BC08091480684FF70C019
:1021100026C010929C2710929D2710929E27109205
:102120009F278091072781111AC0109200271092D3
:10213000A8271092A9271092AA271092AB271092D5
:10214000A0271092A1271092A2271092A3271092E5
:10215000A4271092A5271092A6271092A727809156
:102160005028882309F44DC08091240780FF49C07E
:102170008091480685FF41C044C010929C27109270
:102180009D2710929E2710929F27809107278111EB
:1021900038C0109200271092A8271092A9271092F9
:1021A000AA271092AB271092A0271092A127109275
:1021B000A2271092A3271092A4271092A52710926D
:1021C000A6271092A7271DC080915C278111D5CE2C
:1021D000FACE80915C27811103CF28CF80915B27B5
:1021E000811131CF56CF80915B2781115FCF84CF92
:1021F00080915A2781118DCFB2CF80915A278111BA
:10220000BCCF8F910F9008BE0F900FBE0F901F9004
:1022100018954F925F926F927F928F929F92AF929A
:10222000BF92CF92DF92EF92FF920F931F93CF93C3
:10223000DF93CDB7DEB72897CDBFDEBF809155289D
:102240008E3009F49FC258F4813009F4DEC0C8F022
:102250008C3009F496C18D3009F463C28DC68A357D
:1022600009F4CDC438F4813509F4BDC4823509F4CC
:10227000C0C482C6843609F42FC6853609F435C633
:102280007BC6E0E0F8E010828CE08187E2E5F8E2CE
:10229000848995898093442790934527808D918DDB
:1022A0008093422790934327848D958D8093402778
:1022B0009093412780A191A1A2A1B3A180938127EE
:1022C00090938227A0938327B093842780A591A51C
:1022D000A2A5B3A58093522790935327A093542788
:1022E000B093552784A595A5A6A5B7A580934E279D
:1022F00090934F27A0935027B09351278189813025
:1023000031F4E0E2F7E084818061848305C0E0E29B
:10231000F7E084818F7E848380916428813031F45A
:10232000E0E2F7E084818460848305C0E0E2F7E0C6
:1023300084818B7F848380916528813031F4E0E251
:10234000F7E084818160848305C0E0E2F7E0848166
:102350008E7F8483E2E5F8E284A195A1A6A1B7A1CE
:102360008093A8279093A927A093AA27B093AB277F
:1023700080A991A9A2A9B3A980939827909399279E
:10238000A0939A27B0939B2784A995A9A6A9B7A93A
:102390008093942790939527A0939627B09397279F
:1023A00085819681A781B0858093A4279093A527E6
:1023B000A093A627B093A72781859285A385B4858E
:1023C0008093A0279093A127A093A227B093A3273F
:1023D00085859685A785B08980939C2790939D27B6
:1023E000A0939E27B0939F271092562710925727AD
:1023F00010925827109259270E94E30B8FEF9FEFFE
:102400008093280890932908B7C5E0E0F8E010828F
:102410008CE08187E2E5F8E28489958980934427FE
:1024200090934527808D918D8093422790934327E9
:10243000848D958D809340279093412760A171A151
:1024400082A193A160938127709382278093832731
:10245000909384272189213031F4E0E2F7E0248150
:102460002061248305C0E0E2F7E024812F7E2483ED
:1024700020916428213031F4E0E2F7E024812460E7
:10248000248305C0E0E2F7E024812B7F24832091A0
:102490006528213031F4E0E2F7E0248121602483D3
:1024A00005C0E0E2F7E024812E7F24831092982774
:1024B0001092992710929A2710929B271092942796
:1024C000109295271092962710929727E2E5F8E24E
:1024D00005811681278130850093A4271093A527B5
:1024E0002093A6273093A72701851285238534855D
:1024F0000093A0271093A1272093A2273093A3270E
:10250000058516852785308900939C2710939D2784
:1025100020939E2730939F276093562770935727C9
:10252000809358279093592710924D2710924C274B
:102530000E94C23E9B01AC0160E070E08AE796E435
:102540000E94183E60933C2770933D2780933E275E
:1025500090933F270E94E30B20E030E04AE754E4E9
:1025600060913C2770913D2780913E2790913F27B5
:102570000E944E3F0E94913E609328087093290864
:10258000FBC480915C2781110EC090915B27911153
:102590000AC090915A2721E0911101C020E02093B8
:1025A0000C27992399F090915B27911107C021E0A6
:1025B00090915A27911103C020E001C021E0922F91
:1025C0008111FECF9111FCCF20930C27809193278E
:1025D000811106C0E0E2F7E084818F7E848307C02A
:1025E000813029F4E0E2F7E0848180618483809186
:1025F0009227811106C0E0E2F7E084818B7F84831B
:1026000007C0813029F4E0E2F7E0848184608483AC
:1026100080919127811106C0E0E2F7E084818E7FEE
:10262000848307C0813029F4E0E2F7E0848181608F
:10263000848380E49FE1A0E0B0E0809381279093C1
:102640008227A0938327B093842780935627909363
:102650005727A0935827B093592710924D271092CF
:102660004C2780E090E0A0E0B0E480933C2790937A
:102670003D27A0933E27B0933F2721E020930727D3
:1026800088EE93E0809344279093452780934227D8
:102690009093432780934027909341278FEF9FEF9C
:1026A000AFEFBFE78093A4279093A527A093A62719
:1026B000B093A7278093A0279093A127A093A22748
:1026C000B093A32780939C2790939D27A0939E2748
:1026D000B0939F270E94E30B20E030E04AE754E4E8
:1026E00060913C2770913D2780913E2790913F2734
:1026F0000E944E3F0E94913E6093280870932908E3
:1027000088E0E9EDF0E2AFE6B9E201900D928A953A
:10271000E1F781E08093A228E0EAF6E0848181601D
:1027200084838091C0279091C127A091C227B09146
:10273000C3278093B4279093B527A093B627B0936F
:10274000B7278091BC279091BD27A091BE27B0915B
:10275000BF278093B0279093B127A093B227B0935F
:10276000B3278091B8279091B927A091BA27B0914B
:10277000BB278093AC279093AD27A093AE27B0934F
:10278000AF27FAC380915C2781110EC090915B271F
:1027900091110AC090915A2721E0911101C020E0C7
:1027A00020930C27992399F090915B27911107C0F2
:1027B00021E090915A27911103C020E001C021E04F
:1027C000922F8111FECF9111FCCF20930C27009105
:1027D000B4271091B5272091B6273091B727C09024
:1027E000C027D090C127E090C227F090C3270C15D6
:1027F0001D052E053F052CF4E0E2F7E084818F7E75
:102800008483C016D106E206F3062CF4E0E2F7E07A
:102810008481806184834090B0275090B12760907C
:10282000B2277090B3274091BC275091BD2760918B
:10283000BE277091BF2744165506660677062CF40E
:10284000E0E2F7E084818B7F8483441555056605BB
:1028500077052CF4E0E2F7E0848184608483809043
:10286000AC279090AD27A090AE27B090AF27809175
:10287000B8279091B927A091BA27B091BB278816A5
:102880009906AA06BB062CF4E0912407EE7FE0939C
:10289000240788159905AA05BB052CF4E0912407A7
:1028A000E160E0932407C01AD10AE20AF30A970113
:1028B00086013AF40027112798010C191D092E09E9
:1028C0003F09680179010093A4271093A52720935D
:1028D000A6273093A72744195509660977098A0165
:1028E0009B013AF4002711279801041B150B260BB6
:1028F000370B280139010093A0271093A1272093BB
:10290000A2273093A32788199909AA09BB09AC010A
:10291000BD013AF444275527BA01481B590B6A0BED
:102920007B0B49835A836B837C8340939C27509312
:102930009D2760939E2770939F274C145D046E041F
:102940007F049CF54C155D056E057F0574F5E1ED82
:10295000F7E285819681A781B08580938127909346
:102960008227A0938327B093842781859285A385AE
:10297000B4858093652790936627A0936727B093CB
:10298000682785859685A785B08980936127909370
:102990006227A0936327B0936427C092A827D092A0
:1029A000A927E092AA27F092AB27C414D504E60425
:1029B000F704BCF589819A81AB81BC8184159505AA
:1029C000A605B70574F5E1EDF7E280A991A9A2A9E2
:1029D000B3A98093812790938227A0938327B093F4
:1029E000842784A995A9A6A9B7A980936527909360
:1029F0006627A0936727B093682780AD91ADA2ADFD
:102A0000B3AD8093612790936227A0936327B0931F
:102A100064274092A8275092A9276092AA27709213
:102A2000AB2789819A81AB81BC81C816D906EA0699
:102A3000FB060CF041C0481659066A067B06E4F511
:102A400080912C2890912D28A0912E28B0912F288C
:102A50008093812790938227A0938327B093842724
:102A60008091302890913128A0913228B09133285C
:102A70008093652790936627A0936727B093682774
:102A80008091342890913528A0913628B09137282C
:102A90008093612790936227A0936327B093642764
:102AA00089819A81AB81BC818093A8279093A927C3
:102AB000A093AA27B093AB2780908127909082277C
:102AC000A0908327B0908427181419041A041B04BB
:102AD0000CF052C06091A8277091A9278091AA2775
:102AE0009091AB270E94C23E6D837E838F8398872F
:102AF000C701B6010E94C23E2D813E814F8158859B
:102B00000E94183E20E030E04AE754E40E944E3F25
:102B10000E94913E6093442770934527C301B20100
:102B20000E94C23E2D813E814F8158850E94183EF1
:102B300020E030E04AE754E40E944E3F0E94913E7C
:102B4000609342277093432769817A818B819C81AE
:102B50000E94C23E2D813E814F8158850E94183EC1
:102B600020E030E04AE754E40E944E3F0E94913E4C
:102B70006093402770934127809256279092572761
:102B8000A0925827B092592710924D2710924C27A7
:102B9000C501B4010E94C23E9B01AC0160E070E03F
:102BA0008AE796E40E94183E60933C2770933D2785
:102BB00080933E2790933F270E94E30B20E030E074
:102BC0004AE754E460913C2770913D2780913E276D
:102BD00090913F270E944E3F0E94913E60932808AB
:102BE00070932908C9C1E0E0F7E0848184608483A0
:102BF000C3C1E0E0F7E084818B7F8483BDC1809115
:102C00005228909153288093FE269093FF260E948D
:102C1000AF076093FA267093FB268093FC2690936F
:102C2000FD269FEFA3ECB9E09150A040B040E1F742
:102C300000C0000000918F281091902820919128C9
:102C4000309192286091FA267091FB268091FC26A3
:102C50009091FD26061717072807390750F0409175
:102C60008A28442359F0601771078207930708F4F4
:102C700013C120918A28213009F00EC12AE040EFCB
:102C800056E20E946A4080919328882309F43FC04D
:102C90006091FA267091FB268091FC269091FD268A
:102CA0002AE030E040E050E00E94CB3F2F5F4091AF
:102CB000942850919528622F70E0641775073CF5B1
:102CC000CB0101973AF4CA01861B970B1816190617
:102CD00084F018C0E22FF0E0E051F94DDA01A05184
:102CE000B94D20EF36E282918E93E217F307D9F7C0
:102CF000EACFE0EFF6E28051994D20E321938E1761
:102D00009F07E1F7FA01E051F94D80E3808380915C
:102D10008A28811114C08091FA269091FB26A091F7
:102D2000FC26B091FD260196A11DB11D8093FA26C7
:102D30009093FB26A093FC26B093FD2613C08091B0
:102D4000FA269091FB26A091FC26B091FD260197D2
:102D5000A109B1098093FA269093FB26A093FC2643
:102D6000B093FD261092EE261092EF2610929E2828
:102D70006091FA267091FB268091FC269091FD26A9
:102D80000E94F60AEFEFF3ED20E3E150F04020401F
:102D9000E1F700C000000E94AF076093FA2670932D
:102DA000FB268093FC269093FD268FEF93ECA9E001
:102DB00081509040A040E1F700C000008091FD26C6
:102DC0008F938091FC268F938091FB268F93809127
:102DD000FA268F9381EE90E29F938F930E94B040EA
:102DE000E091EE26F091EF26E051F94D208130E0A0
:102DF00020533109C901880F991F220F331F220F59
:102E0000331F220F331F820F931F8C599F4F0E9435
:102E10001408809155281F928F93809153288F9387
:102E2000E2E5F8E280818F9389EF90E29F938F93A0
:102E30000E94B040809162288F93809161288F9387
:102E4000809160288F9380915F288F9380915E2876
:102E50008F9380915D288F9380915C288F938091D0
:102E60005B288F9380915A288F93809159288F9354
:102E7000809158288F93809157288F9386E191E213
:102E80009F938F930E94B0400E94091181E080932C
:102E9000ED26CDBFDEBF70C01092ED2610929E28A9
:102EA0000E945C0420915228309153288091FE2684
:102EB0009091FF262817390709F45EC00E945C0430
:102EC000A2E5B8E22D913C918091FE269091FF26DB
:102ED0002817390799F750C086E391E20E94C44051
:102EE0001092D02710929E2847C08091EE26909194
:102EF000EF2601968093EE269093EF26FC01E05199
:102F0000F94D20812223D1F081E08093ED261092AB
:102F10009E2830E020533109C901880F991F220FE4
:102F2000331F220F331F220F331F820F931F8C5921
:102F30009F4F0E9414080E9409111EC01092ED2696
:102F400010929E280E945C042091FE263091FF265C
:102F500080915228909153282817390769F00E94D0
:102F60005C04E2E5F8E2208131818091FE269091B7
:102F7000FF262817390799F72896CDBFDEBFDF91C6
:102F8000CF911F910F91FF90EF90DF90CF90BF9066
:102F9000AF909F908F907F906F905F904F9008952B
:102FA0002F923F924F925F926F927F928F929F9259
:102FB000AF92BF92CF92DF92EF92FF920F931F9347
:102FC000CF93DF93CDB7DEB76E97CDBFDEBF43E0C3
:102FD00050E067E471E283E297E20E945140892B5E
:102FE00089F488E0EDE4F1E2AFE6B9E201900D92F8
:102FF0008A95E1F781E08093A228E0EAF6E08481F7
:103000008160848343E050E065E571E283E297E20A
:103010000E945140892B09F0BBC180912627803343
:1030200011F00C94F73380912727823309F496C06E
:10303000833309F421C1813311F00C94F73380916B
:103040002827823309F440C030F4803361F08133A3
:1030500019F10C94F733833309F44FC0843309F426
:1030600065C00C94F73380910D27882311F40C94DC
:10307000F7338091080682FB882780F91F928F938F
:1030800089E591E29F938F930E94B0400F900F903B
:103090000F900F900C94F73380910D27882311F433
:1030A0000C94F73380910806869581701F928F9358
:1030B00085E691E29F938F930E94B0400F900F900E
:1030C0000F900F900C94F73380910D27882311F403
:1030D0000C94F7338091080685FB882780F91F92AE
:1030E0008F9381E791E29F938F930E94B0400F905E
:1030F0000F900F900F900C94F73380910D27882339
:1031000011F40C94F7338091080683FB882780F92B
:103110001F928F938DE791E29F938F930E94B0400F
:103120000F900F900F900F900C94F73380910D2714
:10313000882311F40C94F7338091080682958170EE
:103140001F928F9389E891E29F938F930E94B040E2
:103150000F900F900F900F900C94F73380912827C9
:10316000823309F440C030F4803361F0813311F1CF
:103170000C94F733833309F44FC0843309F463C0EC
:103180000C94F73380910D27882311F40C94F733B6
:1031900080912806869581701F928F9385E991E230
:1031A0009F938F930E94B0400F900F900F900F90BD
:1031B0000C94F73380910D27882311F40C94F73386
:1031C0008091280682FB882780F91F928F9381EADD
:1031D00091E29F938F930E94B0400F900F900F90B9
:1031E0000F900C94F73380910D27882311F40C94E1
:1031F000F7338091280685FB882780F91F928F93EB
:103200008DEA91E29F938F930E94B0400F900F90B0
:103210000F900F900C94F73380910D27882311F4B1
:103220000C94F7338091280681701F928F9389EB5D
:1032300091E29F938F930E94B0400F900F900F9058
:103240000F900C94F73380910D27882311F40C9480
:10325000F7338091280686FB882780F91F928F9389
:1032600085EC91E29F938F930E94B0400F900F9056
:103270000F900F900C94F733809128278233F1F14F
:1032800030F4803361F0813309F10C94F7338333E8
:1032900009F44DC0843309F463C00C94F733809172
:1032A0000D27882311F40C94F73380914806817020
:1032B0001F928F9381ED91E29F938F930E94B04074
:1032C0000F900F900F900F900C94F73380910D2773
:1032D000882311F40C94F733809148068695817009
:1032E0001F928F938DED91E29F938F930E94B04038
:1032F0000F900F900F900F900C94F73380910D2743
:10330000882311F40C94F7338091480686FB8827B4
:1033100080F91F928F938DEA91E29F938F930E9481
:10332000B0400F900F900F900F900C94F733809156
:103330000D27882311F40C94F7338091480685FB00
:10334000882780F91F928F9389EE91E29F938F9344
:103350000E94B0400F900F900F900F900C94F73395
:1033600080910D27882311F40C94F733809148063F
:10337000829581701F928F9385EF91E29F938F9337
:103380000E94B0400F900F900F900F900C94F73365
:1033900043E050E061E072E283E297E20E94514034
:1033A000892B09F042C180912627803311F00C94BB
:1033B000F73380912727823309F46FC0833309F4F0
:1033C000D4C0813311F00C94F733809128278033D7
:1033D00021F0813391F10C94F733809129278033C8
:1033E00089F4E0E0F6E084818F77848380910D2773
:1033F000882341F085E092E29F938F930E94B04032
:103400000F900F9080912927813311F00C94F7339E
:10341000E0E0F6E084818068848380910D27882332
:1034200011F40C94F7338FE092E29F938F930E94F4
:10343000B0400F900F900C94F73380912927803380
:1034400089F4E0E0F6E084818F7B848380910D270E
:10345000882341F089E192E29F938F930E94B040CC
:103460000F900F9080912927813311F00C94F7333E
:10347000E0E0F6E084818064848380910D278823D6
:1034800011F40C94F73383E292E29F938F930E949E
:10349000B0400F900F900C94F73380912827803321
:1034A00021F0813391F10C94F733809129278033F7
:1034B00089F4E0E2F6E084818F77848380910D27A0
:1034C000882341F08DE292E29F938F930E94B04057
:1034D0000F900F9080912927813311F00C94F733CE
:1034E000E0E2F6E084818068848380910D27882360
:1034F00011F40C94F73387E392E29F938F930E9429
:10350000B0400F900F900C94F733809129278033AF
:1035100089F4E0E2F6E084818F7E848380910D2738
:10352000882341F081E492E29F938F930E94B04000
:103530000F900F9080912927813311F00C94F7336D
:10354000E0E2F6E084818061848380910D27882306
:1035500011F40C94F7338BE492E29F938F930E94C3
:10356000B0400F900F900C94F73380912827803350
:1035700021F0813391F10C94F73380912927803326
:1035800089F4E0E4F6E084818F77848380910D27CD
:10359000882341F085E592E29F938F930E94B0408B
:1035A0000F900F9080912927813311F00C94F733FD
:1035B000E0E4F6E084818068848380910D2788238D
:1035C00011F40C94F7338FE592E29F938F930E944E
:1035D000B0400F900F900C94F733809129278033DF
:1035E00071F480910D27882311F40C94F73389E648
:1035F00092E29F938F930E94B0400F900F90809122
:103600002927813311F00C94F73380910D278823FB
:1036100011F40C94F73383E792E29F938F930E9407
:10362000B0400F900F900C94F73343E050E06DE7FB
:1036300072E283E297E20E945140892B09F0A4C014
:1036400080912627803311F00C94F733809127273F
:10365000823309F441C0833309F477C0813311F018
:103660000C94F73380912827803321F08133D9F0EF
:103670000C94F73380910D27882311F40C94F733C1
:1036800080910406881F8827881F1F928F9381E8E6
:1036900092E29F938F930E94B0400F900F900F90F3
:1036A0000F900C94F73380910D27882311F40C941C
:1036B000F7338091040686FB882780F91F928F9349
:1036C0008DE892E29F938F930E94B0400F900F90ED
:1036D0000F900F900C94F73380912827803321F0BE
:1036E0008133D9F00C94F73380910D27882311F49E
:1036F0000C94F73380912406881F8827881F1F9217
:103700008F9389E992E29F938F930E94B0400F902C
:103710000F900F900F900C94F73380910D27882312
:1037200011F40C94F73380912406829581701F92D6
:103730008F9385EA92E29F938F930E94B0400F90FF
:103740000F900F900F900C94F733809128278033BF
:1037500011F00C94F73380910D27882311F40C9409
:10376000F73380914406881F8827881F1F928F9304
:1037700081EB92E29F938F930E94B0400F900F9045
:103780000F900F900C94F73343E050E06DEB72E232
:1037900083E297E20E945140892B09F0D6C08091C4
:1037A000D02781110C94F73380912627803311F0B4
:1037B0000C94F73380912727823309F448C0833370
:1037C00009F486C0813311F00C94F733E8E2F7E294
:1037D000AEE0B7E226E337E281918D93E217F3077B
:1037E000D9F78EE090E08093382790933927109294
:1037F00022278EE097E20E942A406093CC277093A4
:10380000CD278093CE279093CF270F2EFEE08F2ECB
:10381000F7E29F2EF02D9F928F9281EC92E29F9380
:103820008F938FE699E29F938F930E94F44081E0FB
:103830008093A228E0EAF6E08481816084830F907F
:103840000F900F900F900F900F900C94F733E8E2C9
:10385000F7E2AEE0B7E222E337E281918D932E17D3
:103860003F07D9F78AE090E0809338279093392773
:10387000109218278EE097E20E942A406093C82792
:103880007093C9278093CA279093CB270F2EFEE011
:10389000CF2EF7E2DF2EF02DDF92CF928CEC92E26A
:1038A0009F938F938FE699E29F938F930E94F440AA
:1038B00081E08093A228E0EAF6E08481816084833D
:1038C0000F900F900F900F900F900F900C94F73374
:1038D000E8E2F7E2AEE0B7E222E337E281918D93CE
:1038E0002E173F07D9F78AE090E08093382790930E
:1038F0003927109218278EE097E20E942A406093A1
:10390000C4277093C5278093C6279093C7270EE0DE
:1039100017E21F930F9387ED92E29F938F938FE6A9
:1039200099E29F938F930E94F44081E08093A228B4
:10393000E0EAF6E08481816084830F900F900F901D
:103940000F900F900F900C94F73343E050E062EE2D
:1039500072E283E297E20E945140892B09F0AAC0EB
:1039600080912627803311F00C94F733809127271C
:103970008233D1F1833309F46AC0813311F00C949E
:10398000F733EEE0F7E288E197E211928E179F0796
:10399000E1F78AE090E080933827909339271092DE
:1039A00018276091CC277091CD278091CE279091D8
:1039B000CF272AE04EE057E20E946A4080910D270F
:1039C000882311F40C94F7338EE097E29F938F9342
:1039D00086EE92E29F938F930E94B0400F900F90DB
:1039E0000F900F900C94F733EEE0F7E288E197E246
:1039F00011928E179F07E1F78AE090E080933827B5
:103A000090933927109218276091C8277091C92781
:103A10008091CA279091CB272AE04EE057E20E947E
:103A20006A4080910D27882311F40C94F7338EE0BF
:103A300097E29F938F9381EF92E29F938F930E94DF
:103A4000B0400F900F900F900F900C94F733EEE072
:103A5000F7E288E197E21192E817F907E1F78AE0C7
:103A600090E080933827909339271092182760911F
:103A7000C4277091C5278091C6279091C7272AE057
:103A80004EE057E20E946A4080910D27882311F48E
:103A90000C94F7338EE097E29F938F938CEF92E232
:103AA0009F938F930E94B0400F900F900F900F90B4
:103AB0000C94F73343E050E067E073E283E297E26F
:103AC0000E945140892B09F04CC780915C278111DD
:103AD0000C94B03390915B2791110C94DA332091C0
:103AE0005A2791E0211101C090E090930C2790910A
:103AF000D02791110C94F733222399F090915B27F2
:103B0000911107C021E090915A27911103C020E044
:103B100001C021E0922F8111FECF9111FCCF2093A3
:103B20000C2780912627803309F08FC480912727A6
:103B3000823309F488C1833309F406C3813311F059
:103B40000C94F7334091CC275091CD276091CE272C
:103B50007091CF278091C0279091C127A091C22753
:103B6000B091C327481759076A077B072CF4E0E296
:103B7000F7E024812F7E248384179507A607B707D3
:103B80002CF4E0E2F7E0248120612483C0908D27AB
:103B9000D0908E27E0908F27F0909027C0928127B9
:103BA000D0928227E0928327F092842780907D270D
:103BB00090907E27A0907F27B090802789829A825C
:103BC000AB82BC828092652790926627A09267277D
:103BD000B09268278090712790907227A0907327E9
:103BE000B09074278092612790926227A0926327F9
:103BF000B0926427841B950BA60BB70B2C013D01DB
:103C00003AF4442455243201481A590A6A0A7B0AB4
:103C10004092A8275092A9276092AA277092AB27BA
:103C200088EE93E08093442790934527109256277F
:103C30001092572710925827109259278FEF9FEF15
:103C40008093280890932908C701B6010E94C23EBC
:103C500020E030E048EC52E40E944E3F6D837E83CA
:103C60008F83988769817A818B819C810E94C23E73
:103C70009B01AC016D817E818F8198850E94183EE9
:103C80000E948A3E9B01AC01C701B6010E94ED3F34
:103C9000209352273093532740935427509355270E
:103CA000C501B4010E94C23E9B01AC016D817E81C1
:103CB0008F8198850E94183E0E948A3E9B01AC012C
:103CC000C701B6010E94ED3F20934E2730934F2746
:103CD0004093502750935127A7019601C701B60181
:103CE0000E94BB3F6D837E838F839887A5019401DB
:103CF0000E94ED3F69017A01209394273093952724
:103D000040939627509397276D817E818F81988568
:103D100029813A814B815C810E94ED3F4601570128
:103D2000820E931EA41EB51E80925D2790925E2780
:103D3000A0925F27B092602784149504A604B7046C
:103D4000CCF1C301B2010E94C23E69837A838B83A6
:103D50009C83C501B4010E94C23E9B01AC016981F4
:103D60007A818B819C810E94183E4B015C01C701C6
:103D7000B6010E94C23E9B01AC01C501B4010E9484
:103D80004E3F0E948A3E60939427709395278093BC
:103D900096279093972763015201A61AB70AC80A7B
:103DA000D90AA0929827B0929927C0929A27D092C8
:103DB0009B270EC0D301C201821B930BA40BB50B32
:103DC0008093982790939927A0939A27B0939B2745
:103DD0008091C0279091C127A091C227B091C3279D
:103DE0004091CC275091CD276091CE277091CF275D
:103DF000841B950BA60BB70BAC01BD013AF444270D
:103E00005527BA01481B590B6A0B7B0B4093A4271B
:103E10005093A5276093A6277093A72781E08093EE
:103E20004D2798E0EBE0F3E2AFE6B9E201900D92A6
:103E30009A95E1F78093A228E0EAF6E08481816018
:103E400084830C94F7334091C8275091C92760911F
:103E5000CA277091CB278091BC279091BD27A09154
:103E6000BE27B091BF27481759076A077B072CF474
:103E7000E0E2F7E024812B7F248384179507A607CF
:103E8000B7072CF4E0E2F7E0248124602483C0909B
:103E90008927D0908A27E0908B27F0908C27C092BA
:103EA0008127D0928227E0928327F0928427809006
:103EB000792790907A27A0907B27B0907C278982E1
:103EC0009A82AB82BC828092652790926627A092EC
:103ED0006727B092682780906D2790906E27A090FA
:103EE0006F27B09070278092612790926227A092EE
:103EF0006327B0926427841B950BA60BB70B2C018C
:103F00003D013AF4442455243201481A590A6A0AF8
:103F10007B0A4092A8275092A9276092AA27709204
:103F2000AB2788EE93E0809342279093432710922B
:103F300056271092572710925827109259278FEF23
:103F40009FEF8093280890932908C701B6010E942B
:103F5000C23E20E030E048EC52E40E944E3F6D83C8
:103F60007E838F83988769817A818B819C810E946F
:103F7000C23E9B01AC016D817E818F8198850E943C
:103F8000183E0E948A3E9B01AC01C701B6010E9407
:103F9000ED3F20935227309353274093542750935B
:103FA0005527C501B4010E94C23E9B01AC016D8141
:103FB0007E818F8198850E94183E0E948A3E9B01D7
:103FC000AC01C701B6010E94ED3F20934E2730930C
:103FD0004F274093502750935127A7019601C701BF
:103FE000B6010E94BB3F6D837E838F839887A501B6
:103FF00094010E94ED3F69017A0120939427309348
:10400000952740939627509397276D817E818F81C6
:10401000988529813A814B815C810E94ED3F460160
:104020005701820E931EA41EB51E80925D279092AA
:104030005E27A0925F27B092602784149504A6049F
:10404000B704CCF1C301B2010E94C23E69837A83F6
:104050008B839C83C501B4010E94C23E9B01AC01CD
:1040600069817A818B819C810E94183E4B015C01A1
:10407000C701B6010E94C23E9B01AC01C501B4015B
:104080000E944E3F0E948A3E60939427709395272A
:10409000809396279093972763015201A61AB70A37
:1040A000C80AD90AA0929827B0929927C0929A2755
:1040B000D0929B270EC0D301C201821B930BA40B8D
:1040C000B50B8093982790939927A0939A27B09344
:1040D0009B278091BC279091BD27A091BE27B091CE
:1040E000BF274091C8275091C9276091CA27709176
:1040F000CB27841B950BA60BB70BAC01BD013AF483
:1041000044275527BA01481B590B6A0B7B0B409378
:10411000A0275093A1276093A2277093A32781E043
:1041200080934D2798E0E3E1F3E2AFE6B9E2019036
:104130000D929A95E1F78093A228E0EAF6E0848157
:10414000816084830C94F7334091C4275091C52734
:104150006091C6277091C7278091B8279091B927A1
:10416000A091BA27B091BB27481759076A077B0768
:104170002CF4E0E2F7E024812E7F24838417950756
:10418000A607B7072CF4E0E2F7E02481216024833E
:10419000C0908527D0908627E0908727F0908827C9
:1041A000C0928127D0928227E0928327F0928427C1
:1041B0008090752790907627A0907727B0907827E9
:1041C00089829A82AB82BC82809265279092662710
:1041D000A0926727B09268278090692790906A27FD
:1041E000A0906B27B0906C278092612790926227F5
:1041F000A0926327B0926427841B950BA60BB70B84
:104200002C013D013AF4442455243201481A590A3C
:104210006A0A7B0A4092A8275092A9276092AA278F
:104220007092AB2788EE93E08093402790934127CC
:1042300010925627109257271092582710925927FC
:104240008FEF9FEF8093280890932908C701B6014C
:104250000E94C23E20E030E048EC52E40E944E3F13
:104260006D837E838F83988769817A818B819C811E
:104270000E94C23E9B01AC016D817E818F81988539
:104280000E94183E0E948A3E9B01AC01C701B60104
:104290000E94ED3F20935227309353274093542799
:1042A00050935527C501B4010E94C23E9B01AC0149
:1042B0006D817E818F8198850E94183E0E948A3E82
:1042C0009B01AC01C701B6010E94ED3F20934E2730
:1042D00030934F274093502750935127A7019601C1
:1042E000C701B6010E94BB3F6D837E838F83988791
:1042F000A50194010E94ED3F69017A012093942762
:104300003093952740939627509397276D817E8110
:104310008F81988529813A814B815C810E94ED3F94
:1043200046015701820E931EA41EB51E80925D2782
:1043300090925E27A0925F27B09260278414950424
:10434000A604B704CCF1C301B2010E94C23E698346
:104350007A838B839C83C501B4010E94C23E9B017A
:10436000AC0169817A818B819C810E94183E4B014E
:104370005C01C701B6010E94C23E9B01AC01C501B0
:10438000B4010E944E3F0E948A3E6093942770932E
:104390009527809396279093972763015201A61A39
:1043A000B70AC80AD90AA0929827B0929927C09252
:1043B0009A27D0929B270EC0D301C201821B930B78
:1043C000A40BB50B8093982790939927A0939A27D5
:1043D000B0939B278091B8279091B927A091BA27D5
:1043E000B091BB274091C4275091C5276091C62743
:1043F0007091C727841B950BA60BB70BAC01BD01B1
:104400003AF444275527BA01481B590B6A0B7B0B1A
:1044100040939C2750939D2760939E2770939F27DE
:1044200081E080934D2798E0EBE1F3E2AFE6B9E25B
:1044300001900D929A95E1F78093A228E0EAF6E0C8
:104440008481816084830C94F733813309F04BC0FD
:10445000809127278233D9F0833379F1813311F0AA
:104460000C94F73381E08093002098E0E3E2F3E2DC
:10447000AFE6B9E201900D929A95E1F78093A228F8
:10448000E0EAF6E08481816084830C94F73382E073
:104490008093002088E0EBE2F3E2AFE6B9E201901E
:1044A0000D928A95E1F781E08093A228E0EAF6E098
:1044B0008481816084830C94F73383E080930020AF
:1044C00088E0E3E3F3E2AFE6B9E201900D928A956A
:1044D000E1F781E08093A228E0EAF6E08481816040
:1044E00084830C94F733823309F0EEC1809127273F
:1044F000823309F4A7C0833309F445C1813311F035
:104500000C94F733E0E2F7E0848180618483C0900B
:104510008D27D0908E27E0908F27F0909027C09223
:104520008127D0928227E0928327F092842780907F
:104530007D2790907E27A0907F27B0908027809243
:10454000652790926627A0926727B09268274090CF
:104550007127509072276090732770907427409253
:1045600061275092622760926327709264271092AD
:1045700056271092572710925827109259278FEFDD
:104580009FEF8093280890932908C701B6010E94E5
:10459000C23E20E030E048EC52E40E944E3F698386
:1045A0007A838B839C83C501B4010E94C23E9B0128
:1045B000AC0169817A818B819C810E94183E0E94A6
:1045C0008A3E9B01AC01C701B6010E94ED3F2093DA
:1045D0005227309353274093542750935527C301B4
:1045E000B2010E94C23E9B01AC0169817A818B813C
:1045F0009C810E94183E0E948A3E9B01AC01C7012B
:10460000B6010E94ED3F20934E2730934F274093F1
:1046100050275093512781E08093002780934D27A6
:1046200098E0EBE0F3E2AFE6B9E201900D929A95E3
:10463000E1F78093A228E0EAF6E084818160848338
:104640000C94F733E0E2F7E0848184608483C090C7
:104650008927D0908A27E0908B27F0908C27C092F2
:104660008127D0928227E0928327F092842740907E
:10467000792750907A2760907B2770907C27409212
:10468000652750926627609267277092682780900E
:104690006D2790906E27A0906F27B0907027809222
:1046A000612790926227A0926327B09264271092AC
:1046B00056271092572710925827109259278FEF9C
:1046C0009FEF8093280890932908C701B6010E94A4
:1046D000C23E20E030E048EC52E40E944E3F698345
:1046E0007A838B839C83C301B2010E94C23E9B01EB
:1046F000AC0169817A818B819C810E94183E0E9465
:104700008A3E9B01AC01C701B6010E94ED3F209398
:104710005227309353274093542750935527C50170
:10472000B4010E94C23E9B01AC0169817A818B81F8
:104730009C810E94183E0E948A3E9B01AC01C701E9
:10474000B6010E94ED3F20934E2730934F274093B0
:1047500050275093512782E08093002781E0809377
:104760004D2798E0E3E1F3E2AFE6B9E201900D9264
:104770009A95E1F78093A228E0EAF6E084818160CF
:1047800084830C94F733E0E2F7E0848181608483D2
:10479000C0908527D0908627E0908727F0908827C3
:1047A000C0928127D0928227E0928327F0928427BB
:1047B00040907527509076276090772770907827E3
:1047C000409265275092662760926727709268270B
:1047D0008090692790906A27A0906B27B0906C27F3
:1047E0008092612790926227A0926327B0926427FB
:1047F0001092562710925727109258271092592737
:104800008FEF9FEF8093280890932908C701B60186
:104810000E94C23E20E030E048EC52E40E944E3F4D
:1048200069837A838B839C83C301B2010E94C23E59
:104830009B01AC0169817A818B819C810E94183E29
:104840000E948A3E9B01AC01C701B6010E94ED3F68
:104850002093522730935327409354275093552742
:10486000C501B4010E94C23E9B01AC0169817A81FD
:104870008B819C810E94183E0E948A3E9B01AC0164
:10488000C701B6010E94ED3F20934E2730934F277A
:10489000409350275093512783E08093002781E075
:1048A00080934D2798E0EBE1F3E2AFE6B9E20190A7
:1048B0000D929A95E1F78093A228E0EAF6E08481D0
:1048C000816084830C94F733833311F00C94F733B5
:1048D000809127278233D9F0833371F1813311F02E
:1048E0000C94F73381E080934C2798E0EBE3F3E2FC
:1048F000AFE6B9E201900D929A95E1F78093A22874
:10490000E0EAF6E08481816084830C94F73381E0EF
:1049100080934C2798E0E3E4F3E2AFE6B9E201903C
:104920000D929A95E1F78093A228E0EAF6E084815F
:10493000816084830C94F73381E080934C2798E066
:10494000EBE4F3E2AFE6B9E201900D929A95E1F75C
:104950008093A228E0EAF6E08481816084830C944D
:10496000F73343E050E063E573E283E297E20E94AD
:104970005140892B09F05DC08091D02781110C94A2
:10498000F73380912627803311F00C94F733809110
:1049900027278233F1F08333A1F1813311F00C9496
:1049A000F7331092A4271092A5271092A6271092F1
:1049B000A72780910D27882311F40C94F73387E5FE
:1049C00093E29F938F930E94B0400F900F900C94AE
:1049D000F7331092A0271092A1271092A2271092CD
:1049E000A32780910D27882311F40C94F7338FE5CA
:1049F00093E29F938F930E94B0400F900F900C947E
:104A0000F73310929C2710929D2710929E271092A8
:104A10009F2780910D27882311F40C94F73387E6A4
:104A200093E29F938F930E94B0400F900F900C944D
:104A3000F73343E050E06FE673E283E297E20E94CF
:104A40005140892B09F07DC080912627803311F0D9
:104A50000C94F73380912727823359F1833309F47B
:104A60004CC0813311F00C94F7336091A4277091FE
:104A7000A5278091A6279091A7272AE030E04EE055
:104A800057E20E945F4080910D27882311F40C9417
:104A9000F7338EE097E29F938F9383E793E29F93A0
:104AA0008F930E94B0400F900F900F900F900C9436
:104AB000F7336091A0277091A1278091A227909150
:104AC000A3272AE030E04EE057E20E945F40809149
:104AD0000D27882311F40C94F7338EE097E29F930F
:104AE0008F938EE793E29F938F930E94B0400F9035
:104AF0000F900F900F900C94F73360919C2770915A
:104B00009D2780919E2790919F272AE030E04EE0DC
:104B100057E20E945F4080910D27882311F40C9486
:104B2000F7338EE097E29F938F9389E893E29F9308
:104B30008F930E94B0400F900F900F900F900C94A5
:104B4000F73343E050E064E973E283E297E20E94C6
:104B50005140892B09F095C080912627803311F0B0
:104B60000C94F73380912727823399F1833309F42A
:104B70005CC0813311F00C94F7336091C0277091C1
:104B8000C1278091C2279091C3272AE030E04EE0F0
:104B900057E20E945F408EE097E29F938F9388E9EF
:104BA00093E29F938F938FE699E29F938F930E9456
:104BB000F44081E08093A228E0EAF6E084818160FD
:104BC00084830F900F900F900F900F900F900C9484
:104BD000F7336091BC277091BD278091BE279091DB
:104BE000BF272AE030E04EE057E20E945F408EE0AF
:104BF00097E29F938F9383EA93E29F938F938FE63D
:104C000099E29F938F930E94F44081E08093A228C1
:104C1000E0EAF6E08481816084830F900F900F902A
:104C20000F900F900F900C94F7336091B82770910C
:104C3000B9278091BA279091BB272AE030E04EE057
:104C400057E20E945F408EE097E29F938F938EEA37
:104C500093E29F938F938FE699E29F938F930E94A5
:104C6000F44081E08093A228E0EAF6E0848181604C
:104C700084830F900F900F900F900F900F900C94D3
:104C8000F73343E050E069EB73E283E297E20E947E
:104C90005140892B09F08EC08091D02781110C944E
:104CA000F73380912627803311F00C94F7338091ED
:104CB0002727823379F1833309F454C0813311F00B
:104CC0000C94F7331092A4271092A5271092A627D0
:104CD0001092A7278091C0279091C127A091C22749
:104CE000B091C3278093CC279093CD27A093CE2754
:104CF000B093CF2780910D27882311F40C94F733BC
:104D000087E593E29F938F930E94B0400F900F909E
:104D10000C94F7331092A0271092A1271092A2278B
:104D20001092A3278091BC279091BD27A091BE2708
:104D3000B091BF278093C8279093C927A093CA2713
:104D4000B093CB2780910D27882311F40C94F7336F
:104D50008FE593E29F938F930E94B0400F900F9046
:104D60000C94F73310929C2710929D2710929E2747
:104D700010929F278091B8279091B927A091BA27C8
:104D8000B091BB278093C4279093C527A093C627D3
:104D9000B093C72780910D27882311F40C94F73323
:104DA00087E693E29F938F930E94B0400F900F90FD
:104DB0000C94F73343E050E06DEB73E283E297E24B
:104DC0000E945140009709F0C1C030915C27311119
:104DD0000C94BA3320915B2721110C94E433209179
:104DE0005A2741E0211101C040E040930C27409137
:104DF000D02741110C94F733222399F020915B279F
:104E0000211107C021E040915A27411103C020E041
:104E100001C021E0422F3111FECF4111FCCF209380
:104E20000C2720912627203311F00C94F733209182
:104E30002727223399F1233309F45CC0213311F081
:104E40000C94F733A8E2B7E2EEE0F7E22D9121935C
:104E500001968A309105D4F38093382790933927AF
:104E6000109218278EE097E20E942A406093C02794
:104E70007093C1278093C2279093C32780910D27F9
:104E8000882311F40C94F73381EC93E29F938F9372
:104E90000E94B0400F900F900C94F733A8E2B7E255
:104EA000EEE0F7E22D91219301968A309105D4F33B
:104EB0008093382790933927109218278EE097E235
:104EC0000E942A406093BC277093BD278093BE2721
:104ED0009093BF2780910D27882311F40C94F7330A
:104EE00089EC93E29F938F930E94B0400F900F90B4
:104EF0000C94F733A8E2B7E2EEE0F7E22D912193AC
:104F000001968A309105D4F38093382790933927FE
:104F1000109218278EE097E20E942A406093B827EB
:104F20007093B9278093BA279093BB2780910D2760
:104F3000882311F40C94F73381ED93E29F938F93C0
:104F40000E94B0400F900F900C94F73343E050E074
:104F500069ED73E283E297E20E945140892B81F56B
:104F600090915C2791110C94C43380915B2781113F
:104F70000C94EE3380915A2721E0811101C020E08A
:104F800020930C272091D02721110C94F7338823EC
:104F900011F40C94F73380915B27811107C081E0F5
:104FA00020915A27211103C080E001C081E0282F01
:104FB0009111FECF2111FCCF80930C270C94F73375
:104FC00043E050E06DED73E283E297E20E945140CE
:104FD000009709F0E5C020915C2721110C94CE3395
:104FE00020915B2721110C94CE3321E030915A2778
:104FF000311101C020E020930C2731E04091D027EF
:10500000411130E0231710F00C94F733209126273C
:10501000203311F00C94F73320912727223309F421
:1050200047C0233309F480C0213311F00C94F733C7
:10503000A8E2B7E2EEE0F7E22D91219301968A30E3
:105040009105D4F38093382790933927109218272D
:105050008EE097E20E9426400E948A3E60938D2750
:1050600070938E2780938F27909390270F2EFEE0CA
:10507000CF2EF7E2DF2EF02DDF92CF9281EE93E27A
:105080009F938F938FE699E29F938F930E94F440B2
:1050900081E08093A228E0EAF6E084818160848345
:1050A0000F900F900F900F900F900F900C94F7337C
:1050B000A8E2B7E2EEE0F7E22D91219301968A3063
:1050C0009105D4F3809338279093392710921827AD
:1050D0008EE097E20E9426400E948A3E60938927D4
:1050E00070938A2780938B2790938C270EE017E28A
:1050F0001F930F938CEE93E29F938F938FE699E229
:105100009F938F930E94F44081E08093A228E0EA6D
:10511000F6E08481816084830F900F900F900F9050
:105120000F900F900C94F733A8E2B7E2EEE0F7E2AD
:105130002D91219301968A309105D4F380933827DD
:1051400090933927109218278EE097E20E9426400C
:105150000E948A3E609385277093862780938727D5
:10516000909388274EE057E25F934F9387EF93E247
:105170009F938F938FE699E29F938F930E94F440C1
:1051800081E08093A228E0EAF6E084818160848354
:105190000F900F900F900F900F900F900C94F7338B
:1051A00043E050E062E074E283E297E20E94514003
:1051B000892B09F052C080912627803311F00C947E
:1051C000F733809127278233E1F0833381F18133F4
:1051D00011F00C94F73380910D27882311F40C946F
:1051E000F73380915C271F928F9386E094E29F9320
:1051F0008F930E94B0400F900F900F900F900C94DF
:10520000F73380910D27882311F40C94F7338091A4
:105210005B271F928F9381E194E29F938F930E946B
:10522000B0400F900F900F900F900C94F733809137
:105230000D27882311F40C94F73380915A271F927D
:105240008F938CE194E29F938F930E94B0400F90D4
:105250000F900F900F900C94F73343E050E067E20B
:1052600074E283E297E20E945140892B09F071C0F9
:1052700080912627803311F00C94F73380912727F3
:10528000823339F1833309F444C0813311F00C9433
:10529000F73380910D27882311F40C94F733809114
:1052A00090278F9380918F278F9380918E278F9354
:1052B00080918D278F938BE294E29F938F930E942E
:1052C000B0400F900F900F900F900F900F900C9494
:1052D000F73380910D27882311F40C94F7338091D4
:1052E0008C278F9380918B278F9380918A278F9320
:1052F000809189278F9385E394E29F938F930E94F7
:10530000B0400F900F900F900F900F900F900C9453
:10531000F73380910D27882311F40C94F733809193
:1053200088278F93809187278F93809186278F93EB
:10533000809185278F938FE394E29F938F930E94B0
:10534000B0400F900F900F900F900F900F900C9413
:10535000F73343E050E069E474E283E297E20E94AD
:105360005140009709F0E9C020915C2721110C946D
:10537000D23320915B2721110C94D23321E030915C
:105380005A27311101C020E020930C2731E04091D1
:10539000D027411130E0231710F00C94F7332091FF
:1053A0002627203311F00C94F7332091272722333E
:1053B00009F443C0233309F480C0213311F00C9465
:1053C000F733A8E2B7E2EEE0F7E22D9121930196E0
:1053D0008A309105D4F3809338279093392710921F
:1053E00018278EE097E20E9426400E948A3E609332
:1053F0007D2770937E2780937F2790938027AEE050
:10540000B7E2BF93AF938DE494E29F938F938FE6BF
:1054100099E29F938F930E94F44081E08093A228A9
:10542000E0EAF6E08481816084830F900F900F9012
:105430000F900F900F900C94F733A8E2B7E2EEE0D4
:10544000F7E22D91219301968A309105D4F3809350
:10545000382790933927109218278EE097E20E9400
:1054600026400E948A3E6093792770937A27809322
:105470007B2790937C270F2EFEE0AF2EF7E2BF2E06
:10548000F02DBF92AF9288E594E29F938F938FE6C1
:1054900099E29F938F930E94F44081E08093A22829
:1054A000E0EAF6E08481816084830F900F900F9092
:1054B0000F900F900F900C94F733A8E2B7E2EEE054
:1054C000F7E22D91219301968A309105D4F38093D0
:1054D000382790933927109218278EE097E20E9480
:1054E00026400E948A3E60937527709376278093AA
:1054F0007727909378270F2EFEE0EF2EF7E2FF2E0E
:10550000F02DFF92EF9283E694E29F938F938FE6C4
:1055100099E29F938F930E94F44081E08093A228A8
:10552000E0EAF6E08481816084830F900F900F9011
:105530000F900F900F900C94F73343E050E06EE61D
:1055400074E283E297E20E945140009709F0E7C0BD
:1055500020915C2721110C94D63320915B272111D7
:105560000C94D63330915A2721E0311101C020E04C
:1055700020930C2741E05091D027511140E024178F
:1055800010F00C94F73320912627203311F00C945F
:10559000F73320912727223309F443C0233309F43A
:1055A0007CC0213311F00C94F733A8E2B7E2EEE0AF
:1055B000F7E22D91219301968A309105D4F38093DF
:1055C000382790933927109218278EE097E20E948F
:1055D00026400E948A3E60937127709372278093C1
:1055E0007327909374272EE037E23F932F9382E73F
:1055F00094E29F938F938FE699E29F938F930E94FB
:10560000F44081E08093A228E0EAF6E084818160A2
:1056100084830F900F900F900F900F900F900C9429
:10562000F733A8E2B7E2EEE0F7E22D91219301967D
:105630008A309105D4F380933827909339271092BC
:1056400018278EE097E20E9426400E948A3E6093CF
:105650006D2770936E2780936F27909370278EE04D
:1056600097E29F938F938DE794E29F938F938FE6BA
:1056700099E29F938F930E94F44081E08093A22847
:10568000E0EAF6E08481816084830F900F900F90B0
:105690000F900F900F900C94F7333111FECFA8E2CA
:1056A000B7E2EEE0F7E22D91219301968A30910561
:1056B000D4F38093382790933927109218278EE0DF
:1056C00097E20E9426400E948A3E60936927709369
:1056D0006A2780936B2790936C270F2EFEE08F2E06
:1056E000F7E29F2EF02D9F928F9288E894E29F938D
:1056F0008F938FE699E29F938F930E94F44081E00D
:105700008093A228E0EAF6E08481816084830F9090
:105710000F900F900F900F900F900C94F73345E07F
:1057200050E063E974E283E297E20E945140892BE2
:1057300009F002C120915C2721110BC080915B27E9
:10574000811109C091E080915A27811105C090E034
:1057500003C091E001C091E0892F90930C279091B4
:10576000D02791110C94F73330915B2791E0409151
:105770005A27411101C090E0813051F4211104C039
:10578000311104C0892FF8CF81E0F6CF81E0F4CF4A
:1057900080930C278091ED271F928F9389E994E2E3
:1057A0009F938F930E94B0408091ED270F900F90B0
:1057B0000F900F90813031F4E0E2F7E084818F7E2A
:1057C000848307C0811105C0E0E2F7E08481806135
:1057D000848380911828813031F4E0E2F7E08481FD
:1057E0008B7F848307C0811105C0E0E2F7E08481EC
:1057F0008460848380914328813031F4E0E2F7E0D3
:1058000084818E7F848307C0811105C0E0E2F7E0C8
:1058100084818160848380E49FE1A0E0B0E0809394
:10582000812790938227A0938327B0938427809326
:10583000562790935727A0935827B0935927109233
:105840004D2710924C2780E090E0A0E0B0E48093D8
:105850003C2790933D27A0933E27B0933F27BB243E
:10586000B394B092072788EE93E0809344279093F7
:105870004527809342279093432780934027909316
:1058800041278FEF9FEFAFEFBFE78093A42790935F
:10589000A527A093A627B093A7278093A02790932E
:1058A000A127A093A227B093A32780939C2790932E
:1058B0009D27A0939E27B0939F270E94E30B20E093
:1058C00030E04AE754E460913C2770913D27809195
:1058D0003E2790913F270E944E3F0E94913E609349
:1058E00028087093290888E0E9EDF0E2AFE6B9E214
:1058F00001900D928A95E1F71092C0271092C1276E
:105900001092C2271092C3271092BC271092BD2775
:105910001092BE271092BF271092B8271092B92775
:105920001092BA271092BB27B092A228E0EAF6E0C4
:105930008481816084835BC745E050E067EA74E25C
:1059400083E297E20E945140892BA1F410929327A1
:1059500088E0EDEAF4E2AFE6B9E201900D928A95B3
:10596000E1F781E08093A228E0EAF6E0848181609B
:1059700084833DC745E050E065EB74E283E297E243
:105980000E945140892BA1F41092922788E0EBEB02
:10599000F4E2AFE6B9E201900D928A95E1F781E079
:1059A0008093A228E0EAF6E08481816084831FC7A7
:1059B00045E050E063EC74E283E297E20E945140DC
:1059C000892BA1F41092912788E0E9ECF4E2AFE68C
:1059D000B9E201900D928A95E1F781E08093A228C7
:1059E000E0EAF6E084818160848301C745E050E00D
:1059F00061ED74E283E297E20E945140892BA1F4A9
:105A000081E08093932798E0E7EDF4E2AFE6B9E216
:105A100001900D929A95E1F78093A228E0EAF6E0D2
:105A2000848181608483E3C645E050E06FED74E2D9
:105A300083E297E20E945140892BA1F481E0809398
:105A4000922798E0E5EEF4E2AFE6B9E201900D921C
:105A50009A95E1F78093A228E0EAF6E084818160DC
:105A60008483C5C645E050E06DEE74E283E297E2C0
:105A70000E945140892BA1F481E08093912798E006
:105A8000E3EFF4E2AFE6B9E201900D929A95E1F707
:105A90008093A228E0EAF6E0848181608483A7C62F
:105AA00045E050E06BEF74E283E297E20E945140E0
:105AB000892BA1F41092062788E0E1E0F5E2AFE639
:105AC000B9E201900D928A95E1F781E08093A228D6
:105AD000E0EAF6E084818160848389C645E050E095
